:020000040800F2
:10000000780C0020D5000008514F0008D13A0008B4
:1000100000000000000000000000000000000000E0
:100020000000000000000000000000008D510008EA
:1000300000000000000000008D4F00088D520008F5
:10004000E700000800000000E7000008E7000008E3
:10005000E7000008E7000008E7000008E7000008E4
:1000600000000000E7000008E7000008E7000008C3
:10007000E7000008E70000084958000800000000F9
:10008000E700000800000000000000001D57000805
:1000900000000000855700080D580008E700000820
:1000A000E7000008E7000008E7000008E700000894
:1000B000E700000800000000000000000000000051
:1000C0000348854600F0BCF900480047317100083C
:1000D000780C00200448804704480047FEE7FEE70C
:1000E000FEE7FEE7FEE7FEE70D570008C100000847
:1000F000F0B51FB40646002082B0054640240191A9
:1001000000901BE0019922460F46304600F045F969
:10011000049A059B801A994110D31046194622462D
:1001200000F02BF9361A8F41019722460120002159
:10013000009F00F022F938184D4100902046641EBF
:100140000028DFDC019B00982946324607B0F0BD4D
:1001500003460B439B0703D009E008C9121F08C0E0
:10016000042AFAD203E00B780370401C491C521E8B
:10017000F9D27047D2B201E00270401C491EFBD296
:1001800070470022F6E710B513460A4604461946A2
:10019000FFF7F0FF204610BDF8B502464A40D40FE5
:1001A00042004B0052085B089A4202D202460846BF
:1001B00011464A0023D0C30D4A00DDB2120EAD1A1B
:1001C000202D35DA49020126490AF6058A19002C44
:1001D00000D0524220214F1B1146B9402A4110182D
:1001E000C20D9A4221D0002C17D0012D08DCDA056F
:1001F000801AD20F8019D207DBB200F0E7F8F8BD01
:10020000DA05801A012340001B06C01880185A42E4
:100210008018CA0F1043490007E04908C20711437C
:10022000DA05801A80194008801800F0C7F8F8BD78
:1002300061000122511A001BF7E70122D207514049
:10024000AAE70122D2075040A6E7024670B54A400D
:10025000D30FDB0740002DD04A002AD0010E140E28
:10026000000212020919400A520A8418E5010446E4
:100270005443000A120A2E045043A4194219200CB8
:10028000C543AA18120C0125AD03521C52191204C1
:100290007F39240400D0521C104301D44000491E71
:1002A000C2B20C06C0092018401C4008802A02D0A7
:1002B00003E0002070BD40084000002900DA002063
:1002C000184370BD0122D207002800DB101A002954
:1002D00000DB511A814201D2012070470020704793
:1002E0000122D207002800DB101A002900DB511A76
:1002F000814201D9012070470020704710B50022CB
:100300009623114600F062F810BDC20F4100400272
:100310000123400ADB05D207090EC0187F2901DA44
:1003200000207047962903DC9623591AC84001E043
:1003300096398840002AF4D04042704770B5044690
:10034000002903D000202022012310E0002801D042
:100350000020C043C046C0460DE02546D5408D4232
:1003600005D30D469540641B1D4695404019154622
:10037000521E002DF1DC214670BD10B5202A04DB91
:100380000146203A9140002010BD914020239C1A44
:100390000346E3401943904010BD10B5202A04DB0A
:1003A0000846203AD040002110BD0B46D340D04033
:1003B0002024A21A91400843194610BD002904DAEE
:1003C000401C490001D140084000704770B400242F
:1003D000050C05D11024000402D1002921D01124DC
:1003E000050E01D100020834050F01D10001241DC2
:1003F000850F01D18000A41C002801DB4000641C93
:10040000002908D020252E1B0D46F540A14000D024
:1004100001212943084301061B1B000ADB1D02D5ED
:10042000002070BC7047DB05181880180029F8DA26
:10043000401C4900F5D170BC4008400070470000E6
:10044000064C0125064E05E0E36807CC2B430C3C27
:1004500098471034B442F7D3FFF736FE047600080D
:100460002476000870B58C180578401C6B075B0F6C
:1004700001D10378401C2A1106D10278401C03E008
:1004800006780E70401C491C5B1EF9D12B0705D461
:100490000023521E0DD40B70491CFAE70378401C50
:1004A000CB1A921C03E01D780D70491C5B1C521E78
:1004B000F9D5A142D8D3002070BD85B00490039136
:1004C000029200200190FFE70198029949088842B2
:1004D00010D2FFE7039801998A008118805A00041E
:1004E00049884018049909680860FFE70198401C92
:1004F0000190E9E702A80078C00700280AD0FFE7CA
:10050000049800680090039801998900405A009966
:100510000880FFE704980068006805B0704786B05F
:1005200005900491039200200290FFE7029803993E
:100530008908884216D2FFE7049802998A00811838
:10054000805C00064A78120480188A7812028018AB
:10055000C9784018059909680860FFE70298401CAF
:100560000290E3E703A800788007002845D0FFE762
:10057000039803210840012808D1FFE70498029955
:100580008900405C059909680870FFE7039803211A
:100590000840022811D1FFE7049802998A008118C7
:1005A000805C00024978401801A90880059800681D
:1005B0000090019800990880FFE703980321084004
:1005C000032819D1FFE7049802998A008118805CFA
:1005D00000024978401801A9088005980068009039
:1005E000019800990880049902988000401880784A
:1005F000059909680870FFE7FFE70598006800683B
:1006000006B0704781B0009000990868CA68801AE7
:100610008968884204DCFFE700998868086005E083
:100620000099CA680868801A0860FFE701B070473F
:1006300083B0029002980168426801200023009371
:100640009142019001DA00980190019803B070473F
:1006500081B0009000990868CA688018496888428B
:1006600004DBFFE700994868086005E00099CA6864
:10067000086880180860FFE701B0704781B00090FB
:1006800000990868CA6880184968884204DDFFE755
:1006900000998868086005E00099CA6808688018B1
:1006A0000860FFE701B0704781B00090009988684A
:1006B000086001B0704783B00290029801684268F8
:1006C0000120002300939142019001DB00980190EA
:1006D000019803B0704781B0EFF3108072B60090BC
:1006E000FFE7FEE782B0019043490868F822904393
:1006F0000090009A0198C0001043024A104308601D
:1007000002B070470200010080B584B0039002A9D6
:1007100001910020087000F005FB7D20C00000F072
:100720006DF801990870FFE75B4920200860FFE73A
:100730000398FFF7D7FF7D20C00000F05FF802A903
:1007400008702D49086802229043086000F086FA7C
:1007500004B080BD84B003900193009226490868DC
:10076000012210430860009803990860BFF36F8F5F
:1007700001980399486004B07047C04689B005905D
:10078000049103A900200870059802900498019034
:10079000194908680122920410430860EFF31080A1
:1007A000069006980090EFF3108072B60790FFE76E
:1007B00003A800783F280FD8FFE701980068029946
:1007C00008600198001D01900298001D0290039896
:1007D000401C03A90870EBE7FFE72F480068C0033F
:1007E000002801D5FFE7F8E700980890089880F303
:1007F000108809B07047C0461420024080B584B00C
:10080000029000F04DFC0299401800900120000475
:100810000190FFE720480068019908420BD0FFE7EC
:1008200000F03EFC0099884204D3FFE703A90320AF
:1008300008702DE0EEE718490868184A104001904A
:10084000174808600198002807D0FFE7019815496C
:10085000486003A9012008701AE000F021FC029909
:1008600040180090FFE70C480068400300280BD5B3
:10087000FFE700F015FC0099884204D3FFE703A9C5
:100880000320087004E0EEE703A900200870FFE7EA
:1008900003A8007804B080BD10200240FA83000055
:1008A000FB8300002C08002080B58AB009900891D5
:1008B00007920798C00806900798072108400590FE
:1008C000099800F038F804900020009003900290FE
:1008D0000498FFF719FF00F025FA00980190FFE750
:1008E00001980699884212D2FFE70999089843684F
:1008F0000268012000F0C8F90998083009900898AA
:1009000008300890FFE70198401C0190E8E705983F
:1009100000280CD0FFE70899059A02A8FFF718FCF9
:100920000999039B029A012000F0AEF9FFE700F05D
:1009300095F90AB080BD81B0009000981F21C906CA
:100940004018C00A01B0704787B006900591049224
:1009500003A9002008701F200290FFE70299481E9B
:1009600002900020002901900BD0FFE70598029922
:100970001F221140C84001210840414248410190D6
:10098000FFE70198C007002801D0FFE7E6E70498D9
:100990000090182852D80098810001A0405887463E
:1009A0003B0A00083D0A00083D0A00083D0A00080D
:1009B0003D0A00083D0A00083D0A00083D0A0008FB
:1009C000290A00083D0A00083D0A00083D0A0008FF
:1009D0003D0A00083D0A00083D0A00083D0A0008DB
:1009E000170A00083D0A00083D0A00083D0A0008F1
:1009F0003D0A00083D0A00083D0A00083D0A0008BB
:100A0000050A00080298072804D3FFE703A901207C
:100A10000870FFE716E00298082804D3FFE703A94F
:100A200001200870FFE70DE00298102804D3FFE7CB
:100A300003A901200870FFE704E003E003A90120F7
:100A40000870FFE703A8007800280FD1FFE705989A
:100A500006990968486106980068806818218843EB
:100A600004990843069909688860FFE703A800789D
:100A700007B0704780B586B00590049103920020BE
:100A8000019005990220487705980168886801223D
:100A9000104388600598006A0090012821D0FFE784
:100AA0000098022824D0FFE70098032827D1FFE709
:100AB00000200290FFE70298039988420CD2FFE7DA
:100AC0000498029989004058059909680860FFE771
:100AD0000298401C0290EEE70598006800680190BB
:100AE0000EE005980499039AFFF719FD019007E0BD
:100AF00005980499039AFFF7E0FC019000E0FFE7F6
:100B0000059901204877019806B080BD80B582B074
:100B100000900098002804D1FFE701A90120087087
:100B200058E00098407F002807D1FFE70099002097
:100B30000877009800F054F8FFE700990220487702
:100B40000098007900280DD1FFE70098016823483C
:100B500048610098006880681821884300990968F6
:100B600088600CE000988168C268FFF7EDFE0028FD
:100B700004D0FFE701A9012008702BE0FFE70098EF
:100B80004079002806D1FFE7009801680020C043A3
:100B9000086104E00099086909680861FFE70098A6
:100BA000006880686021884300994A691043096899
:100BB00088600098006880688021884300998A696D
:100BC00010430968886000990120487701A9002036
:100BD0000870FFE701A8007802B080BDB71DC1040E
:100BE00082B0019001980068094988420DD1FFE761
:100BF000FFE708480268012109030A430260006810
:100C0000084000900098FFE7FFE702B07047C04639
:100C1000003002403810024080B584B0039000F0EC
:100C20003FFA0290039801900198401C002806D0DA
:100C3000FFE709480178019840180190FFE7FFE7B6
:100C400000F02EFA0299401A0199884201D2FFE77A
:100C5000F6E704B080BDC046F803002081B06846C6
:100C6000012202703E480168D2071143016000680A
:100C7000C00F002804D0FFE7694600200870FFE796
:100C80006846007801B0704710B588B006900591AD
:100C900003930292FFE722480078012804D1FFE77E
:100CA00007A90220087036E01D4901200870FFE7FF
:100CB000FFE71B49002048607D20C000FFF79EFD34
:100CC000014601A80170007800281BD1FFE70698B3
:100CD000012806D1FFE70598039B029AFFF73AFD2A
:100CE00004E005980299FFF749FDFFE77D20C00069
:100CF000FFF784FD01A90870069A19490868904316
:100D00000860FFE7FFE7064900200870FFE7019849
:100D100007A90870FFE707A8007808B010BDC04613
:100D20002C08002081B06946002008700C4800683B
:100D3000C00F002810D0FFE70A490B4808600B4895
:100D4000086007480068C00F002804D0FFE7694624
:100D500001200870FFE7FFE76846007801B07047A0
:100D6000142002400820024023016745AB89EFCDE3
:100D70008AB00990089100200790FFE70898006862
:100D80000799C840002800D148E108980068079AF0
:100D900001219140084006900698002800D139E1D1
:100DA0000898406801280FD0FFE70898406802289B
:100DB0000AD0FFE708984068112805D0FFE7089897
:100DC000406812282CD1FFE70998806805900798A1
:100DD0004000032181400598884305900898C16828
:100DE00007984000814005980843059005980999A7
:100DF000886009984068059007980121814005980E
:100E00008843059008984068102108400109079818
:100E10008140059808430590059809994860FFE7C7
:100E20000998C06805900798400003218140059803
:100E3000884305900898816807984000814005988C
:100E40000843059005980999C860089840680228E9
:100E500005D0FFE708984068122820D1FFE70998DD
:100E60000799C90889004018006A0590079840074B
:100E7000C00E0F21814005988843059008980169AC
:100E800007984007C00E81400598084305900598D3
:100E90000999079AD208920089180862FFE7099811
:100EA0000068059007984100032002468A40059992
:100EB0009143059108994968014007984000814095
:100EC0000598084305900598099908600898C07925
:100ED000C006002800D49CE00798032188435049AD
:100EE0004058059007988007C00E0F218140059853
:100EF00088430590099805210907884203D1FFE737
:100F00000020049022E009984649884203D1FFE777
:100F10000120039017E009984349884203D1FFE775
:100F2000022002900CE00999404A03200523009317
:100F30009142019001D00098019001980290FFE742
:100F400002980390FFE703980490FFE7049907983D
:100F50008007C00E814005980843059005980799C1
:100F6000032291432E4A8850314800680590069923
:100F700005988843059008988079C007002805D017
:100F8000FFE70699059808430590FFE7059828496B
:100F900008602848006805900699059888430590E0
:100FA000089880798007002805D5FFE706990598FD
:100FB00008430590FFE705981E4908601E48006831
:100FC0000590069905988843059008988079C00691
:100FD000002805D5FFE70699059808430590FFE727
:100FE0000598154908601548006805900699059808
:100FF00088430590089880798006002805D5FFE78A
:101000000699059808430590FFE705980B49086085
:10101000FFE7FFE70798401C0790AFE60AB070476C
:10102000601802400004005000080050000C0050FE
:101030008018024084180240001802400418024040
:1010400084B0009101460098039102A9088003989A
:1010500000690988084204D0FFE701A9012008704F
:1010600003E001A900200870FFE701A8007804B0A0
:10107000704783B0029001A8018068460270007832
:10108000002805D0FFE701A800880299886104E0E4
:1010900001A8008802998862FFE703B0704700004A
:1010A000054800687047C046314802780249086820
:1010B000801808607047C0467008002080B582B074
:1010C00001A9002008700B4A116801231B02194373
:1010D000116000F011F8002804D0FFE701A90120F9
:1010E000087002E000F048F8FFE701A8007802B0BD
:1010F00080BDC0460020024080B584B0039002A9A4
:10110000002008701A480078002829D0FFE75148CD
:1011100000680190164801787D20C000FFF70EF9A5
:1011200001460198FFF70AF901F0B8FA002812D138
:10113000FFE70398032809D8FFE703990022D0436B
:1011400000F041F803980B49086003E002A9012070
:101150000870FFE703E002A901200870FFE703E041
:1011600002A901200870FFE702A8007804B080BD42
:10117000F8030020FC03002082B0FFE70B48026860
:1011800001210A4302600068084001900198FFE7CE
:10119000FFE7B9480268012109070A4302600068B5
:1011A000084000900098FFE702B0704740100240EE
:1011B00080B582B0014601A80170007840B205F008
:1011C000CFFE02B080BD80B584B0034603A8037093
:1011D00002910192007840B2029905F0D7FE04B066
:1011E00080BD000080B584B00290A4490868032245
:1011F00052029043029A104308600298012149026A
:1012000088421ED1FFE7134801680620484312496F
:10121000FFF794F8401C0190FFE710480068400574
:1012200000280DD5FFE70198002804D0FFE70198BA
:10123000401E019003E003A90320087005E0ECE7DD
:10124000FFE703A900200870FFE703A8007804B0B7
:1012500080BDC0462000002040420F0014700040B6
:1012600080B588B0079004A90020087003A9087011
:10127000079880788007002800D49DE002A900200C
:1012800008707D480068C000002810D4FFE7FFE721
:1012900079480268012109070A4302600068084092
:1012A00001900198FFE702A901200870FFE7734948
:1012B00008680122120210430860FFF7F1FE059052
:1012C000FFE76E480068C00500280CD4FFE7FFF771
:1012D000E7FE0599401A032804D3FFE704A9032079
:1012E000087000E0EDE704A80078002853D1FFE77C
:1012F000F548006803210902084006900698002876
:1013000017D0FFE7069807994969884211D0FFE78F
:10131000ED490868032212029043069008680122F2
:10132000120410430860086890430860069808603B
:10133000FFE706A80078C007002818D0FFE7FFF7EE
:10134000AFFE0590FFE7E0480068800700280DD455
:10135000FFE7FFF7A5FE0599401ADF49884204D34D
:10136000FFE704A90320087000E0ECE7FFE704A80A
:10137000007800280AD1FFE7D34908680322120247
:101380009043079A52691043086003E0049803A948
:101390000870FFE703E0049803A90870FFE702A8BC
:1013A0000078012807D1FFE73349086801221207B6
:1013B00090430860FFE7FFE707980078C007002820
:1013C00009D0FFE72E49086803229043079A526824
:1013D00010430860FFE707980078800600280AD5C8
:1013E000FFE727490868032212039043079A92688F
:1013F00010430860FFE7079840784006002818D59A
:10140000FFE71F490868032292079043079A126971
:10141000104308600798006901218907884207D1B5
:10142000FFE7184908680122120410430860FFE72B
:10143000FFE7079840780007002818D5FFE7104914
:101440000868032292039043079AD2681043086009
:101450000798C06801218903884207D1FFE7F04956
:1014600008680122120410430860FFE7FFE703A8A1
:10147000007808B080BDC0463C10024000700040BB
:10148000541002400C10024080B584B002900191CB
:101490000298002804D1FFE703A9012008700CE19D
:1014A00001988849096807221140884221D9FFE73D
:1014B0008449086807229043019A10430860FFF7A7
:1014C000EFFD0090FFE77F48006807210840019981
:1014D00088420DD0FFE7FFF7E3FD0099401A7E49EF
:1014E000884204D3FFE703A903200870E5E0EAE798
:1014F000FFE7029800788007002817D5FFE70298D9
:1015000000784007002807D5FFE7C449086807228C
:10151000120310430860FFE7C04908680F22120257
:101520009043029A926810430860FFE7029800789F
:10153000C007002872D0FFE70298406801280BD14D
:10154000FFE7BA4800688003002804D4FFE703A936
:1015500001200870B1E03DE00298406802280BD1FC
:10156000FFE7B24800688001002804D4FFE703A920
:1015700001200870A1E02CE00298406800280BD1FF
:10158000FFE7AA4800684005002804D4FFE703A944
:101590000120087091E01BE00298406803280BD1FD
:1015A000FFE74A4800688007002804D4FFE703A942
:1015B0000120087081E00AE04348006880070028A5
:1015C00004D4FFE703A90120087076E0FFE7FFE7F6
:1015D000FFE7FFE79149086807229043029A5268A3
:1015E00010430860FFF75CFD0090FFE78B48006840
:1015F0003821084002994968C90088420DD0FFE7A8
:10160000FFF74EFD0099401A3349884204D3FFE7A3
:1016100003A90320087050E0E8E7FFE70198294993
:10162000096807221140884221D2FFE7254908684E
:1016300007229043019A10430860FFF731FD0090A4
:10164000FFE72048006807210840019988420DD033
:10165000FFE7FFF725FD0099401A1F49884204D390
:10166000FFE703A90320087027E0EAE7FFE70298F5
:101670000078400700280AD5FFE768490868072274
:1016800012039043029AD26810430860FFE700F00B
:101690003FF8624909680F22120211408A090C4979
:1016A00089581F221140C8400E4908600948006847
:1016B000FFF722FD03A90870FFE703A8007804B034
:1016C00080BDC046002002405C1002406010024015
:1016D00014750008FC03002089130000014800680D
:1016E0007047C0462000002080B582B0FFF7F6FFAB
:1016F000019003F01FF801460198090B8A00034985
:1017000089581F221140C84002B080BD547500089E
:1017100080B588B0414800688006400F00280FD18E
:10172000FFE7424800680721C9020840C10A0120BA
:101730008840039003993C48FEF700FE029069E060
:101740003648006838210840082803D1FFE73548AB
:1017500002905EE0314800683821084010283CD1F2
:10176000FFE72F48016803221140069100687021AD
:1017700008400009401C049006980190022812D0ED
:10178000FFE7019803280FD1FFE704992548FEF7EA
:10179000D5FD0146224800687F2212021040000A4F
:1017A000484307900EE0FFE704991F48FEF7C6FD87
:1017B00001461B4800687F2212021040000A48437D
:1017C0000790FFE716480068400F401C05900798F7
:1017D0000599FEF7B3FD02901AE010480068382121
:1017E0000840202804D1FFE70120C00302900EE04A
:1017F0000A48006838210840182804D1FFE77D20F6
:101800000002029002E000200290FFE7FFE7FFE7FE
:10181000FFE7FFE7029808B080BDC046081002400D
:101820000C10024000127A000024F4000010024064
:1018300010B588B006900698002804D1FFE707A9E4
:10184000012008702EE306980078C007002800D118
:1018500088E0FC480068382108400490FA48006895
:101860000321084003900498102804D1FFE703984F
:10187000032804D0FFE70498082810D1FFE7F848B0
:1018800000688003002809D5FFE706984068002813
:1018900004D1FFE707A90120087003E361E0FFE737
:1018A0000698406801210904884207D1FFE7EC4906
:1018B000086801221204104308601DE00698406881
:1018C0000521090488420BD1FFE7E5490868012298
:1018D00093041843086008681204104308600AE083
:1018E000DF490868012213049843086008689204DD
:1018F00090430860FFE7FFE7FFE70698406800288D
:1019000017D0FFE7FFF7CCFB0590FFE7D44800684E
:10191000800300280CD4FFE7FFF7C2FB0599401AAB
:10192000652804D3FFE707A903200870BAE2EDE7B2
:1019300016E0FFF7B5FB0590FFE7C9480068800394
:1019400000280CD5FFE7FFF7ABFB0599401A652887
:1019500004D3FFE707A903200870A3E2EDE7FFE740
:10196000FFE7FFE7069800788007002800D4A3E08F
:10197000B4480068382108400490B3480068032147
:10198000084003900498102804D1FFE70398022828
:1019900004D0FFE7049800283BD1FFE7B048006877
:1019A0004005002809D5FFE70698C068002804D143
:1019B000FFE707A90120087074E2AA4908687F229E
:1019C00012029043069A526912021043086004986A
:1019D000002811D1FFE7A24802680721C9028A4303
:1019E000069B1B691A43026000680840C10A9E48B2
:1019F000C8409E490860FFE79D480068FFF77CFBF0
:101A0000002804D0FFE707A9012008704AE2FFE799
:101A100051E00698C06800282FD0FFE79049086879
:101A20000722D2029043069A1269104308600868A0
:101A30000122120210430860FFF732FB0590FFE716
:101A400087480068400500280CD4FFE7FFF728FB13
:101A50000599401A032804D3FFE707A9032008705B
:101A600020E2EDE77F4908687F2212029043069A40
:101A700052691202104308601CE07949086801228B
:101A8000120290430860FFF70BFB0590FFE77448D4
:101A90000068400500280CD5FFE7FFF701FB05991A
:101AA000401A032804D3FFE707A903200870F9E1CF
:101AB000EDE7FFE7FFE7FFE706980078000700285B
:101AC00056D5FFE7F948006838210840182810D19A
:101AD000FFE7F94800688007002809D5FFE7069866
:101AE0008069002804D1FFE707A901200870D9E127
:101AF0003DE00698806900281CD0FFE7EE490868A1
:101B0000012210430860FFF7CBFA0590FFE7EA488F
:101B10000068800700280CD4FFE7FFF7C1FA059999
:101B2000401A032804D3FFE707A903200870B9E18E
:101B3000EDE71BE0E0490868012290430860FFF7E9
:101B4000AFFA0590FFE7DC480068800700280CD555
:101B5000FFE7FFF7A5FA0599401A032804D3FFE72A
:101B600007A9032008709DE1EDE7FFE7FFE7FFE726
:101B7000069800784007002800D4CAE002A9002097
:101B80000870CA48006838210840202810D1FFE7B3
:101B9000CC4800688007002809D5FFE706988068D0
:101BA000002804D1FFE707A9012008707AE1AFE01F
:101BB000C2480068C000002810D4FFE7FFE7BF4814
:101BC0000268012109070A43026000680840019089
:101BD0000198FFE702A901200870FFE7B8480068F4
:101BE000C00500281DD4FFE7B5490868012212028C
:101BF00010430860FFF754FA0590FFE7B04800680B
:101C0000C00500280CD4FFE7FFF74AFA0599401AEF
:101C1000032804D3FFE707A90320087042E1EDE79A
:101C2000FFE7FFE706988068012806D1FFE7A5498E
:101C3000086801221043086027E00698806805289C
:101C400018D103E0081002400C1002409D490868BA
:101C5000042210430860086801221043086013E062
:101C600000100240041002400024F4002000002074
:101C7000FC0300209349086801229043086008682B
:101C8000042290430860FFE7FFE7FFE706988068BB
:101C9000002818D0FFE7FFF703FA0590FFE789480F
:101CA0000068800700280DD4FFE7FFF7F9F90599D0
:101CB000401A8549884204D3FFE707A9032008702A
:101CC000F0E0ECE717E0FFF7EBF90590FFE77D4860
:101CD0000068800700280DD5FFE7FFF7E1F90599B7
:101CE000401A7949884204D3FFE707A90320087006
:101CF000D8E0ECE7FFE702A80078012807D1FFE76A
:101D00006E4908680122120790430860FFE7FFE769
:101D1000FFE70698C069002800D1BFE0634800686B
:101D20003821084010287AD0FFE70698C0690228B9
:101D30004ED1FFE75F490868012212069043086010
:101D4000FFF7AEF90590FFE75A48006880010028C8
:101D50000CD5FFE7FFF7A4F90599401A032804D32F
:101D6000FFE707A9032008709CE0EDE750490868E9
:101D7000574A1040069B1A6A5C6A22439C6A2402F6
:101D80002243DC6A22431B6B1A4310430860494B11
:101D900018680122140620431860086812071043CF
:101DA0000860FFF77DF90590FFE742480068800171
:101DB00000280CD4FFE7FFF773F90599401A0328B0
:101DC00004D3FFE707A9032008706BE0EDE725E0E7
:101DD00038490868012212069043086034490868AF
:101DE0000322904308600868384A10400860FFF7F3
:101DF00057F90590FFE72F480068800100280CD5AF
:101E0000FFE7FFF74DF90599401A032804D3FFE7D0
:101E100007A90320087045E0EDE7FFE73DE00698DD
:101E2000C069012804D1FFE707A90120087039E043
:101E30001F48006803900398032108400699096A27
:101E4000884224D1FFE70398702108400699496A27
:101E500088421CD1FFE703987F21090208400699B8
:101E6000896A0902884212D1FFE703981F214904B9
:101E700008400699C96A884209D1FFE703980721FB
:101E8000490708400699096B884204D0FFE707A973
:101E90000120087006E0FFE7FFE7FFE707A9002041
:101EA0000870FFE707A8007808B010BD08100240CE
:101EB0000C10024000100240601002403C10024032
:101EC000007000405C10024089130000FFFFFEEF2D
:101ED0008C80C11F80B584B0039002910192039859
:101EE0000068406818490840009068464188029A96
:101EF000D17000991F2212021140090A029A5170F2
:101F000000993F221140029A91700088400B02997B
:101F100008700198002813D1FFE70298C07803F0F9
:101F200036F80299C8700298407803F030F80299A8
:101F300048700298807803F02AF802998870FFE7C9
:101F4000002004B080BDC0463FFFFF0080B584B0D4
:101F5000039002910192039800688068029948609A
:101F60000398006800691E49084002998860039838
:101F7000006800681B490840009000983F21090450
:101F80000840000C0299087000987F210A02104056
:101F9000000A029A507000980840029988700098D0
:101FA000012189050840800D0299C8700198002818
:101FB00013D1FFE70298007802F0E9FF0299087058
:101FC0000298407802F0E3FF029948700298807806
:101FD00002F0DDFF02998870FFE7002004B080BDA9
:101FE000FF7F00007F7F7F0080B582B0019069464F
:101FF000012008700198002873D0FFE7019829217B
:10200000405C00280CD1FFE7019928220020885469
:1020100001991120C0024860019800F069F8FFE7BB
:102020000199292202208854FFE701980168CA20FB
:1020300048620198016853204862FFE7019802F066
:10204000D5FF0146684601700078002838D1FFE7C7
:10205000019801688869254A104088610198826862
:1020600041690A43C1690A4301688869104388616C
:1020700001990869096808610198C1680A04016842
:10208000086910430861019802F0F4FF01466846B0
:1020900001700078002812D1FFE701980168886973
:1020A00007225207904388610198426A016A0A43F5
:1020B00081690A430168886910438861FFE7FFE787
:1020C000FFE701980168FF204862FFE76846007853
:1020D000002805D1FFE70199292201208854FFE754
:1020E000FFE76846007802B080BDC046BFFF8FFBA7
:1020F00082B00190019800680C49884213D1FFE733
:102100000B4908680122D20310430860FFE7094821
:102110000268012189020A430260006808400090B9
:102120000098FFE7FFE702B07047C0460028004074
:102130005C1002403C10024080B58AB008900791C4
:102140000692FFE708982821405C012804D1FFE7A8
:1021500009A90220087028E1089928220120885442
:10216000FFE7FFE7089929220220885406980028F3
:102170003DD1FFE70898006880694006002801D536
:10218000FFE703E007990020C870FFE70798C069E0
:10219000002801D1FFE700E0FFE70798007802F090
:1021A00006FF000400900798407802F000FF014607
:1021B00000980902401801900798807802F0F7FE15
:1021C0000146019841180798C2789205114302917F
:1021D0002021405C02F0EBFE01460298090608430C
:1021E0000799CA69104349690843049027E0089891
:1021F000006880694006002801D5FFE703E00799E1
:102200000020C870FFE70798C069002801D1FFE7E8
:1022100000E0FFE70799087800044A781202801866
:102220008A788018CA789205104320228A5C1206A8
:102230001043CA691043496908430490FFE70799AE
:102240004868896908430390FFE708980168CA2035
:1022500048620898016853204862FFE70798406A7F
:1022600001210902884245D1FFE708980168886981
:102270000122130298438861089801688869120353
:1022800090438861FEF70CFF0590FFE7089800680F
:10229000C068C00700281DD1FFE7FEF701FF0599C0
:1022A000401AFD49884214D3FFE7FFE70898016808
:1022B000FF204862FFE70899292203208854FFE79E
:1022C0000899282200208854FFE709A903200870F4
:1022D0006BE0DBE70498089909680864039808999B
:1022E000096848640898016888690122120210434D
:1022F000886146E008980168886901225302984382
:102300008861089801688869520390438861FEF7E4
:10231000C7FE0590FFE708980068C06802210840E2
:10232000400800281DD1FFE7FEF7BAFE0599401AC4
:10233000D949884214D3FFE7FFE708980168FF20D6
:102340004862FFE70899292203208854FFE708998B
:10235000282200208854FFE709A90320087024E000
:10236000D9E7049808990968886403980899096866
:10237000C864089801688869012252021043886184
:10238000FFE7FFE708980168FF204862FFE7089928
:10239000292201208854FFE7089928220020885428
:1023A000FFE709A900200870FFE709A800780AB034
:1023B00080BDC04680B588B0069005910492FFE7C5
:1023C00006982821405C012804D1FFE707A90220D4
:1023D000087081E00699282201208854FFE7FFE772
:1023E0000699292202208854049800280DD1FFE77D
:1023F00005984078C006002807D5FFE7059948787A
:10240000EF2210400A304870FFE7049800281CD1E2
:10241000FFE70598C07802F0CAFD00040090059817
:10242000407802F0C4FD014600980902401801906E
:102430000598807802F0BBFD014601984018059987
:1024400009784903084303900CE00599C878000413
:102450004A78120280188A7880180978490308435C
:102460000390FFE7FFE706980168CA2048620698D4
:10247000016853204862FFE7069802F0B7FD014665
:1024800002A80170007800280CD1FFE703981449D6
:102490000840069909684860069802F0EBFD02A919
:1024A0000870FFE7FFE706980168FF204862FFE732
:1024B00002A80078002805D1FFE70699292201200B
:1024C0008854FFE7FFE70699282200208854FFE799
:1024D000029807A90870FFE707A8007808B080BD38
:1024E0003FFFFF0080B588B0069005910492FFE79A
:1024F00006982821405C012804D1FFE707A90220A3
:10250000087098E00699282201208854FFE7FFE729
:102510000699292202208854FFE706980168CA20FC
:1025200048620698016853204862FFE7069802F067
:102530005DFD014602A801700078002861D1FFE727
:102540000498002828D1FFE70698006880694006B3
:10255000002801D5FFE703E005990020C870FFE7D8
:102560000598007802F023FD00040090059840785B
:1025700002F01DFD014600980902401801900598DF
:10258000807802F014FD0146019840180599C97839
:1025900089050843039018E00698006880694006A2
:1025A000002801D5FFE703E005990020C870FFE788
:1025B0000599087800044A78120280188A788018F1
:1025C000C978890508430390FFE703981C49084030
:1025D00006990968086006980168886901229204D2
:1025E000904388610598C2680069024306980168B3
:1025F000886910438861069802F03CFD02A90870C2
:10260000FFE7FFE706980168FF204862FFE702A89E
:102610000078002805D1FFE7069929220120885477
:10262000FFE7FFE70699282200208854FFE7029879
:1026300007A90870FFE707A8007808B080BDC0466A
:102640007F7F7F0080B584B0029002980168C868DF
:10265000A0229043C860FEF723FD0190FFE7029897
:102660000068C068800600280DD4FFE7FEF718FD5B
:102670000199401A0849884204D3FFE703A90320BF
:10268000087004E0EBE703A900200870FFE703A847
:10269000007804B080BDC046E903000080B582B078
:1026A0000190019802F0CAFD02B080BD85B0039090
:1026B0000291FFE703983C21405C012804D1FFE729
:1026C00004A90220087057E003993C220120885495
:1026D000FFE7FFE703993D22022088540398006832
:1026E0004068019003980068806800900398006833
:1026F000D64988420BD1FFE701980F21090588438D
:10270000019002984168019808430190FFE7019801
:102710007021884301900298016801980843019054
:10272000019803990968486003980068C74988427E
:1027300006D0FFE703980068C54988420ED1FFE73D
:10274000009880218843009002988168009808438F
:1027500000900098039909688860FFE703993D227B
:1027600001208854FFE703993C2200208854FFE7AA
:1027700004A900200870FFE704A8007805B070479E
:1027800080B582B000900098002804D1FFE701A92D
:102790000120087045E000983D21405C002808D1E8
:1027A000FFE700993C2200208854009800F03EF892
:1027B000FFE700993D2202208854009901C903F0E7
:1027C000A9F80099482201208854FFE700993E2289
:1027D0000120885400993F2288540099402288544F
:1027E000009941228854009942228854009943223A
:1027F0008854FFE7FFE7009944220120885400999C
:1028000045228854009946228854009947228854CA
:10281000FFE700993D220120885401A9002008709B
:10282000FFE701A8007802B080BD0000B0B594B009
:10283000139000201290119010900F900E9013980A
:102840000068824988423FD1FFE7FFE757480268A6
:102850000121C9020A430260006808400D900D98EA
:10286000FFE7FFE75348026801210A43026000685E
:1028700008400C900C98FFE7012420020E900220E3
:1028800003900F9000210691109111911290052054
:10289000000704900EA90591FEF76AFA039A0498BE
:1028A0000599069B65020E950F9210941193129252
:1028B000FEF75EFA069A0E2007901146FEF783FC9B
:1028C0000798FEF775FC69E0139800686049884234
:1028D0000CD1FFE7FFE73648026802210A43026095
:1028E000006808400B900B98FFE756E013980068CB
:1028F0002B49884216D1FFE7FFE72C4802680121E7
:10290000C9030A430260006808400A900A98FFE77A
:102910001320029000221146FEF755FC0298FEF7A4
:1029200047FC39E0139800681E49884216D1FFE73A
:10293000FFE71E480268012149040A43026000685B
:10294000084009900998FFE71520019000221146E0
:10295000FEF739FC0198FEF72BFC1CE01398006889
:102960001149884216D1FFE7FFE7104802680121AC
:1029700089040A4302600068084008900898FFE74D
:102980001620009001210022FEF71DFC0098FEF7A2
:102990000FFCFFE7FFE7FFE7FFE7FFE714B0B0BD7D
:1029A0000020004000440140004801404010024027
:1029B0003C1002403410024083B0019001983D2148
:1029C000405C012804D0FFE702A90120087038E02C
:1029D00001993D220220885401980168C8680122AB
:1029E0001043C860019800681849884206D0FFE784
:1029F000019800681649884218D1FFE701980068DD
:102A00008068144908400090009806280DD0FFE720
:102A1000009801210904884207D0FFE70198016866
:102A20000868012210430860FFE706E0019801688A
:102A30000868012210430860FFE702A9002008701F
:102A4000FFE702A8007803B07047C046002C0140A1
:102A5000000400400700010080B586B00490039197
:102A6000FFE704983C21405C012804D1FFE705A959
:102A700002200870ABE004993C2201208854FFE753
:102A8000FFE704993D22022088540498006880687A
:102A9000029002985049084002900298FF210902D2
:102AA0008843029002980499096888600398006836
:102AB0000190002875D0FFE70198102871D0FFE73A
:102AC000019820286DD0FFE70198302869D0FFE7F2
:102AD0000198402858D0FFE7019850283AD0FFE7E6
:102AE0000198602843D0FFE7019870280DD0FFE7D8
:102AF000019801210903884206D0FFE701980121CE
:102B00004903884216D053E053E004980068039BC1
:102B100099685A68DB6802F084FF0498006880684E
:102B2000029002987721084302900298049909685C
:102B300088603EE004980068039B99685A68DB68E7
:102B400002F06FFF04980168886801229203104325
:102B500088602EE004980068039A5168D26803F0F8
:102B60002BFA04980068502102F076FF21E00498C7
:102B70000068039A5168D26803F096FA04980068D6
:102B8000602102F069FF14E004980068039A51681C
:102B9000D26803F011FA04980068402102F05CFF4B
:102BA00007E0049800680399096802F055FF00E007
:102BB000FFE704993D2201208854FFE704993C2255
:102BC00000208854FFE705A900200870FFE705A84A
:102BD000007806B080BDC04688FFCEFF80B584B0C7
:102BE000029001910092FFE702983C21405C01288D
:102BF00004D1FFE703A90220087079E002993C2282
:102C000001208854FFE7FFE70098002816D1FFE76E
:102C100002980068019B19685A68DB6803F0F4F9B0
:102C20000298016888690C22904388610198826843
:102C3000029801688869104388614FE00098042871
:102C400018D1FFE702980068019B19685A68DB6891
:102C500003F054FA029801688869032292029043B3
:102C600088610198806802020298016888691043AF
:102C7000886132E00098082816D1FFE702980068C2
:102C8000019B19685A68DB6803F06FFA02980168C3
:102C9000C8690C229043C861019882680298016853
:102CA000C8691043C86117E002980068019B196861
:102CB0005A68DB6803F08FFA02980168C86903223A
:102CC00092029043C86101988068020202980168EC
:102CD000C8691043C861FFE7FFE7FFE7FFE7029914
:102CE0003C2200208854FFE703A900200870FFE77A
:102CF00003A8007804B080BD80B582B00090009831
:102D0000002804D1FFE701A90120087045E00098E0
:102D10003D21405C002808D1FFE700993C220020BB
:102D20008854009800F03DF8FFE700993D2202200A
:102D30008854009901C902F0EDFD00994822012054
:102D40008854FFE700993E220120885400993F22D1
:102D5000885400994022885400994122885400994F
:102D600042228854009943228854FFE7FFE70099E4
:102D70004422012088540099452288540099462213
:102D80008854009947228854FFE700993D2201208A
:102D9000885401A900200870FFE701A8007802B05C
:102DA00080BD81B0009001B07047000080B596B042
:102DB000149013911398002805D1FFE714983E2131
:102DC000405C0F9034E01398042805D1FFE7149875
:102DD0003F21405C0E9028E01398082805D1FFE7BA
:102DE00014984021405C0D901CE013980C2805D1EC
:102DF000FFE714984121405C0C9010E013981028D4
:102E000005D1FFE714984221405C0B9004E0149830
:102E10004321405C0B90FFE70B980C90FFE70C9868
:102E20000D90FFE70D980E90FFE70E980F90FFE7CB
:102E30000F9811A908701398002805D1FFE714987E
:102E40004421405C0A901CE01398042805D1FFE758
:102E500014984521405C099010E01398082805D18A
:102E6000FFE714984621405C089004E0149847213D
:102E7000405C0890FFE708980990FFE709980A90DE
:102E8000FFE70A9810A9087011A80078012805D159
:102E9000FFE710A80078012804D0FFE715A901205A
:102EA0000870DFE01398002805D1FFE714993E224F
:102EB0000220885438E01398042806D1FFE71499BB
:102EC0003F220220885407902CE01398082806D14E
:102ED000FFE7149940220220885406901FE01398BF
:102EE0000C2806D1FFE7149941220220885405904E
:102EF00012E01398102806D1FFE71499422202200D
:102F00008854049005E014994322022088540490C8
:102F1000FFE704980590FFE705980690FFE70698FD
:102F20000790FFE70798FFE71398002805D1FFE710
:102F300014994422022088541EE01398042806D1D4
:102F4000FFE71499452202208854039012E0139859
:102F5000082806D1FFE714994622022088540290DF
:102F600005E014994722022088540290FFE7029856
:102F70000390FFE70398FFE7139801900C283BD8D4
:102F80000198810001A040588746C046C12F000823
:102F9000F92F0008F92F0008F92F0008CF2F00089B
:102FA000F92F0008F92F0008F92F0008DD2F00087D
:102FB000F92F0008F92F0008F92F0008EB2F00085F
:102FC00014980168C86802221043C86015E014987C
:102FD0000168C86804221043C8600EE014980168B4
:102FE000C86808221043C86007E014980168C868E0
:102FF00010221043C86000E0FFE71498006813999E
:10300000012202F0F5FC149800689349884206D02A
:10301000FFE7149800682B49884218D1FFE71498FD
:1030200000688068114908401290129806280DD057
:10303000FFE7129801210904884207D0FFE714989E
:1030400001680868012210430860FFE706E0149851
:1030500001680868012210430860FFE715A90020F5
:103060000870FFE715A8007816B080BD07000100C2
:1030700080B588B0079000200690059004900390DA
:103080000290079800680F49884219D1FFE7FFE7CF
:103090000D48026802210A4302600068084001905E
:1030A0000198FFE720200290022003900020049066
:1030B000059001200690054802A9FDF759FEFFE79B
:1030C00008B080BD000400403410024000040050ED
:1030D00080B584B0029001910298002804D1FFE7E6
:1030E00003A90120087039E002983D21405C0028C6
:1030F00008D1FFE702993C2200208854029800F092
:1031000031F8FFE702993D2200920220885402998B
:1031100001C902F0FFFB009A0298016808680823C1
:1031200098430860019B029801680868184308608A
:10313000029948230120C85402993E23C854029999
:103140003F23C85402994423C85402994523C854C4
:103150000299885403A900200870FFE703A80078AB
:1031600004B080BD81B0009001B0704780B58AB0D6
:103170000890079108983E21415C06A801700899C3
:103180003F22895C05AA117008994422895C04AA2F
:10319000117008994522895C03AA117000780128F2
:1031A0000FD1FFE705A8007801280AD1FFE704A89E
:1031B0000078012805D1FFE703A80078012804D092
:1031C000FFE709A90120087042E008993E22022089
:1031D000885408993F2288540899442288540899B1
:1031E000452288540898006800210122019202F0CB
:1031F000FFFB019A08980068042102F0F9FB01988E
:1032000008990968144A9142029010D0FFE7089883
:1032100001680120114A9142029008D0FFE7089806
:1032200000680F494018414248410290FFE7029868
:10323000C007002808D0FFE708980168486C012201
:10324000D20310434864FFE709A900200870FFE794
:1032500009A800780AB080BD002C0140004401405C
:1032600000B8FEBF80B586B0049003910292FFE7DC
:1032700004983C21405C012804D1FFE705A9022005
:103280000870E0E004993C2201208854FFE7FFE742
:1032900002980190142800D9CAE00198810001A089
:1032A00040588746F93200083134000831340008AC
:1032B000313400082B330008313400083134000861
:1032C000313400086133000831340008313400081B
:1032D00031340008933300083134000831340008D9
:1032E00031340008C9330008313400083134000893
:1032F00031340008FB33000804980068039902F099
:10330000C3FB049801688869082210438861049807
:1033100001688869042290438861039802690498CF
:10332000016888691043886183E004980068039904
:1033300002F020FC0498016888690122D302184336
:1033400088610498016888699202904388610398B3
:10335000006902020498016888691043886168E086
:1033600004980068039902F08FFC04980168C8690A
:1033700008221043C86104980168C8690422904378
:10338000C8610398026904980168C8691043C8615C
:103390004FE004980068039902F002FD0498016868
:1033A000C8690122D3021843C86104980168C8693A
:1033B00092029043C8610398006902020498016870
:1033C000C8691043C86134E004980068039902F0AA
:1033D00045FD04980168486D08221043486504982B
:1033E0000168486D04229043486503980269049877
:1033F0000168486D104348651BE004980068039914
:1034000002F082FD04980168486D0122D30218433E
:10341000486504980168486D920290434865039896
:103420000069020204980168486D1043486500E095
:10343000FFE7FFE704993C2200208854FFE705A935
:1034400000200870FFE705A8007806B080BD80B5B1
:1034500082B000900098002804D1FFE701A9012064
:10346000087045E000983D21405C002808D1FFE746
:1034700000993C2200208854009800F03DF8FFE7B6
:1034800000993D2202208854009901C902F042FAB5
:103490000099482201208854FFE700993E2201202C
:1034A000885400993F2288540099402288540099FA
:1034B000412288540099422288540099432288541A
:1034C000FFE7FFE700994422012088540099452234
:1034D0008854009946228854009947228854FFE76F
:1034E00000993D220120885401A900200870FFE7BF
:1034F00001A8007802B080BD81B0009001B0704793
:1035000080B590B00E900D910D98002805D1FFE781
:103510000E983E21405C0B9034E00D98042805D1B4
:10352000FFE70E983F21405C0A9028E00D9808289C
:1035300005D1FFE70E984021405C09901CE00D98F2
:103540000C2805D1FFE70E984121405C089010E05F
:103550000D98102805D1FFE70E984221405C079096
:1035600004E00E984321405C0790FFE7079808901D
:10357000FFE708980990FFE709980A90FFE70A9883
:103580000B90FFE70B98012804D0FFE70FA901205B
:103590000870DDE00D98002805D1FFE70E993E2266
:1035A0000220885438E00D98042806D1FFE70E99D0
:1035B0003F220220885406902CE00D98082806D15E
:1035C000FFE70E9940220220885405901FE00D98D5
:1035D0000C2806D1FFE70E9941220220885404905E
:1035E00012E00D98102806D1FFE70E994222022022
:1035F0008854039005E00E994322022088540390DA
:10360000FFE703980490FFE704980590FFE705980B
:103610000690FFE70698FFE70D9802900C283BD82C
:103620000298810001A040588746C04661360008D4
:103630009936000899360008993600086F36000858
:103640009936000899360008993600087D3600083A
:103650009936000899360008993600088B3600081C
:103660000E980168C86802221043C86015E00E98E1
:103670000168C86804221043C8600EE00E98016813
:10368000C86808221043C86007E00E980168C8683F
:1036900010221043C86000E0FFE70E9800680D9903
:1036A0000122009202F0A4F900980E9909689C4A40
:1036B0009142019010D0FFE70E9801680120994ACD
:1036C0009142019008D0FFE70E9800689649401893
:1036D000414248410190FFE70198C007002808D007
:1036E000FFE70E980168486C0122D203104348643A
:1036F000FFE70E9800688A49884206D0FFE70E98D7
:1037000000681549884218D1FFE70E980068806864
:10371000124908400C900C9806280DD0FFE70C9831
:1037200001210904884207D0FFE70E980168086864
:10373000012210430860FFE706E00E980168086860
:10374000012210430860FFE70FA900200870FFE77F
:103750000FA8007810B080BD0004004007000100F1
:1037600080B588B007900691069805900C283BD844
:103770000598810001A040588746C046B13700082F
:10378000E9370008E9370008E9370008BF370008C3
:10379000E9370008E9370008E9370008CD370008A5
:1037A000E9370008E9370008E9370008DB37000887
:1037B00007980168C86802229043C86015E007981E
:1037C0000168C86804229043C8600EE00798016849
:1037D000C86808229043C86007E007980168C86875
:1037E00010229043C86000E0FFE707980068069940
:1037F000002202F0FDF8079801680120484A914232
:10380000049010D0FFE7079801680120454A9142D3
:10381000049008D0FFE707980068434940184142E8
:1038200048410490FFE70498C00700281AD0FFE73A
:10383000FFE707980068006A3C49084210D1FFE79B
:1038400007980068006A3A49084208D1FFE70798DC
:103850000168486C0122D20390434864FFE7FFE708
:10386000FFE7FFE7FFE707980068006A2F49084273
:103870000FD1FFE707980068006A2D49084207D179
:10388000FFE7079801680868012290430860FFE796
:10389000FFE7FFE70698002805D1FFE707993E22DA
:1038A0000120885438E00698042806D1FFE70799DC
:1038B0003F220120885403902CE00698082806D166
:1038C000FFE7079940220120885402901FE00698E4
:1038D0000C2806D1FFE70799412201208854019066
:1038E00012E00698102806D1FFE70799422201202E
:1038F0008854009005E007994322012088540090E5
:10390000FFE700980190FFE701980290FFE7029817
:103910000390FFE70398FFE7002008B080BDC04692
:10392000002C01400044014000B8FEBF111100000E
:103930004404000080B582B000900098002804D1B3
:10394000FFE701A9012008704AE00098806900287B
:1039500001D0FFE700E0FFE70098842140580028ED
:1039600008D1FFE70099802200208854009800F0D9
:103970003BF8FFE7009984222420885000980168D2
:103980000868012290430860009802F05FFD01285A
:1039900004D1FFE701A90120087021E00098806AA6
:1039A000002804D0FFE7009802F04EFCFFE70098E3
:1039B000016848680922D202904348600098016873
:1039C00088682A229043886000980168086801226C
:1039D00010430860009802F0E5FC01A90870FFE7B9
:1039E00001A8007802B080BD80B588B007900020A3
:1039F000069005900490039002900798006816497D
:103A0000884226D1FFE7FFE71448026801214904F4
:103A10000A4302600068084001900198FFE7FFE751
:103A20000F48026801210A430260006808400090C4
:103A30000098FFE70C2002900220039000200490E1
:103A40000590012006900520000702A9FDF790F9D6
:103A5000FFE708B080BDC046004400403C10024073
:103A60003410024080B584B018480190042101222E
:103A70000292FDF7FEFA0198029A0221FDF7F9FA87
:103A80000198029A1146FDF7F4FA029803F0DEF964
:103A9000182003F0DBF9292003F0D8F9032003F004
:103AA000D5F900200390FFE703981F280BDCFFE700
:103AB00003A800780021A02203F02AFAFFE7039868
:103AC000401C0390F0E704B080BDC04600040050E5
:103AD000FFE7FEE780B58AB00990002008900999B9
:103AE000009108684968FCF7A8FB009948610999AA
:103AF0000591886801904869049089690391FCF7F1
:103B00009CFB01460198FCF7A0FB0499024605982E
:103B10000292C068FCF799FB01460298FCF73CFB57
:103B20000399024605980792006906900846FCF73B
:103B300033FB01460498FCF780FB0599C969FCF743
:103B40002BFB01460698FCF780FB01460798FCF723
:103B500023FB08900998C06B00280AD0FFE709985A
:103B6000C16B4069884701460898FCF76EFB0890D6
:103B7000FFE709998869C8610999486988610998C6
:103B8000406A0899FCF708FB089008980999896A27
:103B9000FCF798FB002804D1FFE70998806A089099
:103BA0000CE008980999C96AFCF79AFB002804D12F
:103BB000FFE70998C06A0890FFE7FFE708980999AE
:103BC00048620AB080BD81B0009000990020086072
:103BD00000994860009A7F21C9055163009A90615D
:103BE000009AD061009A9060009AD060009A1061AB
:103BF000009A5061009A5062009A9162009AD062D5
:103C0000009A1163009988630099C86301B07047F6
:103C100010B59AB003F082FA002800D063E200F0F9
:103C20002DFD014645480170007840B216903E28AF
:103C300000D956E21698810001A040588746C04638
:103C4000413D0008E3400008573D0008E3400008FC
:103C5000A13E0008E3400008E3400008E3400008FC
:103C6000A93E0008E3400008E3400008E3400008E4
:103C70006D3D0008E3400008833D0008E340000874
:103C8000993D0008E3400008AF3D0008E34000080C
:103C900005400008E3400008E3400008E340000856
:103CA000BD3E0008E3400008E3400008E340000890
:103CB000C53D0008E3400008DB3D0008E340000884
:103CC000493E0008E34000085F3E0008E34000086A
:103CD000F13F0008E3400008E3400008E34000082B
:103CE000F53E0008E3400008FB3E0008E340000802
:103CF000753E0008E34000088B3E0008E3400008E2
:103D0000F13D0008E3400008073E0008E3400008DA
:103D1000013F0008E3400008E3400008E3400008DA
:103D2000E93E0008E3400008EF3E0008E3400008D9
:103D30001D3E0008E3400008333E0008020000205A
:103D4000F4481590FCF784FC15980068E74959225F
:103D500092008850C6E1EF481490FCF779FC149863
:103D60000068E249592292008850BBE1E94813906B
:103D7000FCF748FC13980068DC49592292008850EF
:103D8000B0E1E4481290FCF73DFC12980068D74976
:103D9000592292008850A5E1DD481190FCF758FCAB
:103DA00011980068D1492D22D20088509AE1D84854
:103DB0001090FCF74DFC10980068CC492D22D200E1
:103DC00088508FE1D2480F90FCF71CFC0F980068D8
:103DD000C6492D22D200885084E1CD480E90FCF7D0
:103DE00011FC0E980068C1492D22D200885079E15B
:103DF000C6480D90FCF72CFC0D980068BB495B226F
:103E0000920088506EE1C1480C90FCF721FC0C98A0
:103E10000068B6495B229200885063E1BB480B9072
:103E2000FCF7F0FB0B980068B0495B2292008850C9
:103E300058E1B6480A90FCF7E5FB0A980068AB49E0
:103E40005B22920088504DE1AF480990FCF700FCDE
:103E500009980068A54917221201885042E1AA4832
:103E60000890FCF7F5FB08980068A049172212019A
:103E7000885037E1A4480790FCF7C4FB0798006816
:103E80009A491722120188502CE19F480690FCF7AE
:103E9000B9FB06980068954917221201885021E164
:103EA0009249012008701DE19049002008705D20B2
:103EB000800008582F22D200885013E191480590C5
:103EC000FCF7DCFB05980068884948700120087001
:103ED0008A49C87BFB221040C8738648FCF7E4FB84
:103EE000834900200870FDE003F0FEF9FAE003F0DA
:103EF000FBF9F7E003F06EF9F4E003F06BF9F1E0A1
:103F00007A48012101704078022870D1FFE7794892
:103F10000490FCF7B3FB04980068002805D1FFE784
:103F20000120002102F014FEDCE072480368D90F82
:103F300059180122D2430C4614401B1B4910CB18C0
:103F40002C215943694BC918283919910068C10FB0
:103F500041181140401A012823D1FFE7674A107821
:103F6000FD2108401070517C0220014351746049CA
:103F7000087019982821405CC00700280BD0FFE783
:103F800019995F480CC90CC01CC91CC00420002131
:103F900002F0DEFD04E00320002102F0D9FDFFE77E
:103FA00024E05649487CFD221040487408780222DB
:103FB000104308704E490320087019982821405C6E
:103FC000C00700280CD0FFE7199914314C480CC9E0
:103FD0000CC01CC91CC00420002102F0B9FD04E083
:103FE0000320002102F0B4FDFFE7FFE7FFE779E0DF
:103FF0003E484078012804D1FFE73D490120087080
:10400000FFE76FE03948407800280BD1FFE73A48D6
:104010000390FCF733FB0398006834495D2292005B
:1040200088505DE031484078022858D1FFE7304899
:1040300000780290032850D80298810001A04058CF
:104040008746C046554000085740000859400008C0
:104050009940000842E041E026480168C80F08186E
:10406000012302469A43891A401041182C204843E4
:104070001E49401828381890189801F04DF81899E2
:104080002822002001908854189801F057F80199CF
:10409000032002F05DFD21E016480168C80F0818F2
:1040A000012302469A43891A401041182C204843A4
:1040B0000E49401828381790179801F02DF81799D5
:1040C00028220020009088541798143001F036F808
:1040D0000099032002F03CFD00E0FFE7FFE7FFE767
:1040E00000E0FFE7FFE71AB010BDC046E000002087
:1040F0006C080020B0000020C00000200C08002048
:104100009C0500209000002060000020A0000020FE
:10411000800000207000002080B58AB009900891CE
:10412000079206930020059004900390029001905E
:104130000090FFE70098099988420BDAFFE707989B
:104140000099C900401802F07BFFFFE70098401C6F
:104150000090EFE700200090FFE700980899884260
:104160000BDAFFE706980099C900401802F068FFD3
:10417000FFE70098401C0090EFE70020029001212B
:1041800003910090FFE700980999884212DAFFE74F
:1041900007980099C90040188088019007980099F5
:1041A000C900405801A9FCF7E3FDFFE70098401C57
:1041B0000090E8E701200290002003900490009016
:1041C000FFE700980899884212DAFFE706980099FD
:1041D000C90040188088019006980099C90040588D
:1041E00001A9FCF7C5FDFFE70098401C0090E8E737
:1041F0000AB080BD10B58AB0089007910692059369
:104200000898042804D8FFE70798052804D3FFE797
:1042100009A90020087060E00898324908600798F2
:104220003149086000200490FFE70498089988420B
:104230000FDAFFE70498C4002D4B1919069A1019DC
:1042400012591A5140684860FFE70498401C0490D6
:10425000EBE700200390FFE70398079988420FDA05
:10426000FFE70398C400214B1919059A1019125938
:104270001A5140684860FFE70398401C0390EBE741
:10428000FB48029000200190FFE701980F281AD800
:10429000FFE70299019802010120885402980199D0
:1042A00009014118002048600299019A12018918F9
:1042B00088600299019A120189180873FFE7019832
:1042C000401C0190E1E708980799069A059BFFF7C3
:1042D00023FF09A901200870FFE709A800780AB0A8
:1042E00010BDC04604000020080000206C0500201E
:1042F0004804002081B0009000980068006900998F
:10430000898808404142484101B0704782B001901D
:10431000684601700078002805D1FFE70199888878
:104320000968886104E00199888809688862FFE764
:1043300002B07047B0B586B005A900200870FFE74D
:1043400005A80078C6490968884228DAFFE7C64808
:10435000019000788101C6480290411805A8039099
:10436000027812018918097B490004910078C10084
:10437000C1484018FFF7BEFF019B0299039A04460B
:10438000049820431B789B01C918127812018918E0
:104390000873FFE70598401C05A90870D0E705A938
:1043A00000200870FFE705A80078AD490968884239
:1043B00000DB26E1AC4800788101AD48401805A932
:1043C000097809014018007B0007002854D1FFE755
:1043D000A54A10788101A648431805A90C78240144
:1043E0001C19002363601278920180180978090172
:1043F00040188068002824D1FFE79B48007881019D
:104400009B48411805A8007802010120885499486A
:104410000078C007002813D0FFE705A8027891486C
:104420000068504390490978401880008B019049FA
:10443000C9181201895C401840B200F03FF9FFE74B
:10444000FFE78948007881018948401805A9097863
:1044500009014018806809280DDCFFE782480078D0
:1044600081018348401805A9097809014118886825
:10447000401C8860FFE7BEE07B48007881017C48F3
:10448000401805A9097809014018007B0F21084050
:104490000F2800D0AEE074480078810174484018BD
:1044A00005A90978090140188068092827DCFFE779
:1044B0006D48007881016E48401805A90978090106
:1044C0004018806800281AD0FFE7674B18788001F1
:1044D00067490C1805A80278150103226255027875
:1044E0006048006850431B78C01880009B01C918C1
:1044F0001201895C401840B200F0E0F827E05A4809
:10450000007881015A48401805A909780901401826
:10451000406800281AD1FFE7534B187880015449AE
:104520000C1805A8027815010022625502784D4842
:10453000006850431B78C01880009B01C918120105
:10454000895C401840B200F0B9F8FFE7FFE7464A3F
:10455000107881014648431805A90C7824011C19DC
:104560000023A3601278920180180978090140188D
:104570004068F9280DDCFFE73B48007881013C48A2
:10458000401805A90978090141184868401C48608D
:104590002FE03548007881013548401805A9097891
:1045A000090140184068FA2822D1FFE72E4B1878FD
:1045B00080012F490A1805A8047824011419D22271
:1045C00062601A7892018C180278150102226255F5
:1045D00002782448006850431B78C01880009B0173
:1045E000C9181201895C401840B200F067F8FFE773
:1045F000FFE7FFE7FFE7FFE70598401C05A9087004
:10460000D1E618480068012828DBFFE7164908783A
:10461000401C08700878134A1268521E1040087037
:1046200005A900200870FFE705A800780D49096872
:10463000884212DAFFE705A80178CA000B48801803
:10464000094A1278891A4A425141FFF75FFEFFE793
:104650000598401C05A90870E6E7FFE706B0B0BD65
:104660000400002008000020680500206C050020E0
:1046700068040020980500204804002081B06946A5
:10468000FF2008701749887AC97A884211D0FFE75D
:10469000144A907A105C69460870907A411CC8B23E
:1046A00091720A2804D3FFE70E4900208872FFE7C1
:1046B000FFE76846007840B201B0704781B06946B4
:1046C00008700098074AD17A5054D07A411CC8B279
:1046D000D1720A2804D3FFE702490020C872FFE71D
:1046E00001B070474808002080B58AB0FFE70F4846
:1046F000026802210A430260006808400990099894
:10470000FFE70120039041030291049105900020EE
:10471000069007900648019004A9FCF729FB019830
:104720000299039AFCF7A5FC0AB080BD3410024040
:104730000004005002480068072109030840704740
:104740000810024081B0009000980278B94900201A
:104750008854009A5278885401B0704710B586B0DA
:10476000024605A8027004910078002816D4FFE7DD
:1047700005A80078092811DCFFE705A802783F4961
:104780008A5CF7210A4004990B78AA49CA54027836
:104790003C48805C049A527888541DE005A801903A
:1047A00000780A210291FBF7C9FD01980B46029996
:1047B000324AD25C08231A43049B1C789D4B039316
:1047C0001A550078FBF7BAFD0A4603992D48805C1C
:1047D000049A52788854FFE706B010BD81B000906B
:1047E00000984000264A135C92490020C854009B60
:1047F0005B00D2185278885401B0704770B582B00F
:1048000001906846017001980A2801D3FFE733E060
:104810006846007800281CD4FFE76846007809281D
:1048200017DCFFE76846027814498B5C0199490060
:10483000134A545C7F490D5D082635402B430B55C8
:1048400003781048C05C019B5B00D21852788854F2
:1048500012E00A48827A019841000948435C754990
:10486000CC5C08252C402243CA54019A520080187F
:10487000427800208854FFE702B070BDEC75000854
:104880007E750008F775000880B582B0014601A862
:10489000017000780249FFF761FF02B080BDC04699
:1048A0007475000880B586B0024605A801900270B4
:1048B00004AA0292117000780A210391FBF73EFDD1
:1048C00001460020FFF79AFF019803990078FBF753
:1048D00035FD0120FFF792FF029803990078FBF75E
:1048E0002DFD01460220FFF789FF02980399007809
:1048F000FBF724FD0320FFF781FF06B080BD80B5E4
:1049000082B000202D210191FFF778FF019901204D
:10491000FFF774FF01990220FFF770FF0199032050
:10492000FFF76CFF02B080BD80B582B0014601A8E0
:10493000017000780249FFF711FF02B080BDC04648
:104940007675000880B582B0014601A80170007834
:104950000249FFF703FF02B080BDC046787500082A
:1049600080B582B017480190FFF7ECFE0198801CDB
:10497000FFF7E8FE02B080BD80B584B0014603A811
:1049800001700078C7281ADCFFE703A802900078BE
:104990000A210091FBF7D2FC08460A490191891CC3
:1049A000FFF7DCFE009902980078FBF7C7FC01993D
:1049B0000246029802700078FFF7D0FEFFE704B0CD
:1049C00080BDC0467A75000880B582B0014601A856
:1049D000017000780249FFF7C1FE02B080BDC046F9
:1049E0009275000880B50420FFF7F8FE80BD80B501
:1049F00082B0014601A8017001780420FFF7FEFE95
:104A000002B080BD80B582B000200190FFE7019820
:104A10001F280CDCFFE701980649095CC0B2A02200
:104A200002F076FAFFE70198401C0190EFE702B030
:104A300080BDC0460C08002080B5094809490160C6
:104A40000021017141714161816101210162FCF725
:104A50005DF8002803D0FFE7FBF73DFEFFE780BDD0
:104A6000B00500200030024010B590B000200F903B
:104A70000E900D900C900B90FFE73B4802680421CC
:104A80000A430260006808400A900A98FFE7FFE7BF
:104A90003548026820210A430260006808400990F6
:104AA0000998FFE7FFE73048026801210A430260E6
:104AB0000068084008900898FFE7FFE72A48026866
:104AC00002210A4302600068084007900798FFE748
:104AD000FFE72548026808210A4302600068084091
:104AE00006900698FFE721480490102102910022C9
:104AF0000392FCF7BEFA03981D490B910321019123
:104B00000C910D901B480BA90591FCF731F9019A06
:104B100003980599184B0B930C920D9005200007F4
:104B2000FCF726F9019B039A04980599134C0B9402
:104B30000C930D92FCF71CF9019A039805990F2329
:104B40000B930C920D900E48FCF712F9029B039AFE
:104B5000049805990B9301230C930D920E92FCF788
:104B600007F910B010BDC0463410024000040050D8
:104B7000C0E0000000080050F39C0000CFFF0000E0
:104B8000000C005080B594B0002002901390129059
:104B9000119010900F900E9004A82821FBF7F1FAC5
:104BA00002992B4803902B4A026081607F22C260E9
:104BB000FF22026141618161C161012292070262AB
:104BC0004162FDF711FA002803D0FFE7FBF783FDF0
:104BD000FFE70FA90C20087000224A708A7010921B
:104BE000129213921A48FDF77DFC002803D0FFE7CC
:104BF000FBF771FDFFE70EA901200870487088706F
:104C00000022CA701248FDF7D5FB002803D0FFE749
:104C1000FBF761FDFFE704A9002201920A704A70C8
:104C20008A7005920792089209920A920B922023A9
:104C30000120C85400020D900548FDF77DFA0028B8
:104C400003D0FFE7FBF747FDFFE714B080BDC04688
:104C5000D40500200028004080B588B000210091D4
:104C600007910691059104910391029101911648D3
:104C7000164A0260092242608160154AC2600161E1
:104C80008161FDF77DFD002803D0FFE7FBF723FDE1
:104C9000FFE70D48FEF7DBFB002803D0FFE7FBF73B
:104CA0001AFDFFE760200190002202920392059214
:104CB000054801A9FEF7D6FA002803D0FFE7FBF765
:104CC0000AFDFFE708B080BD4C0600200020004030
:104CD000FFF9000080B582B00B4801900B490160DC
:104CE0003F21416000218160094AC2600161416148
:104CF0008161FDF745FD002803D0FFE7FBF7EBFCE2
:104D0000FFE702B080BDC046980600200044014085
:104D10000F27000080B582B00B4801900B4901605D
:104D20003F21416000218160094AC2600161416107
:104D30008161FDF725FD002803D0FFE7FBF7CBFCE1
:104D4000FFE702B080BDC046E406002000480140F5
:104D5000E703000080B58EB0002101910D910C9108
:104D60000B910A910991089107910691059104917F
:104D700003912B4802902B4A02609F22426081607F
:104D8000294AC260016141618161FDF7F9FC002897
:104D900003D0FFE7FBF79FFCFFE7012000030A9029
:104DA0001F480AA9FDF758FE002803D0FFE7FBF7CC
:104DB00092FCFFE71A48FDF79FFF002803D0FFE7AA
:104DC000FBF789FCFFE70020079008900990144842
:104DD00007A9FDF76BFC002803D0FFE7FBF77BFC7E
:104DE000FFE7002203920120049005920420069020
:104DF0000B4803A9FDF7F2FE002803D0FFE7FBF7FD
:104E00006AFCFFE7064803A90422FDF7E7FE002835
:104E100003D0FFE7FBF75FFCFFE70EB080BDC046A5
:104E200000060020002C0140FFFF000080B590B07C
:104E3000002101910F910E910D910C910B910A910E
:104E400009910891079106910591049103910291AE
:104E50002B482C4A02604160816087229200C26028
:104E600001618161FDF78CFC002803D0FFE7FBF7AF
:104E700032FCFFE7012000030C9021480CA9FDF74C
:104E8000EBFD002803D0FFE7FBF725FCFFE71C48FC
:104E9000FEF7DDFA002803D0FFE7FBF71CFCFFE775
:104EA00017480821FEF714F9002803D0FFE7FBF7A5
:104EB00012FCFFE7002009900B90114809A9FDF7AB
:104EC000F5FB002803D0FFE7FBF705FCFFE76020B8
:104ED00002900120039002200490002006900848D0
:104EE00002A90422FEF7BEF9002803D0FFE7FBF772
:104EF000F2FBFFE70248FEF7BBF810B080BDC046EA
:104F0000300700200004004080B582B00E480090B9
:104F10000E490160E1214902416000210191816057
:104F2000C16001610C2242618161C1610162416223
:104F30008162FEF7FFFC002803D0FFE7FBF7CBFB05
:104F4000FFE702B080BDC0467C070020004400405F
:104F5000FFE7FEE780B586B0FFE78B4802680221D5
:104F60000A4302600068084000900098FFE70120B3
:104F70008003019000200290022103910490E548F3
:104F800001A9FBF7F5FE06B080BDC046704782B0B0
:104F900001A90870087802090A205043009000987F
:104FA00009780F2211404018C0B202B0704783B098
:104FB00002A9087000200190029869460870FFE776
:104FC000684600780A2808D3FFE70198401C019042
:104FD00000980A3869460870F2E701980007000E49
:104FE00069460978084303B07047000080B584B073
:104FF000039001A90020087003980068C06840066B
:10500000002830D4FFE703980168C8688022104365
:10501000C860FCF745F80290FFE703980068C16894
:10502000002049060029009007D4FFE701A8007876
:10503000C01E411E88410090FFE70098C00700286D
:1050400010D0FFE7FCF72CF80299401A0849884273
:1050500007D3FFE701A90320087003992922885488
:10506000FFE7DAE7FFE701A8007804B080BDC0469B
:10507000E903000080B582B0019069460020087005
:105080001A49086880229043086019480068800621
:1050900000280ED4FFE70198FDF7D4FA002807D0C6
:1050A000FFE7019929220320885469460870FFE729
:1050B00017E00F4908682022904308600198FDF727
:1050C000C1FA002807D0FFE701992922032088545C
:1050D00069460870FFE70649086820221043086007
:1050E000FFE76846007802B080BDC0460C2800404B
:1050F0001828004081B0009000980078172804D14B
:10510000FFE700990020087004E000990878401C2F
:105110000870FFE701B0704781B0009000984078B8
:105120003B2804D1FFE700990020487004E0009973
:105130004878401C4870FFE701B0704781B000908C
:10514000009900200870009948700099887001B09B
:105150007047000080B586B0FFE70B480268022167
:105160000A4302600068084000900098FFE70820AA
:10517000019001200290002003900490654801A94D
:10518000FBF7F6FD06B080BD34100240704780B5D5
:1051900082B00190019800680121C907884205D0BA
:1051A000FFE701990868401E0860FFE70199086859
:1051B0008968884210DCFFE70198006900280AD05E
:1051C000FFE70198007DC007002804D0FFE70198A1
:1051D00000698047FFE7FFE702B080BD81B0009023
:1051E00000990020087501B07047000080B582B0BA
:1051F0000190019800681049884205D0FFE70199A5
:105200000868401C0860FFE70199086849688842FF
:1052100010DBFFE70198C06800280AD0FFE701987B
:10522000007DC007002804D0FFE70198C0688047D0
:10523000FFE7FFE702B080BDFFFFFF7F80B584B0CE
:1052400002900298401E000E002803D0FFE70120C4
:10525000039011E00298401E094908600020019067
:10526000C043032101F092FE019806490860064AF6
:10527000072111600390FFE7039804B080BDC0468A
:1052800014E000E018E000E010E000E080B5FBF77B
:105290000BFF80BD80B582B0EB48007800281BD1A1
:1052A000FFE7E9484078002815D1FFE7E6482F21BD
:1052B000C9004258521E4250405800280AD1FFE708
:1052C000E1495D20800008582F22D200885001203B
:1052D0000870FFE7FFE700E0FFE701208103DF48F8
:1052E000FBF7AEFE012804D1FFE70B48FBF7DCF922
:1052F0000EE009480190FBF7ABF90198FBF798F92C
:10530000002804D0FFE7D04901200870FFE7FFE73D
:1053100002B080BD000400505000002080B5CA4893
:10532000007818490978884216D0FFE7C648017806
:10533000144A11700078002808D1FFE71348FBF7E2
:10534000B3F911480021FEF7DBF804E00E48002114
:10535000FEF706FAFFE7FFE7BB48007800280FD109
:10536000FFE70A48FBF7A7F9002807D0FFE707483F
:10537000FBF76EF906490748086000E0FFE7FFE722
:1053800080BDC0466C0200204C06002010000020AA
:10539000040400200000964380B58AB0AA48007833
:1053A000002805D1FFE70520002101F0D1FB04E032
:1053B0000620002101F0CCFBFFE7A34840780990CC
:1053C000002808D0FFE70998012829D0FFE70998AD
:1053D000022836D046E00A20002101F0B9FB9A48A5
:1053E000007800280BD1FFE797482F21C900405CC7
:1053F000FFF7C2FA0F20002101F0AAFB0AE0924851
:105400005D218900405CFFF7B7FA1020002101F010
:105410009FFBFFE78D49C87B08221043C87322E039
:1054200009200021089101F093FBFFF799FA0899F0
:10543000102001F08DFB8549C87BF7221040C8730E
:1054400011E008200021079101F082FBFFF788FAA4
:105450000799102001F07CFB7C49C87BF7221040A3
:10546000C87300E0FFE778484078022861D1FFE781
:1054700077480068002811D1FFE71A200021069123
:1054800001F066FBFF20FFF7B2FA0699162001F043
:105490005FFB0699132001F05BFB40E06C4800685D
:1054A000C10F411801229143401A01281BD1FFE787
:1054B00067480168C80F0818FE2302461A40891A77
:1054C00040084018C0B2FFF792FA1620002105915B
:1054D00001F03EFB0599182001F03AFB05991220D6
:1054E00001F036FB1AE05A480168C80F0818FE237D
:1054F00002461A40891A40084018C0B2FFF777FAEE
:1055000013200021049101F023FB0499182001F0DD
:105510001FFB0499152001F01BFBFFE7FFE74A483A
:105520000078002804D1FFE74948FBF7BDF8FFE702
:105530000FE013200021039101F00AFB03991920C9
:1055400001F006FB0399162001F002FBFFF74AFA6F
:10555000FFE73D4801905921890041180B2001F0D7
:10556000F7FA01982D21C90041180C2001F0F0FA3A
:1055700001985B21890041180D2001F0E9FA01989A
:105580001721090141180E2001F0E2FA3148007894
:105590000290032829D80298810001A0405887462C
:1055A000B1550008BB550008E7550008E95500084B
:1055B0000120002101F0CCFA18E02748FBF77BF826
:1055C000002808D0FFE72448FBF742F8022000211A
:1055D00001F0BEFA06E02048FBF766F81D490020FE
:1055E0000870FFE702E001E000E0FFE716480078FE
:1055F00000280AD1FFE7174800210170012001F0BF
:10560000A7FA1348FBF750F800E0FFE701208103F9
:105610001248FBF715FD01280AD1FFE70B49487C2A
:105620000422104348741E20002101F091FA09E081
:105630000649487CFB22104048742020002101F0DC
:1056400087FAFFE70AB080BDE00000200C080020C8
:10565000B00000206C080020D000002000040050A2
:1056600080B59AB00DA802903421FAF78AFD002087
:1056700000900C900B900A9009900890079006906B
:10568000059004900390012001904002FBF7AAFDD1
:10569000009A019902980A230D930B02109311921C
:1056A0004023129313910223149315931692082208
:1056B00017924A04189249071991FCF7B9F8002883
:1056C00003D0FFE7FBF707F8FFE707200990022167
:1056D0000A9100200B900C9009A8FBF7D5FE00283A
:1056E00003D0FFE7FAF7F7FFFFE70120410403913A
:1056F0004002089003A8FBF7B3FD002803D0FFE7A2
:10570000FAF7E9FFFFE71AB080BD00000120C006EC
:10571000014908607047C04608ED00E080B51748B1
:10572000006800680069022108404008002824D071
:10573000FFE7124800680068C0680221084040087E
:10574000002819D0FFE70D480068006880698007CD
:1057500000280AD1FFE70A480268116801231943AB
:1057600011600421FDF702FDFFE7044800680168AD
:105770000220C0430861FFE7FFE780BD240000204E
:105780003007002010B582B01C480068006800692E
:10579000C007002830D0FFE7184800680068C068DC
:1057A000C007002827D0FFE71448006801680120DF
:1057B000C04308615648FFF7EAFC11480078C0076B
:1057C000002817D0FFE70F4801680191019C1022C3
:1057D0002146114009041346A343CB180A490B6024
:1057E00000680190019B1846104000049A438018FD
:1057F0000860FFE7FFE7FFE702B010BD28000020C8
:1058000074080020140400501804005080B50D489E
:10581000006800680069C007002812D0FFE7094847
:1058200000680068C068C007002809D0FFE7054885
:10583000006801680120C043086101F0FDFDFFE739
:10584000FFE780BD2C00002080B582B026480068AC
:10585000006902210840400800282AD0FFE7234AB7
:105860001168234801600021116001682148FAF79E
:1058700065FDFAF743FD20490860204800780028BC
:1058800011D1FFE71C4801681D4801904160FEF7F7
:1058900021F90199886B496AFAF7D7FCFAF735FDC7
:1058A00018490860FFE7104801680220C0430861FA
:1058B000FFE70D48006800690421084080080028BF
:1058C00010D0FFE70F4800680F4908600F496420B7
:1058D00008600F48FFF78AFC034801680420C043B2
:1058E0000861FFE702B080BD00060020242C0140C3
:1058F0008C050020801A0600440400206C02002061
:1059000004040020300000202420004024440140F2
:105910003800002083B00290019102980068009046
:105920000298D649884205D0FFE702982E4988425E
:105930000AD1FFE7009870218843009001984168E0
:10594000009808430090FFE70298CC49884214D0A1
:10595000FFE70298244988420FD0FFE702982349C5
:1059600088420AD0FFE70298C549884205D0FFE780
:105970000298C44988420BD1FFE70098032109022D
:10598000884300900198C168009808430090FFE7A1
:105990000098802188430199496908430090009844
:1059A00002990860019880680299C86201980068AD
:1059B000029988620298F74988420AD0FFE7029864
:1059C000F549884205D0FFE70298F449884205D19D
:1059D000FFE70198006902990863FFE70299012037
:1059E000486103B07047C0460004004000200040FA
:1059F00084B0039002910192029A1F210A40012073
:105A000090400090009B039A106A98431062019A9C
:105A10000298084082400399086A1043086204B063
:105A2000704785B0049003910292019304988068B6
:105A300000900098FF210902884300900399029882
:105A4000019A120210430143009808430090009805
:105A50000499886005B0704783B002900191029864
:105A600080680090009807490840009001980099CC
:105A7000084307210843009000980299886003B00A
:105A80007047C0468FFFCFFF85B004900391049903
:105A9000086A0122904308620498006A0190049801
:105AA000406800900498806902900298B8490840C4
:105AB000029002980321884302900398016802989B
:105AC000084302900198022188430190039881685D
:105AD0000198084301900498DD4988420AD0FFE705
