:020000040800F2
:10000000A0070020D5000008293A0008192C000894
:1000100000000000000000000000000000000000E0
:10002000000000000000000000000000953B0008F8
:1000300000000000000000002D3A0008E93B000825
:10004000E700000800000000E7000008E7000008E3
:10005000E7000008E7000008E7000008E7000008E4
:1000600000000000E7000008E7000008E7000008C3
:10007000E7000008E7000008193D00080000000044
:10008000E70000080000000000000000AD3C000890
:1000900000000000E7000008153D0008E700000828
:1000A000E7000008E7000008E7000008E700000894
:1000B000E700000800000000000000000000000051
:1000C0000348854600F058F900480047A151000850
:1000D000A00700200448804704480047FEE7FEE7E9
:1000E000FEE7FEE7FEE7FEE79D3C0008C1000008D2
:1000F000D2B201E00270401C491EFBD270470022C0
:10010000F6E710B513460A4604461946FFF7F0FF16
:10011000204610BDF8B502464A40D40F42004B00BD
:1001200052085B089A4202D20246084611464A002B
:1001300023D0C30D4A00DDB2120EAD1A202D35DAE0
:1001400049020126490AF6058A19002C00D05242BC
:1001500020214F1B1146B9402A411018C20D9A4266
:1001600021D0002C17D0012D08DCDA05801AD20F1F
:100170008019D207DBB200F0C6F8F8BDDA05801AA4
:10018000012340001B06C01880185A428018CA0F6D
:100190001043490007E04908C2071143DA05801AF5
:1001A00080194008801800F0A6F8F8BD610001220F
:1001B000511A001BF7E70122D2075140AAE701229A
:1001C000D2075040A6E7024670B54A40D30FDB077E
:1001D00040002DD04A002AD0010E140E0002120257
:1001E0000919400A520A8418E50104465443000ADA
:1001F000120A2E045043A4194219200CC543AA1810
:10020000120C0125AD03521C521912047F3924042B
:1002100000D0521C104301D44000491EC2B20C064B
:10022000C0092018401C4008802A02D003E00020AA
:1002300070BD40084000002900DA0020184370BD5E
:100240000122D207002800DB101A002900DB511A16
:10025000814201D201207047002070470122D2075D
:10026000002800DB101A002900DB511A814201D955
:10027000012070470020704710B5002296231146D8
:1002800000F041F810BDC20F410040020123400AB6
:10029000DB05D207090EC0187F2901DA002070475C
:1002A000962903DC9623591AC84001E09639884004
:1002B000002AF4D04042704770B50446002903D0AC
:1002C00000202022012310E0002801D00020C0439C
:1002D000C046C0460DE02546D5408D4205D30D46AB
:1002E0009540641B1D46954040191546521E002D31
:1002F000F1DC214670BD002904DA401C490001D11F
:1003000040084000704770B40024050C05D110244B
:10031000000402D1002921D01124050E01D10002D0
:100320000834050F01D10001241D850F01D1800083
:10033000A41C002801DB4000641C002908D02025F3
:100340002E1B0D46F540A14000D001212943084352
:1003500001061B1B000ADB1D02D5002070BC704784
:10036000DB05181880180029F8DA401C4900F5D17F
:1003700070BC400840007047064C0125064E05E061
:10038000E36807CC2B430C3C98471034B442F7D3B6
:10039000FFF79AFE0C5400082C54000881B0EFF3CC
:1003A000108072B60090FFE7FEE7000080B584B0D1
:1003B000039000F099F90290039801900198401C75
:1003C000002806D0FFE7FC4801780198401801900A
:1003D000FFE7FFE700F088F90299401A0199884287
:1003E00001D2FFE7F6E704B080BDC0468AB00990AD
:1003F000089100200790FFE7089800680799C84017
:10040000002800D148E108980068079A012191402E
:10041000084006900698002800D139E10898406805
:1004200001280FD0FFE70898406802280AD0FFE7AC
:1004300008984068112805D0FFE7089840681228FE
:100440002CD1FFE7099880680590079840000321A8
:1004500081400598884305900898C1680798400036
:100460008140059808430590059809998860099886
:1004700040680590079801218140059888430590C0
:1004800008984068102108400109079881400598A4
:1004900008430590059809994860FFE70998C068E6
:1004A00005900798400003218140059888430590F6
:1004B0000898816807984000814005980843059096
:1004C00005980999C86008984068022805D0FFE798
:1004D00008984068122820D1FFE709980799C908B1
:1004E00089004018006A059007984007C00E0F2148
:1004F000814005988843059008980169079840074E
:10050000C00E814005980843059005980999079AFF
:10051000D208920089180862FFE7099800680590E0
:1005200007984100032002468A40059991430591AE
:1005300008994968014007984000814005980843A0
:1005400005900598099908600898C079C0060028A8
:1005500000D49CE0079803218843504940580590F7
:1005600007988007C00E0F218140059888430590A9
:10057000099805210907884203D1FFE7002004906C
:1005800022E009984649884203D1FFE70120039001
:1005900017E009984349884203D1FFE702200290FF
:1005A0000CE00999404A03200523009391420190F1
:1005B00001D00098019001980290FFE70298039003
:1005C000FFE703980490FFE7049907988007C00E9F
:1005D00081400598084305900598079903229143A7
:1005E0002E4A88503148006805900699059888433E
:1005F000059008988079C007002805D0FFE7069984
:10060000059808430590FFE70598284908602848A1
:1006100000680590069905988843059008988079A8
:100620008007002805D5FFE706990598084305903F
:10063000FFE705981E4908601E4800680590069966
:1006400005988843059008988079C006002805D54C
:10065000FFE70699059808430590FFE705981549B7
:10066000086015480068059006990598884305902C
:10067000089880798006002805D5FFE70699059837
:1006800008430590FFE705980B490860FFE7FFE77F
:100690000798401C0790AFE60AB070476018024008
:1006A0000004005000080050000C00508018024068
:1006B00084180240001802400418024083B00290DF
:1006C00001A80180684602700078002805D0FFE785
:1006D00001A800880299886104E001A800880299B5
:1006E0008862FFE703B07047054800687047C0465E
:1006F0003148027802490868801808607047C0468F
:100700009C03002080B582B001A9002008700B4A2C
:10071000116801231B021943116000F011F8002831
:1007200004D0FFE701A90120087002E000F048F8BA
:10073000FFE701A8007802B080BDC046002002405B
:1007400080B584B0039002A9002008701A48007890
:10075000002829D0FFE75148006801901648017829
:100760007D20C000FFF7A8FD01460198FFF7A4FD1A
:1007700001F070F9002812D1FFE70398032809D887
:10078000FFE703990022D04300F041F803980B499A
:10079000086003E002A901200870FFE703E002A956
:1007A00001200870FFE703E002A901200870FFE7BD
:1007B00002A8007804B080BD1400002018000020BA
:1007C00082B0FFE70B48026801210A43026000681B
:1007D000084001900198FFE7FFE7B948026801214E
:1007E00009070A4302600068084000900098FFE78C
:1007F00002B070474010024080B582B0014601A8A7
:100800000170007840B204F0F9FB02B080BD80B501
:1008100084B0034603A8037002910192007840B2AD
:10082000029904F001FC04B080BD000080B584B0E2
:100830000290A4490868032252029043029A10438E
:10084000086002980121490288421ED1FFE713483F
:100850000168062048431249FFF72EFD401C019015
:10086000FFE710480068400500280DD5FFE7019814
:10087000002804D0FFE70198401E019003E003A97F
:100880000320087005E0ECE7FFE703A900200870EB
:10089000FFE703A8007804B080BDC0460800002030
:1008A00040420F001470004080B588B0079004A942
:1008B0000020087003A90870079880788007002836
:1008C00000D49DE002A9002008707D480068C000A7
:1008D000002810D4FFE7FFE77948026801210907E3
:1008E0000A4302600068084001900198FFE702A9EE
:1008F00001200870FFE773490868012212021043C3
:100900000860FFF7F1FE0590FFE76E480068C0053C
:1009100000280CD4FFE7FFF7E7FE0599401A0328EB
:1009200004D3FFE704A90320087000E0EDE704A862
:100930000078002853D1FFE7F54800680321090239
:10094000084006900698002817D0FFE706980799F8
:100950004969884211D0FFE7ED4908680322120275
:10096000904306900868012212041043086008684A
:100970009043086006980860FFE706A80078C00763
:10098000002818D0FFE7FFF7AFFE0590FFE7E0482B
:100990000068800700280DD4FFE7FFF7A5FE059942
:1009A000401ADF49884204D3FFE704A903200870F6
:1009B00000E0ECE7FFE704A8007800280AD1FFE791
:1009C000D3490868032212029043079A52691043E0
:1009D000086003E0049803A90870FFE703E00498A7
:1009E00003A90870FFE702A80078012807D1FFE7F4
:1009F000334908680122120790430860FFE7FFE7C8
:100A000007980078C007002809D0FFE72E4908683A
:100A100003229043079A526810430860FFE7079843
:100A20000078800600280AD5FFE7274908680322D6
:100A300012039043079A926810430860FFE70798F3
:100A400040784006002818D5FFE71F4908680322B0
:100A500092079043079A126910430860079800694B
:100A600001218907884207D1FFE718490868012258
:100A7000120410430860FFE7FFE70798407800077B
:100A8000002818D5FFE71049086803229203904315
:100A9000079AD268104308600798C068012189034B
:100AA000884207D1FFE7F049086801221204104389
:100AB0000860FFE7FFE703A8007808B080BDC046E4
:100AC0003C10024000700040541002400C100240E4
:100AD00080B584B0029001910298002804D1FFE70C
:100AE00003A9012008700CE10198884909680722D0
:100AF0001140884221D9FFE78449086807229043C2
:100B0000019A10430860FFF7EFFD0090FFE77F4870
:100B1000006807210840019988420DD0FFE7FFF7E0
:100B2000E3FD0099401A7E49884204D3FFE703A9F8
:100B300003200870E5E0EAE7FFE702980078800705
:100B4000002817D5FFE7029800784007002807D54E
:100B5000FFE7C44908680722120310430860FFE753
:100B6000C04908680F2212029043029A926810430B
:100B70000860FFE702980078C007002872D0FFE7FE
:100B80000298406801280BD1FFE7BA48006880034B
:100B9000002804D4FFE703A901200870B1E03DE07C
:100BA0000298406802280BD1FFE7B2480068800134
:100BB000002804D4FFE703A901200870A1E02CE07D
:100BC0000298406800280BD1FFE7AA48006840055A
:100BD000002804D4FFE703A90120087091E01BE07E
:100BE0000298406803280BD1FFE74A480068800755
:100BF000002804D4FFE703A90120087081E00AE07F
:100C0000434800688007002804D4FFE703A90120B7
:100C1000087076E0FFE7FFE7FFE7FFE79149086824
:100C200007229043029A526810430860FFF75CFD68
:100C30000090FFE78B480068382108400299496816
:100C4000C90088420DD0FFE7FFF74EFD0099401A1A
:100C50003349884204D3FFE703A90320087050E01A
:100C6000E8E7FFE70198294909680722114088420F
:100C700021D2FFE72549086807229043019A1043D3
:100C80000860FFF731FD0090FFE72048006807216A
:100C90000840019988420DD0FFE7FFF725FD009934
:100CA000401A1F49884204D3FFE703A903200870B4
:100CB00027E0EAE7FFE702980078400700280AD516
:100CC000FFE768490868072212039043029AD26836
:100CD00010430860FFE700F03FF8624909680F22FF
:100CE000120211408A090C4989581F221140C8403C
:100CF0000E49086009480068FFF722FD03A9087043
:100D0000FFE703A8007804B080BDC0460020024081
:100D10005C100240601002401C53000818000020C4
:100D200089130000014800687047C0460800002091
:100D300080B582B0FFF7F6FF019002F0FBFA0146A2
:100D40000198090B8A00034989581F221140C840A5
:100D500002B080BD5C53000880B588B0414800688F
:100D60008006400F00280FD1FFE7424800680721A6
:100D7000C9020840C10A01208840039003993C48F9
:100D8000FFF79AFA029069E0364800683821084077
:100D9000082803D1FFE7354802905EE0314800683B
:100DA0003821084010283CD1FFE72F480168032272
:100DB000114006910068702108400009401C049011
:100DC00006980190022812D0FFE7019803280FD15E
:100DD000FFE704992548FFF76FFA014622480068AB
:100DE0007F2212021040000A484307900EE0FFE7FE
:100DF00004991F48FFF760FA01461B4800687F22EC
:100E000012021040000A48430790FFE716480068A6
:100E1000400F401C059007980599FFF74DFA029086
:100E20001AE01048006838210840202804D1FFE764
:100E30000120C00302900EE00A48006838210840F3
:100E4000182804D1FFE77D200002029002E0002074
:100E50000290FFE7FFE7FFE7FFE7FFE7029808B030
:100E600080BDC046081002400C10024000127A00FB
:100E70000024F4000010024010B588B006900698D7
:100E8000002804D1FFE707A9012008702EE3069887
:100E90000078C007002800D188E0FC4800683821AD
:100EA00008400490FA480068032108400390049821
:100EB000102804D1FFE70398032804D0FFE7049823
:100EC000082810D1FFE7F84800688003002809D5FA
:100ED000FFE706984068002804D1FFE707A9012032
:100EE000087003E361E0FFE7069840680121090408
:100EF000884207D1FFE7EC49086801221204104339
:100F000008601DE0069840680521090488420BD15D
:100F1000FFE7E54908680122930418430860086860
:100F20001204104308600AE0DF4908680122130434
:100F3000984308600868920490430860FFE7FFE761
:100F4000FFE706984068002817D0FFE7FFF7CCFBC3
:100F50000590FFE7D4480068800300280CD4FFE721
:100F6000FFF7C2FB0599401A652804D3FFE707A9DC
:100F700003200870BAE2EDE716E0FFF7B5FB059035
:100F8000FFE7C9480068800300280CD5FFE7FFF79A
:100F9000ABFB0599401A652804D3FFE707A9032096
:100FA0000870A3E2EDE7FFE7FFE7FFE706980078A8
:100FB0008007002800D4A3E0B44800683821084026
:100FC0000490B34800680321084003900498102857
:100FD00004D1FFE70398022804D0FFE70498002813
:100FE0003BD1FFE7B04800684005002809D5FFE77E
:100FF0000698C068002804D1FFE707A901200870FF
:1010000074E2AA4908687F2212029043069A526944
:101010001202104308600498002811D1FFE7A2488B
:1010200002680721C9028A43069B1B691A430260B2
:1010300000680840C10A9E48C8409E490860FFE712
:101040009D480068FFF77CFB002804D0FFE707A954
:10105000012008704AE2FFE751E00698C0680028C6
:101060002FD0FFE7904908680722D2029043069AE2
:1010700012691043086008680122120210430860D8
:10108000FFF732FB0590FFE787480068400500281E
:101090000CD4FFE7FFF728FB0599401A032804D377
:1010A000FFE707A90320087020E2EDE77F49086801
:1010B0007F2212029043069A52691202104308607E
:1010C0001CE0794908680122120290430860FFF78A
:1010D0000BFB0590FFE774480068400500280CD51D
:1010E000FFE7FFF701FB0599401A032804D3FFE748
:1010F00007A903200870F9E1EDE7FFE7FFE7FFE745
:10110000069800780007002856D5FFE7F9480068E0
:1011100038210840182810D1FFE7F94800688007F7
:10112000002809D5FFE706988069002804D1FFE769
:1011300007A901200870D9E13DE0069880690028E0
:101140001CD0FFE7EE490868012210430860FFF752
:10115000CBFA0590FFE7EA480068800700280CD426
:10116000FFE7FFF7C1FA0599401A032804D3FFE708
:1011700007A903200870B9E1EDE71BE0E049086822
:10118000012290430860FFF7AFFA0590FFE7DC48C3
:101190000068800700280CD5FFE7FFF7A5FA05993E
:1011A000401A032804D3FFE707A9032008709DE134
:1011B000EDE7FFE7FFE7FFE7069800784007002824
:1011C00000D4CAE002A900200870CA48006838218B
:1011D0000840202810D1FFE7CC480068800700288D
:1011E00009D5FFE706988068002804D1FFE707A922
:1011F000012008707AE1AFE0C2480068C000002812
:1012000010D4FFE7FFE7BF480268012109070A433E
:1012100002600068084001900198FFE702A90120E0
:101220000870FFE7B8480068C00500281DD4FFE734
:10123000B54908680122120210430860FFF754FA0A
:101240000590FFE7B0480068C00500280CD4FFE710
:10125000FFF74AFA0599401A032804D3FFE707A9C4
:101260000320087042E1EDE7FFE7FFE7069880689A
:10127000012806D1FFE7A54908680122104308604C
:1012800027E006988068052818D103E0081002407E
:101290000C1002409D490868042210430860086849
:1012A00001221043086013E00010024004100240C5
:1012B0000024F4000800002018000020934908686A
:1012C0000122904308600868042290430860FFE709
:1012D000FFE7FFE706988068002818D0FFE7FFF7D0
:1012E00003FA0590FFE789480068800700280DD4BD
:1012F000FFE7FFF7F9F90599401A8549884204D3B9
:10130000FFE707A903200870F0E0ECE717E0FFF71C
:10131000EBF90590FFE77D480068800700280DD5B0
:10132000FFE7FFF7E1F90599401A7949884204D3AC
:10133000FFE707A903200870D8E0ECE7FFE702A861
:101340000078012807D1FFE76E49086801221207DB
:1013500090430860FFE7FFE7FFE70698C0690028B1
:1013600000D1BFE0634800683821084010287AD0D7
:10137000FFE70698C06902284ED1FFE75F49086879
:101380000122120690430860FFF7AEF90590FFE7CF
:101390005A480068800100280CD5FFE7FFF7A4F940
:1013A0000599401A032804D3FFE707A90320087012
:1013B0009CE0EDE750490868574A1040069B1A6ABE
:1013C0005C6A22439C6A24022243DC6A22431B6B30
:1013D0001A4310430860494B186801221406204341
:1013E00018600868120710430860FFF77DF9059040
:1013F000FFE742480068800100280CD4FFE7FFF7B0
:1014000073F90599401A032804D3FFE707A90320BD
:1014100008706BE0EDE725E0384908680122120604
:1014200090430860344908680322904308600868C4
:10143000384A10400860FFF757F90590FFE72F483A
:101440000068800100280CD5FFE7FFF74DF90599EA
:10145000401A032804D3FFE707A90320087045E0DA
:10146000EDE7FFE73DE00698C069012804D1FFE7FA
:1014700007A90120087039E01F480068039003980D
:10148000032108400699096A884224D1FFE703989E
:10149000702108400699496A88421CD1FFE70398E9
:1014A0007F21090208400699896A0902884212D1FF
:1014B000FFE703981F21490408400699C96A88423A
:1014C00009D1FFE703980721490708400699096BEE
:1014D000884204D0FFE707A90120087006E0FFE773
:1014E000FFE7FFE707A900200870FFE707A80078DB
:1014F00008B010BD081002400C100240001002405D
:10150000601002403C100240007000405C1002403D
:1015100089130000FFFFFEEF8C80C11F80B584B0EF
:1015200003900291019203980068406818490840AE
:10153000009068464188029AD17000991F221202D9
:101540001140090A029A517000993F221140029AF3
:1015500091700088400B029908700198002813D1FF
:10156000FFE70298C07802F062FA0299C870029808
:10157000407802F05CFA029948700298807802F094
:1015800056FA02998870FFE7002004B080BDC0467B
:101590003FFFFF0080B584B0039002910192039851
:1015A00000688068029948600398006800691E49D5
:1015B0000840029988600398006800681B49084049
:1015C000009000983F2109040840000C029908701F
:1015D00000987F210A021040000A029A5070009879
:1015E0000840029988700098012189050840800D03
:1015F0000299C8700198002813D1FFE7029800787B
:1016000002F015FA029908700298407802F00FFA79
:10161000029948700298807802F009FA029988705D
:10162000FFE7002004B080BDFF7F00007F7F7F00C8
:1016300080B582B0019069460120087001980028A9
:1016400073D0FFE701982921405C00280CD1FFE707
:10165000019928220020885401991120C002486075
:10166000019800F069F8FFE70199292202208854C7
:10167000FFE701980168CA20486201980168532079
:101680004862FFE7019802F001FA014668460170DE
:101690000078002838D1FFE7019801688869254A59
:1016A000104088610198826841690A43C1690A4310
:1016B00001688869104388610199086909680861AF
:1016C0000198C1680A04016808691043086101981B
:1016D00002F020FA0146684601700078002812D115
:1016E000FFE70198016888690722520790438861E3
:1016F0000198426A016A0A4381690A43016888695C
:1017000010438861FFE7FFE7FFE701980168FF20CA
:101710004862FFE768460078002805D1FFE7019995
:10172000292201208854FFE7FFE76846007802B0CD
:1017300080BDC046BFFF8FFB82B00190019800685A
:101740000C49884213D1FFE70B4908680122D203F4
:1017500010430860FFE709480268012189020A4333
:1017600002600068084000900098FFE7FFE702B0C1
:101770007047C046002800405C1002403C10024008
:1017800080B58AB0089007910692FFE70898282153
:10179000405C012804D1FFE709A90220087028E174
:1017A0000899282201208854FFE7FFE70899292299
:1017B00002208854069800283DD1FFE70898006869
:1017C00080694006002801D5FFE703E00799002063
:1017D000C870FFE70798C069002801D1FFE700E063
:1017E000FFE70798007802F032F9000400900798AC
:1017F000407802F02CF90146009809024018019047
:101800000798807802F023F901460198411807985B
:10181000C2789205114302912021405C02F017F931
:1018200001460298090608430799CA6910434969A5
:101830000843049027E00898006880694006002863
:1018400001D5FFE703E007990020C870FFE707987C
:10185000C069002801D1FFE700E0FFE70799087899
:1018600000044A78120280188A788018CA78920593
:10187000104320228A5C12061043CA69104349694A
:1018800008430490FFE70799486889690843039073
:10189000FFE708980168CA20486208980168532049
:1018A0004862FFE70798406A01210902884245D152
:1018B000FFE708980168886901221302984388614C
:1018C000089801688869120390438861FEF70CFF4D
:1018D0000590FFE708980068C068C00700281DD180
:1018E000FFE7FEF701FF0599401A5949884214D3D2
:1018F000FFE7FFE708980168FF204862FFE70899C3
:10190000292203208854FFE70899282200208854C0
:10191000FFE709A9032008706BE0DBE7049808994A
:101920000968086403980899096848640898016878
:101930008869012212021043886146E00898016814
:101940008869012253029843886108980168886970
:10195000520390438861FEF7C7FE0590FFE70898A1
:101960000068C06802210840400800281DD1FFE738
:10197000FEF7BAFE0599401A3549884214D3FFE7AD
:10198000FFE708980168FF204862FFE708992922CD
:1019900003208854FFE70899282200208854FFE795
:1019A00009A90320087024E0D9E704980899096878
:1019B0008864039808990968C86408980168886968
:1019C0000122520210438861FFE7FFE7089801688F
:1019D000FF204862FFE70899292201208854FFE789
:1019E0000899282200208854FFE709A900200870E0
:1019F000FFE709A800780AB080BDC04680B584B072
:101A0000029002980168C868A0229043C860FEF75F
:101A10006BFE0190FFE702980068C068800600280E
:101A20000DD4FFE7FEF760FE0199401A084988428D
:101A300004D3FFE703A90320087004E0EBE703A940
:101A400000200870FFE703A8007804B080BDC046FE
:101A5000E903000080B582B00190019802F09CF883
:101A600002B080BD85B003900291FFE703983C214E
:101A7000405C012804D1FFE704A90220087057E068
:101A800003993C2201208854FFE7FFE703993D2298
:101A90000220885403980068406801900398006809
:101AA0008068009003980068A74988420BD1FFE73F
:101AB00001980F2109058843019002984168019817
:101AC00008430190FFE70198702188430190029834
:101AD00001680198084301900198039909684860DA
:101AE000039800689849884206D0FFE70398006889
:101AF000964988420ED1FFE70098802188430090E4
:101B0000029881680098084300900098039909683A
:101B10008860FFE703993D2201208854FFE703997D
:101B20003C2200208854FFE704A900200870FFE74A
:101B300004A8007805B0704780B582B00090009886
:101B4000002804D1FFE701A90120087045E00098B2
:101B50003D21405C002808D1FFE700993C2200208D
:101B60008854009800F03EF8FFE700993D220220DB
:101B70008854009901C902F023F9009948220120F4
:101B80008854FFE700993E220120885400993F22A3
:101B90008854009940228854009941228854009921
:101BA00042228854009943228854FFE7FFE70099B6
:101BB00044220120885400994522885400994622E5
:101BC0008854009947228854FFE700993D2201205C
:101BD000885401A900200870FFE701A8007802B02E
:101BE00080BD0000B0B594B0139000201290119009
:101BF00010900F900E9013980068534988423FD17F
:101C0000FFE7FFE7554802680121C9020A43026065
:101C1000006808400D900D98FFE7FFE75148026803
:101C200001210A430260006808400C900C98FFE70D
:101C3000012420020E90022003900F9000210691B3
:101C40001091119112900520000704900EA90591A2
:101C5000FEF7CCFB039A04980599069B65020E9546
:101C60000F92109411931292FEF7C0FB069A0E2069
:101C700007901146FEF7CBFD0798FEF7BDFD60E02B
:101C800013980068314988420CD1FFE7FFE73448D8
:101C9000026802210A430260006808400B900B981A
:101CA000FFE74DE0139800682949884216D1FFE705
:101CB000FFE72A4802680121C9030A43026000685D
:101CC00008400A900A98FFE713200290002211466C
:101CD000FEF79DFD0298FEF78FFD30E01398006837
:101CE0001C4988420DD1FFE7FFE71C48026801212B
:101CF00049040A4302600068084009900998FFE718
:101D00001CE0139800681449884216D1FFE7FFE7EA
:101D100012480268012189040A43026000680840F1
:101D200008900898FFE71620019001210022FEF795
:101D30006EFD0198FEF760FDFFE7FFE7FFE7FFE7B5
:101D4000FFE714B0B0BDC046002C014000040040C5
:101D50000020004000440140004801404010024083
:101D60003C1002403410024080B586B004900391CC
:101D7000FFE704983C21405C012804D1FFE705A956
:101D800002200870ABE004993C2201208854FFE750
:101D9000FFE704993D220220885404980068806877
:101DA000029002985049084002900298FF210902CF
:101DB0008843029002980499096888600398006833
:101DC0000190002875D0FFE70198102871D0FFE737
:101DD000019820286DD0FFE70198302869D0FFE7EF
:101DE0000198402858D0FFE7019850283AD0FFE7E3
:101DF0000198602843D0FFE7019870280DD0FFE7D5
:101E0000019801210903884206D0FFE701980121CA
:101E10004903884216D053E053E004980068039BBE
:101E200099685A68DB6802F052F804980068806884
:101E30000290029877210843029002980499096859
:101E400088603EE004980068039B99685A68DB68E4
:101E500002F03DF80498016888680122920310435B
:101E600088602EE004980068039A5168D26802F0F6
:101E7000F9FA04980068502102F044F821E004982F
:101E80000068039A5168D26802F064FB0498006805
:101E9000602102F037F814E004980068039A516852
:101EA000D26802F0DFFA04980068402102F02AF8B4
:101EB00007E0049800680399096802F023F800E03D
:101EC000FFE704993D2201208854FFE704993C2252
:101ED00000208854FFE705A900200870FFE705A847
:101EE000007806B080BDC04688FFCEFF80B584B0C4
:101EF000029001910092FFE702983C21405C01288A
:101F000004D1FFE703A90220087079E002993C227E
:101F100001208854FFE7FFE70098002816D1FFE76B
:101F200002980068019B19685A68DB6802F0C2FADF
:101F30000298016888690C22904388610198826840
:101F4000029801688869104388614FE0009804286E
:101F500018D1FFE702980068019B19685A68DB688E
:101F600002F022FB029801688869032292029043E2
:101F700088610198806802020298016888691043AC
:101F8000886132E00098082816D1FFE702980068BF
:101F9000019B19685A68DB6802F03DFB02980168F2
:101FA000C8690C229043C861019882680298016850
:101FB000C8691043C86117E002980068019B19685E
:101FC0005A68DB6802F05DFB02980168C869032269
:101FD00092029043C86101988068020202980168E9
:101FE000C8691043C861FFE7FFE7FFE7FFE7029911
:101FF0003C2200208854FFE703A900200870FFE777
:1020000003A8007804B080BD80B582B0009000982D
:10201000002804D1FFE701A90120087045E00098DD
:102020003D21405C002808D1FFE700993C220020B8
:102030008854009800F03DF8FFE700993D22022007
:102040008854009901C901F0BBFE00994822012083
:102050008854FFE700993E220120885400993F22CE
:10206000885400994022885400994122885400994C
:1020700042228854009943228854FFE7FFE70099E1
:102080004422012088540099452288540099462210
:102090008854009947228854FFE700993D22012087
:1020A000885401A900200870FFE701A8007802B059
:1020B00080BD81B0009001B07047000080B596B03F
:1020C000149013911398002805D1FFE714983E212E
:1020D000405C0F9034E01398042805D1FFE7149872
:1020E0003F21405C0E9028E01398082805D1FFE7B7
:1020F00014984021405C0D901CE013980C2805D1E9
:10210000FFE714984121405C0C9010E013981028D0
:1021100005D1FFE714984221405C0B9004E014982D
:102120004321405C0B90FFE70B980C90FFE70C9865
:102130000D90FFE70D980E90FFE70E980F90FFE7C8
:102140000F9811A908701398002805D1FFE714987B
:102150004421405C0A901CE01398042805D1FFE755
:1021600014984521405C099010E01398082805D187
:10217000FFE714984621405C089004E0149847213A
:10218000405C0890FFE708980990FFE709980A90DB
:10219000FFE70A9810A9087011A80078012805D156
:1021A000FFE710A80078012804D0FFE715A9012057
:1021B0000870DFE01398002805D1FFE714993E224C
:1021C0000220885438E01398042806D1FFE71499B8
:1021D0003F220220885407902CE01398082806D14B
:1021E000FFE7149940220220885406901FE01398BC
:1021F0000C2806D1FFE7149941220220885405904B
:1022000012E01398102806D1FFE714994222022009
:102210008854049005E014994322022088540490C5
:10222000FFE704980590FFE705980690FFE70698FA
:102230000790FFE70798FFE71398002805D1FFE70D
:1022400014994422022088541EE01398042806D1D1
:10225000FFE71499452202208854039012E0139856
:10226000082806D1FFE714994622022088540290DC
:1022700005E014994722022088540290FFE7029853
:102280000390FFE70398FFE7139801900C283BD8D1
:102290000198810001A040588746C046D12200081D
:1022A000092300080923000809230008DF22000889
:1022B000092300080923000809230008ED2200086B
:1022C000092300080923000809230008FB2200084D
:1022D00014980168C86802221043C86015E0149879
:1022E0000168C86804221043C8600EE014980168B1
:1022F000C86808221043C86007E014980168C868DD
:1023000010221043C86000E0FFE71498006813999A
:10231000012201F0C3FD149800689349884206D059
:10232000FFE7149800682B49884218D1FFE71498FA
:1023300000688068114908401290129806280DD054
:10234000FFE7129801210904884207D0FFE714989B
:1023500001680868012210430860FFE706E014984E
:1023600001680868012210430860FFE715A90020F2
:102370000870FFE715A8007816B080BD07000100BF
:1023800080B588B0079000200690059004900390D7
:102390000290079800680F49884219D1FFE7FFE7CC
:1023A0000D48026802210A4302600068084001905B
:1023B0000198FFE720200290022003900020049063
:1023C000059001200690054802A9FEF70FF8FFE7E7
:1023D00008B080BD000400403410024000040050EA
:1023E00080B584B0029001910298002804D1FFE7E3
:1023F00003A90120087039E002983D21405C0028C3
:1024000008D1FFE702993C2200208854029800F08E
:1024100031F8FFE702993D22009202208854029988
:1024200001C901F0CDFC009A0298016808680823F0
:1024300098430860019B0298016808681843086087
:10244000029948230120C85402993E23C854029996
:102450003F23C85402994423C85402994523C854C1
:102460000299885403A900200870FFE703A80078A8
:1024700004B080BD81B0009001B0704780B58AB0D3
:102480000890079108983E21415C06A801700899C0
:102490003F22895C05AA117008994422895C04AA2C
:1024A000117008994522895C03AA117000780128EF
:1024B0000FD1FFE705A8007801280AD1FFE704A89B
:1024C0000078012805D1FFE703A80078012804D08F
:1024D000FFE709A90120087042E008993E22022086
:1024E000885408993F2288540899442288540899AE
:1024F000452288540898006800210122019201F0C9
:10250000CDFC019A08980068042101F0C7FC0198ED
:1025100008990968144A9142029010D0FFE7089880
:1025200001680120114A9142029008D0FFE7089803
:1025300000680F494018414248410290FFE7029865
:10254000C007002808D0FFE708980168486C0122FE
:10255000D20310434864FFE709A900200870FFE791
:1025600009A800780AB080BD002C01400044014059
:1025700000B8FEBF80B586B0049003910292FFE7D9
:1025800004983C21405C012804D1FFE705A9022002
:102590000870E0E004993C2201208854FFE7FFE73F
:1025A00002980190142800D9CAE00198810001A086
:1025B000405887460926000841270008412700089F
:1025C000412700083B260008412700084127000852
:1025D000412700087126000841270008412700080C
:1025E00041270008A32600084127000841270008CA
:1025F00041270008D9260008412700084127000884
:10260000412700080B27000804980068039901F08F
:1026100091FC049801688869082210438861049835
:1026200001688869042290438861039802690498CC
:10263000016888691043886183E004980068039901
:1026400001F0EEFC0498016888690122D302184366
:1026500088610498016888699202904388610398B0
:10266000006902020498016888691043886168E083
:1026700004980068039901F05DFD04980168C86939
:1026800008221043C86104980168C8690422904375
:10269000C8610398026904980168C8691043C86159
:1026A0004FE004980068039901F0D0FD0498016898
:1026B000C8690122D3021843C86104980168C86937
:1026C00092029043C861039800690202049801686D
:1026D000C8691043C86134E004980068039901F0A8
:1026E00013FE04980168486D082210434865049859
:1026F0000168486D04229043486503980269049874
:102700000168486D104348651BE004980068039910
:1027100001F050FE04980168486D0122D30218436D
:10272000486504980168486D920290434865039893
:102730000069020204980168486D1043486500E092
:10274000FFE7FFE704993C2200208854FFE705A932
:1027500000200870FFE705A8007806B080BD80B5AE
:1027600082B000900098002804D1FFE701A9012061
:10277000087045E000983D21405C002808D1FFE743
:1027800000993C2200208854009800F03DF8FFE7B3
:1027900000993D2202208854009901C901F010FBE4
:1027A0000099482201208854FFE700993E22012029
:1027B000885400993F2288540099402288540099F7
:1027C0004122885400994222885400994322885417
:1027D000FFE7FFE700994422012088540099452231
:1027E0008854009946228854009947228854FFE76C
:1027F00000993D220120885401A900200870FFE7BC
:1028000001A8007802B080BD81B0009001B070478F
:1028100080B590B00E900D910D98002805D1FFE77E
:102820000E983E21405C0B9034E00D98042805D1B1
:10283000FFE70E983F21405C0A9028E00D98082899
:1028400005D1FFE70E984021405C09901CE00D98EF
:102850000C2805D1FFE70E984121405C089010E05C
:102860000D98102805D1FFE70E984221405C079093
:1028700004E00E984321405C0790FFE7079808901A
:10288000FFE708980990FFE709980A90FFE70A9880
:102890000B90FFE70B98012804D0FFE70FA9012058
:1028A0000870DDE00D98002805D1FFE70E993E2263
:1028B0000220885438E00D98042806D1FFE70E99CD
:1028C0003F220220885406902CE00D98082806D15B
:1028D000FFE70E9940220220885405901FE00D98D2
:1028E0000C2806D1FFE70E9941220220885404905B
:1028F00012E00D98102806D1FFE70E99422202201F
:102900008854039005E00E994322022088540390D6
:10291000FFE703980490FFE704980590FFE7059808
:102920000690FFE70698FFE70D9802900C283BD829
:102930000298810001A040588746C04671290008CE
:10294000A9290008A9290008A92900087F29000849
:10295000A9290008A9290008A92900088D2900082B
:10296000A9290008A9290008A92900089B2900080D
:102970000E980168C86802221043C86015E00E98DE
:102980000168C86804221043C8600EE00E98016810
:10299000C86808221043C86007E00E980168C8683C
:1029A00010221043C86000E0FFE70E9800680D9900
:1029B0000122009201F072FA00980E9909682A4AE1
:1029C0009142019010D0FFE70E9801680120274A3C
:1029D0009142019008D0FFE70E9800682449401802
:1029E000414248410190FFE70198C007002808D004
:1029F000FFE70E980168486C0122D2031043486437
:102A0000FFE70E9800681849884206D0FFE70E9845
:102A100000681849884218D1FFE70E98006880685E
:102A2000154908400C900C9806280DD0FFE70C982B
:102A300001210904884207D0FFE70E980168086861
:102A4000012210430860FFE706E00E98016808685D
:102A5000012210430860FFE70FA900200870FFE77C
:102A60000FA8007810B080BD002C01400044014048
:102A700000B8FEBF000400400700010080B582B02E
:102A800000900098002804D1FFE701A901200870F8
:102A90004AE000988069002801D0FFE700E0FFE7E6
:102AA000009884214058002808D1FFE7009980222F
:102AB00000208854009800F03BF8FFE7009984223A
:102AC000242088500098016808680122904308601B
:102AD000009801F011FF012804D1FFE701A90120AE
:102AE000087021E00098806A002804D0FFE7009871
:102AF00001F000FEFFE70098016848680922D20251
:102B0000904348600098016888682A229043886052
:102B1000009801680868012210430860009801F0DD
:102B200097FE01A90870FFE701A8007802B080BDF8
:102B300080B588B00790002006900590049003901F
:102B40000290079800681649884226D1FFE7FFE700
:102B500014480268012149040A43026000680840E1
:102B600001900198FFE7FFE70F48026801210A433F
:102B700002600068084000900098FFE70C20029077
:102B8000022003900020049005900120069005206B
:102B9000000702A9FDF72AFCFFE708B080BDC04688
:102BA000004400403C1002403410024080B584B024
:102BB00018480190042101220292FDF77FFD01983F
:102BC000029A0221FDF77AFD0198029A1146FDF75B
:102BD00075FD029802F086F9182002F083F9292089
:102BE00002F080F9032002F07DF900200390FFE756
:102BF00003981F280BDCFFE703A800780021A02220
:102C000002F0D2F9FFE70398401C0390F0E704B00C
:102C100080BDC04600040050FFE7FEE780B58AB0E3
:102C20000990002008900999009108684968FDF70B
:102C3000C2FA00994861099905918868019048692C
:102C4000049089690391FDF7B6FA01460198FDF7F2
:102C5000BAFA0499024605980292C068FDF7B3FAE1
:102C600001460298FDF756FA039902460598079225
:102C7000006906900846FDF74DFA01460498FDF7F5
:102C80009AFA0599C969FDF745FA01460698FDF7D4
:102C90009AFA01460798FDF73DFA08900998C06B2B
:102CA00000280AD0FFE70998C16B406988470146B0
:102CB0000898FDF788FA0890FFE709998869C861C4
:102CC0000999486988610998406A0899FDF722FACC
:102CD000089008980999896AFDF7B2FA002804D18A
:102CE000FFE70998806A08900CE008980999C96A7A
:102CF000FDF7B4FA002804D1FFE70998C06A0890EC
:102D0000FFE7FFE70898099948620AB080BD81B0E3
:102D1000009000990020086000994860009A7F2187
:102D2000C9055163009A9061009AD061009A906041
:102D3000009AD060009A1061009A5061009A506227
:102D4000009A9162009AD062009A11630099886398
:102D50000099C86301B0704780B58AB009900891A6
:102D60000792069300200590049003900290019032
:102D70000090FFE70098099988420BDAFFE707986F
:102D80000099C900401802F093F9FFE70098401C31
:102D90000090EFE700200090FFE700980899884234
:102DA0000BDAFFE706980099C900401802F080F995
:102DB000FFE70098401C0090EFE7002002900121FF
:102DC00003910090FFE700980999884212DAFFE723
:102DD00007980099C90040188088019007980099C9
:102DE000C900405801A9FDF701FBFFE70098401C0E
:102DF0000090E8E7012002900020039004900090EA
:102E0000FFE700980899884212DAFFE706980099D0
:102E1000C90040188088019006980099C900405860
:102E200001A9FDF7E3FAFFE70098401C0090E8E7EE
:102E30000AB080BD10B58AB008900791069205933C
:102E40000898042804DCFFE70798052804DBFFE75F
:102E500009A90020087060E00898324908600798C6
:102E60003149086000200490FFE7049808998842DF
:102E70000FDAFFE70498C4002D4B1919069A1019B0
:102E800012591A5140684860FFE70498401C0490AA
:102E9000EBE700200390FFE70398079988420FDAD9
:102EA000FFE70398C400214B1919059A101912590C
:102EB0001A5140684860FFE70398401C0390EBE715
:102EC000FD48029000200190FFE701980F281ADCCE
:102ED000FFE70299019802010120885402980199A4
:102EE00009014118002048600299019A12018918CD
:102EF00088600299019A120189180873FFE7019806
:102F0000401C0190E1E708980799069A059BFFF796
:102F100023FF09A901200870FFE709A800780AB07B
:102F200010BDC04600000020040000208C010020DD
:102F30006800002081B00090009800680069009946
:102F4000898808404142484101B0704782B00190F1
:102F5000684601700078002805D1FFE7019988884C
:102F60000968886104E00199888809688862FFE738
:102F700002B07047B0B586B005A900200870FFE721
:102F800005A80078C8490968884228DAFFE7C848D8
:102F9000019000788101C8480290411805A803906B
:102FA000027812018918097B490004910078C10058
:102FB000C4484018FFF7BEFF019B0299039A0446DC
:102FC000049820431B789B01C918127812018918B4
:102FD0000873FFE70598401C05A90870D0E705A90C
:102FE00000200870FFE705A80078AF49096888420B
:102FF00000DB2AE1AE4800788101AF48401805A9FE
:10300000097809014018007B8007002854D1FFE7A8
:10301000A74A10788101A848431805A90C78240113
:103020001C19002363601278920180180978090145
:1030300040188068002824D1FFE79D48007881016E
:103040009D48411805A800780201012088549C4839
:103050000078C007002813D0FFE705A8027893483E
:1030600000685043924909788B00C0188B0192493F
:10307000C9181201895C401840B200F045F9FFE719
:10308000FFE78B48007881018B48401805A9097833
:1030900009014018806827280DDCFFE78448007884
:1030A00081018548401805A90978090141188868F7
:1030B000401C8860FFE7C2E07D48007881017E48BF
:1030C000401805A9097809014018007B0321084030
:1030D000032800D0B2E07648007881017648401895
:1030E00005A90978090140188068272827DCFFE72F
:1030F0006F48007881017048401805A909780901D6
:103100004018806800281AD0FFE7694B18788001C2
:1031100069490C1805A80278150103226255027846
:103120006248006850431B789C0000199B01C91835
:103130001201895C401840B200F0E6F827E05C48D4
:10314000007881015C48401805A9097809014018F8
:10315000406800281AD1FFE7554B1878800156497E
:103160000C1805A8027815010022625502784F4814
:10317000006850431B789C0000199B01C91812017C
:10318000895C401840B200F0BFF8FFE7FFE7484A0B
:10319000107881014848431805A90C7824011C19AE
:1031A0000023A36012789201801809780901401861
:1031B0004068424988420DDCFFE73D4800788101C4
:1031C0003D48401805A90978090141184868401C84
:1031D000486032E03648007881013748401805A938
:1031E000097809014018406819214901884223D112
:1031F000FFE72F4B187880012F490A1805A804789B
:10320000240114194B22D20062601A7892018C18A2
:103210000278150102226255027824480068504362
:103220001B789C0000199B01C9181201895C401889
:1032300040B200F069F8FFE7FFE7FFE7FFE7FFE7CD
:103240000598401C05A90870CDE6184800680128BB
:1032500028DBFFE716490878401C08700878134AF5
:103260001268521E1040087005A900200870FFE780
:1032700005A800780D490968884212DAFFE705A819
:103280000178CA000B488018094A1278891A4A4204
:103290005141FFF75BFEFFE70598401C05A9087048
:1032A000E6E7FFE706B0B0BD000000200400002004
:1032B000880100208C010020880000201F030000EE
:1032C000B40100206800002081B06946FF2008702A
:1032D0001749887AC97A884211D0FFE71449887A59
:1032E000085C6A461070887A401C8872C0B20A284E
:1032F00004DBFFE70E4900208872FFE7FFE768461E
:10330000007840B201B0704781B0694608700098FB
:103310000749CA7A8854C87A401CC872C0B20A28C1
:1033200004DBFFE702490020C872FFE701B07047E5
:10333000780300200248006807210903084070470D
:103340000810024081B0009000980278AF49002038
:103350008854009A5278885401B0704710B586B0EE
:10336000024605A8027004910078002816D4FFE7F1
:1033700005A80078092811DCFFE705A8027837497D
:103380008A5CF7210A4004990B78A049CA54027854
:103390003448805C049A527888541DE005A8019056
:1033A00000780A210291FCF787FF01980B460299E9
:1033B0002A4AD25C08231A43049B1C78934B03933C
:1033C0001A550078FCF778FF0A4603992548805C77
:1033D000049A52788854FFE706B010BD70B582B0E9
:1033E00001906846017001980A2801D3FFE733E095
:1033F0006846007800281CD4FFE768460078092852
:1034000017DCFFE76846027814498B5C0199490094
:10341000134A545C7D490D5D082635402B430B55FE
:1034200003781048C05C019B5B00D2185278885426
:1034300012E00A48827A019841000948435C7349C6
:10344000CC5C08252C402243CA54019A52008018B3
:10345000427800208854FFE702B070BDF4530008A2
:1034600086530008FF53000880B582B0014601A8CA
:10347000017000780249FFF771FF02B080BDC046BD
:103480007C53000880B586B0024605A80190027002
:1034900004AA0292117000780A210391FCF70CFF34
:1034A00001460020FFF79AFF019803990078FCF786
:1034B00003FF0120FFF792FF029803990078FCF7C1
:1034C000FBFE01460220FFF789FF0298039900786E
:1034D000FCF7F2FE0320FFF781FF06B080BD80B548
:1034E00082B000202D210191FFF778FF0199012082
:1034F000FFF774FF01990220FFF770FF0199032085
:10350000FFF76CFF02B080BD80B582B0014601A814
:10351000017000780249FFF721FF02B080BDC0466C
:103520007E53000880B582B0014601A80170007882
:103530000249FFF713FF02B080BDC0468053000868
:1035400080B582B017480190FFF7FCFE0198801CFF
:10355000FFF7F8FE02B080BD80B584B0014603A835
:1035600001700078C7281ADCFFE703A802900078F2
:103570000A210091FCF7A0FE08460A490191891C26
:10358000FFF7ECFE009902980078FCF795FE019990
:103590000246029802700078FFF7E0FEFFE704B0F1
:1035A00080BDC0468253000880B582B0014601A8A4
:1035B000017000780249FFF7D1FE02B080BDC0461D
:1035C0009A53000880B582B0014601A801700178C5
:1035D0000420FFF703FF02B080BD000080B582B079
:1035E00000200190FFE701981F280CDCFFE70198FD
:1035F0000649095CC0B2A02201F0D6FCFFE70198A1
:10360000401C0190EFE702B080BDC0465803002087
:1036100080B58EB000200D900C900B900A90099010
:10362000FFE73248026804210A430260006808404C
:1036300008900898FFE7FFE72C48026820210A431A
:1036400002600068084007900798FFE7FFE72748F7
:10365000026801210A43026000680840069006984B
:10366000FFE7FFE72148026802210A430260006881
:10367000084005900598FFE7FFE71C48026808210D
:103680000A4302600068084004900498FFE7184865
:103690000990032001900A90002002900B90154899
:1036A00009A90391FCF7A2FE019A02980399124B13
:1036B00009930A920B9005200007FCF797FE019AE8
:1036C000029803990D4B09930A920B900C48FCF752
:1036D0008DFE019A029803990F2309930A920B9089
:1036E0000848FCF783FE0EB080BDC046341002408F
:1036F000C0E0000000080050F39C0000DFFF000065
:1037000000040050000C005080B594B000200290DE
:1037100013901290119010900F900E9004A82821F1
:10372000FCF7EDFC029920480390204A026081607A
:103730007F22C260FF22026141618161C161012279
:10374000920702624162FDF773FF002803D0FFE792
:10375000FCF724FEFFE70FA80C2101700022019264
:10376000427082701092129213920EA9012008707A
:1037700048708870CA7004A90A704A708A700592ED
:103780000792089209920A920B922023C8540002D1
:103790000D900548FDF7F4FF002803D0FFE7FCF784
:1037A000FDFDFFE714B080BDB801002000280040F7
:1037B00080B588B000210091079106910591049190
:1037C0000391029101911648164A02600922426053
:1037D0008160154AC26001618161FEF7ADF9002880
:1037E00003D0FFE7FCF7DAFDFFE70D48FEF7B7FF70
:1037F000002803D0FFE7FCF7D1FDFFE76020019030
:103800000022029203920592054801A9FEF7B2FE3A
:10381000002803D0FFE7FCF7C1FDFFE708B080BD3B
:103820003002002000200040FFF9000080B58EB07B
:10383000002101910D910C910B910A910991089130
:10384000079106910591049103912B4802902B4A10
:1038500002609F2242608160294AC2600161416129
:103860008161FEF769F9002803D0FFE7FCF796FDB8
:10387000FFE7012000030A901F480AA9FEF774FA27
:10388000002803D0FFE7FCF789FDFFE71A48FEF7A1
:10389000BBFB002803D0FFE7FCF780FDFFE700201B
:1038A000079008900990144807A9FEF7DBF8002854
:1038B00003D0FFE7FCF772FDFFE70022039201202F
:1038C00004900592042006900B4803A9FEF70EFB16
:1038D000002803D0FFE7FCF761FDFFE7064803A9D6
:1038E0000422FEF703FB002803D0FFE7FCF756FD98
:1038F000FFE70EB080BDC046E4010020002C01406F
:10390000FFFF000080B590B0002101910F910E9152
:103910000D910C910B910A910991089107910691D3
:103920000591049103910291F9482A4A02602A4ABA
:1039300042608160294AC26001618161FEF7FCF842
:10394000002803D0FFE7FCF729FDFFE70120000373
:103950000C90EF480CA9FEF707FA002803D0FFE708
:10396000FCF71CFDFFE7EA48FEF7F9FE002803D04C
:10397000FFE7FCF713FDFFE7E5480821FEF730FD00
:10398000002803D0FFE7FCF709FDFFE700200990BE
:103990000B90DF4809A9FEF765F8002803D0FFE780
:1039A000FCF7FCFCFFE760200290002003900490ED
:1039B0000690D74802A90422FEF7DCFD002803D0B8
:1039C000FFE7FCF7EBFCFFE7D148FEF7D9FC10B0AE
:1039D00080BDC04600040040E70300009CF90000E1
:1039E00080B582B00E4800900E490160E121490285
:1039F0004160002101918160C16001610C2242613E
:103A00008161C161016241628162FFF737F800287C
:103A100003D0FFE7FCF7C2FCFFE702B080BDC04661
:103A2000C802002000440040FFE7FEE7704782B074
:103A300001A90870087802090A20504300900098F4
:103A400009780F2211404018C0B202B0704783B00D
:103A500002A9087000200190029869460870FFE7EB
:103A6000684600780A2808D3FFE70198401C0190B7
:103A700000980A3869460870F2E701980007000EBE
:103A800069460978084303B07047000080B584B0E8
:103A9000039001A90020087003980068C0684006E0
:103AA000002830D4FFE703980168C86880221043DB
:103AB000C860FCF719FE0290FFE703980068C16830
:103AC000002049060029009007D4FFE701A80078EC
:103AD000C01E411E88410090FFE70098C0070028E3
:103AE00010D0FFE7FCF700FE0299401A084988420F
:103AF00007D3FFE701A903200870039929228854FE
:103B0000FFE7DAE7FFE701A8007804B080BDC04610
:103B1000E903000080B582B001906946002008707A
:103B20001A49086880229043086019480068800696
:103B300000280ED4FFE70198FDF760FF002807D0AA
:103B4000FFE7019929220320885469460870FFE79E
:103B500017E00F4908682022904308600198FDF79C
:103B60004DFF002807D0FFE7019929220320885440
:103B700069460870FFE7064908682022104308607C
:103B8000FFE76846007802B080BDC0460C280040C0
:103B9000182800407047000080B584B00290029859
:103BA000401E000E002803D0FFE70120039011E023
:103BB0000298401E0949086000200190C04303217B
:103BC00001F032FA019806490860064A072111609F
:103BD0000390FFE7039804B080BDC04614E000E006
:103BE00018E000E010E000E080B5FCF781FD80BD4A
:103BF00080B59AB00DA802903421FCF780FA00201D
:103C000000900C900B900A900990089007900690F5
:103C1000059004900390012001904002FCF706FEFD
:103C2000009A019902980A230D930B0210931192A6
:103C30004023129313910223149315931692082292
:103C400017924A04189249071991FDF715F90028AF
:103C500003D0FFE7FCF7A2FBFFE707200990022152
:103C60000A9100200B900C9009A8FCF731FF002866
:103C700003D0FFE7FCF792FBFFE70120410403912B
:103C80004002089003A8FCF70FFE002803D0FFE7CE
:103C9000FCF784FBFFE71AB080BD00000120C006DE
:103CA000014908607047C04608ED00E080B517483C
:103CB000006800680069022108404008002824D0FC
:103CC000FFE7124800680068C06802210840400809
:103CD000002819D0FFE70D48006800688069800758
:103CE00000280AD1FFE70A48026811680123194336
:103CF00011600421FEF7C2FBFFE704480068016879
:103D00000220C0430861FFE7FFE780BD0C000020F0
:103D10007C0200207047000080B582B02048006817
:103D20000069022108404008002824D0FFE71D4A0E
:103D300011681D4801600021116001681B48FCF7F3
:103D4000BBFAFCF799FA0146194801600168194865
:103D500001904160FEF762FF0199886B496AFCF7A8
:103D600032FAFCF790FA144908600D480168022005
:103D7000C0430861FFE70A48006800690421084061
:103D8000800800280AD0FFE70B4800680B4908604C
:103D9000034801680420C0430861FFE702B080BD0A
:103DA000E4010020242C0140AC010020801A060010
:103DB0006400002024000020100000202420004087
:103DC00083B0029001910298006800900298D64951
:103DD000884205D0FFE702982E4988420AD1FFE7C2
:103DE000009870218843009001984168009808432A
:103DF0000090FFE70298CC49884214D0FFE7029870
:103E0000244988420FD0FFE70298234988420AD00C
:103E1000FFE70298C549884205D0FFE70298C449E8
:103E200088420BD1FFE700980321090288430090E4
:103E30000198C168009808430090FFE7009880212E
:103E400088430199496908430090009802990860E5
:103E5000019880680299C862019800680299886296
:103E60000298F74988420AD0FFE70298F54988424C
:103E700005D0FFE70298F449884205D1FFE7019891
:103E8000006902990863FFE702990120486103B0C5
:103E90007047C046000400400020004084B00390FA
:103EA00002910192029A1F210A4001209040009045
:103EB000009B039A106A98431062019A0298084086
:103EC00082400399086A1043086204B0704785B0C5
:103ED00004900391029201930498806800900098E6
:103EE000FF2109028843009003990298019A120267
:103EF000104301430098084300900098049988609B
:103F000005B0704783B002900191029880680090DC
:103F1000009807490840009001980099084307213C
:103F20000843009000980299886003B07047C0462B
:103F30008FFFCFFF85B0049003910499086A012296
:103F4000904308620498006A0190049840680090C9
:103F50000498806902900298B8490840029002983B
:103F60000321884302900398016802980843029055
:103F700001980221884301900398816801980843C1
:103F800001900498DD4988420AD0FFE70498DC4993
:103F9000884205D0FFE70498DA4988420ED1FFE74E
:103FA00001980821884301900398C168019808434B
:103FB00001900198042188430190FFE70498CF49BC
:103FC00088420AD0FFE70498F849884205D0FFE705
:103FD0000498F749884214D1FFE7009801210A02AA
:103FE00090430090009849028843009003984169EB
:103FF0000098084300900398816900980843009056
:10400000FFE7009804994860029804998861039832
:1040100040680499486301980499086205B07047A4
:1040200085B0049003910499086A102290430862B5
:104030000498006A01900498406800900498806990
:1040400002900298AC4908400290029803210902AC
:104050008843029003980068010202980843029086
:1040600001982021884301900398806801010198FC
:10407000084301900498F849884212D0FFE7049859
:10408000F649884204D1FFE70020002809D1FFE764
:104090000498F349884213D1FFE7012000280FD18B
:1040A000FFE701988021884301900398C0680101CF
:1040B0000198084301900198402188430190FFE74F
:1040C0000498E54988420AD0FFE70498E34988420A
:1040D00005D0FFE70498E249884216D1FFE700982F
:1040E00001218A02904300900098C9028843009001
:1040F0000398406981000098084300900398806904
:104100008100009808430090FFE7009804994860F8
:10411000029804998861039840680499886301981B
:104120000499086205B07047002C0140004401402A
:104130000048014085B004900391049A106A01215F
:104140000B02984310620498006A0190049840683A
:1041500000900498C06902900298934A104002901F
:104160000298032290430290039802680298104339
:1041700002900198490288430190039880680102E7
:104180000198084301900498F049884212D0FFE753
:104190000498B249884204D1FFE70020002809D1E1
:1041A000FFE70498AE49884214D1FFE701200028B8
:1041B00010D1FFE701980121CA02904301900398B2
:1041C000C068020201981043019001988902884357
:1041D0000190FFE70498DD4988420AD0FFE7049880
:1041E0009E49884205D0FFE704989D49884216D130
:1041F000FFE7009801210A039043009000984903CB
:10420000884300900398406901010098084300909A
:10421000039880690101009808430090FFE7009827
:104220000499486002980499C86103984068049909
:10423000C86301980499086205B070478FFFFEFFBC
:10424000002C0140004401400048014085B004902A
:104250000391049A106A01210B0398431062049899
:10426000006A01900498406800900498C069029028
:104270000298784A1040029002980322120290435A
:10428000029003980068020202981043029001987D
:10429000490388430190039880680103019808430B
:1042A00001900498A94988420AD0FFE704986B4915
:1042B000884205D0FFE70498694988420CD1FFE79E
:1042C0000098012189038843009003984069810187
:1042D000009808430090FFE700980499486002980E
:1042E0000499C86103984068049908640198049986
:1042F000086205B07047C046FF8FFFFE002C0140EA
:10430000004401400048014085B004900391049AA4
:10431000106A01210B04984310620498006A01900E
:104320000498406800900498406D029002981E4ADC
:10433000104002900398026802981043029001987E
:104340004904884301900398806801040198084358
:10435000019004987D4988420AD0FFE704983F49BC
:10436000884205D0FFE704983D4988420CD1FFE719
:1043700000980121090488430090039840690102D4
:10438000009808430090FFE700980499486002985D
:1043900004994865039840680499886501980499D0
:1043A000086205B07047C0468FFFFEFF0044014021
:1043B0000048014085B004900391049A106A0121DD
:1043C0000B05984310620498006A019004984068B5
:1043D00000900498406D029002981E4A104002908E
:1043E0000398006802020298104302900198490560
:1043F0008843019003988068010501980843019063
:104400000498524988420AD0FFE704981349884229
:1044100005D0FFE70498124988420CD1FFE70098C5
:104420000121890488430090039840698102009823
:1044300008430090FFE700980499486002980499A7
:104440004865039840680499C86501980499086212
:1044500005B07047FF8FFFFE002C01400044014073
:104460000048014085B00490039102920498006ACC
:1044700000900499086A01229043086204988069B8
:1044800001900198F0218843019002980101019860
:104490000843019000980A218843009003990098EE
:1044A0000843009001980499886100980499086273
:1044B00005B0704787B00690059104920393069A61
:1044C000116A012081431162069989690291069956
:1044D000096A019106991D4A9142009007D0FFE7B1
:1044E00006981B494018414248410090FFE7009858
:1044F000C007002809D0FFE70298032188430290F3
:10450000049902980843029004E0029801210843AC
:104510000290FFE70298F02188430290039800017F
:10452000C1B202980843029001990A208143019187
:104530000599014001980843019002980699886105
:1045400001980699086207B07047C046002C0140E8
:1045500000FCFFBF85B00490039102920499086AA1
:104560001022904308620498806901900498006AC0
:10457000009001980F2109038843019002980103DC
:104580000198084301900098A02188430090039867
:1045900001010098084300900198049988610098EF
:1045A0000499086205B0704786B0059004910392A3
:1045B00002930599086A1022904308620598806961
:1045C00001900598006A0090019803210902884330
:1045D00001900398010201980843019001980F216E
:1045E0000903884301900298000381B201980843AF
:1045F00001900099A0208143009104990901014094
:1046000000980843009001980599886100980599E1
:10461000086206B0704786B0059004910392029339
:104620000599086A01221202904308620598C06940
:1046300001900598006A0090019803218843019039
:1046400003990198084301900198F0218843019053
:1046500002980001C1B20198084301900099052019
:1046600040028143009104990902014000980843E7
:10467000009001980599C86100980599086206B0F4
:10468000704786B005900491039202930599086AD9
:1046900001221203904308620598C06901900598B1
:1046A000006A009001980321090288430190039851
:1046B000010201980843019001980F2109038843E2
:1046C00001900298000381B201980843019000997B
:1046D000052040038143009104990903014000989B
:1046E0000843009001980599C861009805990862EF
:1046F00006B0704781B0009000982821405CC00748
:1047000000280CD0FFE700980068406801214904A8
:1047100088430099CA6A104309684860FFE7009817
:104720002821405C800700280CD5FFE7009800682E
:10473000406801210904884300990A6B1043096805
:104740004860FFE700982821405C400700280CD50E
:10475000FFE70098006840680121890488430099B8
:104760004A6B104309684860FFE700982821405CC5
:10477000000700280CD5FFE7009800684068012179
:10478000C903884300998A6B104309684860FFE7B2
:1047900000982821405CC00600280CD5FFE700984F
:1047A000006880680121090388430099CA6B10439F
:1047B00009688860FFE700982821405C800600288F
:1047C0000CD5FFE700980068806801214903884301
:1047D00000990A6C104309688860FFE70098282157
:1047E000405C400600281DD5FFE70098006840683F
:1047F000012109058843009A536C184312685060E0
:104800000098406C88420CD1FFE70098006840682F
:1048100003214905884300998A6C10430968486060
:10482000FFE7FFE700982821405C000600280CD530
:10483000FFE70098006840680121C9048843009997
:10484000CA6C104309684860FFE701B07047000078
:1048500080B584B0029002998C2200208850FBF72A
:1048600043FF01900298006800680007002811D5F6
:10487000FFE70298019B1F49009101214905002291
:1048800000F0A6F9002804D0FFE703A90320087070
:104890002CE0FFE70298006800684007002811D567
:1048A000FFE70298019B134900910121890500222D
:1048B00000F08EF9002804D0FFE703A90320087058
:1048C00014E0FFE702998422202088500299882270
:1048D000885002990020C866FFE7029980220020D4
:1048E0008854FFE703A900200870FFE703A80078B9
:1048F00004B080BDFFFFFF0180B58EB00D9008A908
:10490000002008700D9988680A6910434A691043AD
:10491000C96908430C900D98416E0C9808430C909F
:104920000D9800680068A34908400C9908430D9948
:10493000096808600D9800684068032109038843EE
:104940000D99CA681043096848600D9880690C90F9
:104950000D98016A0C9808430C900D9800688068C7
:10496000954908400C9908430D99096888600D988D
:104970000068C06A0F2188430D994A6A104309688C
:10498000C862FFE70D9800688C49884229D1FFE78B
:104990008C48006803210840059003281CD805981E
:1049A000810001A040588746B9490008C94900085C
:1049B000C1490008D14900080AA9002008700FE089
:1049C0000AA9022008700BE00AA90420087007E079
:1049D0000AA90820087003E00AA910200870FFE760
:1049E0000EE00D9800687649884204D1FFE70AA9D5
:1049F0000020087003E00AA910200870FFE7FFE715
:104A0000FFE70D98C0690121C903884267D1FFE71C
:104A10000AA800780490082825D80498810001A0ED
:104A200040588746494A0008674A0008514A00082A
:104A3000674A0008574A0008674A0008674A0008A2
:104A4000674A00085F4A0008FCF772F9069010E018
:104A50005D4806900DE0FCF77FF9069009E0012023
:104A6000C003069005E00020069008A90120087008
:104A7000FFE70698002831D0FFE706980D990391CB
:104A8000496A4A005149895AFBF716FC03994000CC
:104A900049684A088018FBF70FFC80B20990099812
:104AA000102816D3FFE709A84088002811D1FFE796
:104AB00009990F2081430BA8018009990E2211400A
:104AC0004A080B991143018000880D990968C86054
:104AD00003E008A901200870FFE7FFE75AE00AA8F1
:104AE00000780290082826D80298810001A040583A
:104AF0008746C046194B0008374B0008214B000879
:104B0000374B0008274B0008374B0008374B00088D
:104B1000374B00082F4B0008FCF70AF9069010E00D
:104B2000294806900DE0FCF717F9069009E00120EE
:104B3000C003069005E00020069008A90120087037
:104B4000FFE70698002824D0FFE706980D99019109
:104B5000496A4A001D49895AFBF7AEFB0199496829
:104B60004A088018FBF7A8FB80B209900998102822
:104B70000AD3FFE709A84088002805D1FFE7099874
:104B80000D990968C86003E008A901200870FFE7D3
:104B9000FFE7FFE70D996A22012088520D996822EC
:104BA00088520D99002008670D99486708A8007879
:104BB0000EB080BDF369FFCFFFF4FF110038014054
:104BC00000440040541002400024F4009C530008AC
:104BD00010B586B0089C0490039102A8027001935E
:104BE000FFE704980068C06903990840401A4142F1
:104BF000484102A90978884268D1FFE70898401C1B
:104C0000002862D0FFE7FBF76FFD0199401A089971
:104C1000884204D8FFE7089800281ED1FFE70498CF
:104C2000016808680D2252019043086004980168E9
:104C3000886801229043886004998422202088504B
:104C4000049988228850FFE7049980220020885424
:104C5000FFE705A9032008703CE00498006800689D
:104C60004007002830D5FFE704980068C06901219B
:104C7000C9020840C00A012825D1FFE7049801684D
:104C80000122D00208620498016808680D235B01C4
:104C90009843086004980168886890438860049984
:104CA00084222020885004998822885004998C22DC
:104CB0008850FFE70499802200208854FFE705A967
:104CC0000320087006E0FFE7FFE78AE705A9002058
:104CD0000870FFE705A8007806B010BD694908789C
:104CE0000822104308700878042318430870C87B12
:104CF00002231843C873487C104348740878012283
:104D0000104308707047C04680B586B000200590FB
:104D10000490039002900190FFE70D480268022181
:104D20000A4302600068084000900098FFE70720EF
:104D3000019001200290002003900490AE4801A948
:104D4000FBF754FBFDF732FFFFF7C8FF06B080BD4D
:104D50003410024080B584B02B480168491C0160C2
:104D600001682A4848430121C8412949884203D89B
:104D7000FFE7FEF733FCFFE7234801682548484377
:104D80000221C841244988423BD8FFE73C480078CB
:104D90000390002808D0FFE7039803281AD0FFE704
:104DA000039804280ED01EE01C4908788978FEF785
:104DB00069FB3449487808221043487048795040CC
:104DC000487111E0FEF78BFB2E4948790822104309
:104DD000487109E02B4948780822504048704879CA
:104DE0001043487100E0FFE70D4802900B49012293
:104DF0000192FCF7CFFB019A02980A49FCF78EFB5F
:104E0000FFE704B080BDC046B0010020CDCCCCCCC3
:104E100099999919D578E9266E12830088030020A4
:104E2000B80100208403002082B0014601A801706F
:104E30000078009003281FD80098810001A04058F6
:104E40008746C046554E0008694E0008614E00086E
:104E5000714E00080B494878F722104048700CE06A
:104E600007490320087008E005490020087004E0A5
:104E700003490420087000E0FFE702B07047C04615
:104E8000200000205803002080B582B00C4801901B
:104E9000FDF73DFF01990B4888620B48C8623F202F
:104EA0000006486209488863094888600948C86064
:104EB00009480861094808600948C86302B080BD14
:104EC000240000206666663FCDCCCC3D00007A47CA
:104ED00017B7D1396F12833A17B751390080894417
:104EE000F152000880B586B005A900910870A2486B
:104EF00002900421039100220192FBF7DFFB802046
:104F0000032100F011F800980078082100F00CF857
:104F100001980121049100F007F802980399049A7E
:104F2000FBF7CCFB06B080BD80B584B003AA10703F
:104F300002A8017001A900200870FFE701A800780D
:104F400002A9097888422CDAFFE78B480221002267
:104F5000FBF7B4FB03A80078C009012806D1FFE7DE
:104F6000854801221146FBF7A9FBFFE703A800785B
:104F7000C009002806D1FFE77F4801210022FBF786
:104F80009DFBFFE77C4802210122FBF797FB03987A
:104F9000400003A90870FFE70198401C01A90870B0
:104FA000CCE704B080BDC04680B586B005AB1870B4
:104FB00004A8017003A8009002706F4801900421BA
:104FC00002910022FBF77AFB009800780321FFF79B
:104FD000ABFF05988000C0B20621FFF7A5FF02993C
:104FE00004980001C0B2FFF79FFF019802990122C7
:104FF000FBF764FB06B080BD0004005081B00146A1
:1050000068460170007840B2002809D4FFE768467E
:1050100001781F2001400120884002490860FFE715
:1050200001B0704700E100E070B582B0024601A80F
:1050300002700091007840B2002817D4FFE701A960
:10504000087840B20322D3431840184A80580978A0
:1050500049B28C07E50EFF24AC40A043009CA4019C
:10506000E4B2AC402043194088501AE001A9087806
:105070000F24204008380322D34318400A4A80589E
:10508000097849B28D07EE0EFF25B540A843009D73
:10509000AD01EDB2B5402843214008391940885090
:1050A000FFE702B070BDC0461CED00E000E400E088
:1050B00086B00590059800680521090788420CD143
:1050C000FFE7FFE73048026801210A4302600068F9
:1050D000084004900498FFE74BE0059800682649D3
:1050E00088420CD1FFE7FFE72748026802210A4304
:1050F00002600068084003900398FFE738E00598D5
:1051000000681E4988420CD1FFE7FFE71E4802688D
:1051100004210A4302600068084002900298FFE7F9
:1051200025E005980068164988420CD1FFE7FFE7A3
:105130001548026808210A4302600068084001908F
:105140000198FFE712E0059800680E4988420CD1EB
:10515000FFE7FFE70C48026820210A43026000686D
:10516000084000900098FFE7FFE7FFE7FFE7FFE751
:10517000FFE706B07047C04600040050000800502A
:10518000000C005000140050341002400349887A8B
:10519000C97A401A414248417047C046780300200E
:1051A000F0B599B0002005901890FBF7ABFAFEF728
:1051B0001FFDFEF72DFAFEF7A7FAFEF737FBFEF705
:1051C000A1FBFEF70DFCFEF7F3FAFFF75DFE059974
:1051D00042480290FCF772FF029804210491FCF708
:1051E0006DFF05993E48FDF713FB7D2000023D4908
:1051F0000860FFF789FDFEF772F90720FEF7E2F974
:1052000016200390FEF780F90820FEF78BF9122094
:10521000FEF7CAF90398FEF727F98120FEF79CF9FB
:10522000FEF78EF9304910AA104678C978C078C9BF
:1052300078C02E4C08AB1846E2CCE2C0E2CCE2C00B
:1052400004990846FDF7F6FD059807AAFF2111709D
:105250000690FFE70020FBF7A9F8FFF77BFDFDF7BD
:1052600089FEFFF793FF002836D1FFE7FEF72CF801
:10527000014607A8017000780190002804D0FFE7DC
:105280000198022825D025E00698401C0690069833
:10529000032803D1FFE700200690FFE7069800905F
:1052A000002808D0FFE70098012808D0FFE7009801
:1052B000022808D00BE00120FFF7B6FD08E002202D
:1052C000FFF7B2FD04E00320FFF7AEFD00E0FFE7CB
:1052D00001E000E0FFE7FFE7BCE7C046E401002093
:1052E0003002002024200040B4530008D4530008AA
:1052F00081B000907F20C00501B0704702E008C86F
:10530000121F08C1002AFAD170477047002001E03F
:1053100001C1121F002AFBD17047000000000000ED
:10532000000000000000000000000000000000007D
:10533000000000000000000000000000010000006C
:10534000020000000300000004000000060000004E
:105350000700000008000000090000000000000035
:10536000000000000000000000000000010000003C
:1053700002000000030000000400000019181312CE
:1053800015140C0B0E0D07080506030401020A098B
:105390000C0B0E0D1F1E1D1C1B1A17160100020000
:1053A0000400060008000A000C0010002000400065
:1053B00080000001000000500100000000000050CB
:1053C0000200000000000050040000000000005037
:1053D0000800000000000050100000000000005015
:1053E00020000000000000504000000000000050BD
:1053F0008000000005050607070303050707020FE5
:10540000000B09040D0F080F0D00000030540008B8
:105410000000002020000000FC520008505400084A
:1054200020000020800700000C530008000000004E
:1054300004000000040000000024F40030020020FA
:10544000007D0000010000000400000000000000DA
:04000005080000C12E
:00000001FF
