:020000040800F2
:10000000F8090020D5000008F9410008852F0008F4
:1000100000000000000000000000000000000000E0
:100020000000000000000000000000006543000820
:100030000000000000000000FD410008B943000876
:10004000E700000800000000E7000008E7000008E3
:10005000E7000008E7000008E7000008E7000008E4
:1000600000000000E7000008E7000008E7000008C3
:10007000E7000008E7000008A147000800000000B2
:10008000E70000080000000000000000FD46000836
:1000900000000000E700000865470008E7000008CE
:1000A000E7000008E7000008E7000008E700000894
:1000B000E700000800000000000000000000000051
:1000C0000348854600F058F900480047C55F00081E
:1000D000F80900200448804704480047FEE7FEE78F
:1000E000FEE7FEE7FEE7FEE7ED460008C100000878
:1000F000D2B201E00270401C491EFBD270470022C0
:10010000F6E710B513460A4604461946FFF7F0FF16
:10011000204610BDF8B502464A40D40F42004B00BD
:1001200052085B089A4202D20246084611464A002B
:1001300023D0C30D4A00DDB2120EAD1A202D35DAE0
:1001400049020126490AF6058A19002C00D05242BC
:1001500020214F1B1146B9402A411018C20D9A4266
:1001600021D0002C17D0012D08DCDA05801AD20F1F
:100170008019D207DBB200F0C6F8F8BDDA05801AA4
:10018000012340001B06C01880185A428018CA0F6D
:100190001043490007E04908C2071143DA05801AF5
:1001A00080194008801800F0A6F8F8BD610001220F
:1001B000511A001BF7E70122D2075140AAE701229A
:1001C000D2075040A6E7024670B54A40D30FDB077E
:1001D00040002DD04A002AD0010E140E0002120257
:1001E0000919400A520A8418E50104465443000ADA
:1001F000120A2E045043A4194219200CC543AA1810
:10020000120C0125AD03521C521912047F3924042B
:1002100000D0521C104301D44000491EC2B20C064B
:10022000C0092018401C4008802A02D003E00020AA
:1002300070BD40084000002900DA0020184370BD5E
:100240000122D207002800DB101A002900DB511A16
:10025000814201D201207047002070470122D2075D
:10026000002800DB101A002900DB511A814201D955
:10027000012070470020704710B5002296231146D8
:1002800000F041F810BDC20F410040020123400AB6
:10029000DB05D207090EC0187F2901DA002070475C
:1002A000962903DC9623591AC84001E09639884004
:1002B000002AF4D04042704770B50446002903D0AC
:1002C00000202022012310E0002801D00020C0439C
:1002D000C046C0460DE02546D5408D4205D30D46AB
:1002E0009540641B1D46954040191546521E002D31
:1002F000F1DC214670BD002904DA401C490001D11F
:1003000040084000704770B40024050C05D110244B
:10031000000402D1002921D01124050E01D10002D0
:100320000834050F01D10001241D850F01D1800083
:10033000A41C002801DB4000641C002908D02025F3
:100340002E1B0D46F540A14000D001212943084352
:1003500001061B1B000ADB1D02D5002070BC704784
:10036000DB05181880180029F8DA401C4900F5D17F
:1003700070BC400840007047064C0125064E05E061
:10038000E36807CC2B430C3C98471034B442F7D3B6
:10039000FFF79AFE746100089461000830B58C186C
:1003A0000278401C13071B0F01D10378401C12096F
:1003B00006D10278401C03E005780D70401C491CF2
:1003C0005B1EF9D101E00B70491C521EFBD1A1420A
:1003D000E6D3002030BD81B0009000990868CA685B
:1003E000801A8968884204DCFFE700998868086001
:1003F00005E00099CA680868801A0860FFE701B044
:10040000704781B0009000990868CA6880184968F0
:10041000884204DBFFE700994868086005E000991E
:10042000CA68086880180860FFE701B0704781B0AB
:10043000009000990868CA6880184968884204DDFD
:10044000FFE700998868086005E00099CA680868B5
:1004500080180860FFE701B0704781B000900099F4
:100460008868086001B0704783B002900298016804
:1004700042680120002300939142019001DB009823
:100480000190019803B0704781B0EFF3108072B60D
:100490000090FFE7FEE7000080B584B0039000F015
:1004A00099F90290039801900198401C002806D009
:1004B000FFE7FC480178019840180190FFE7FFE74B
:1004C00000F088F90299401A0199884201D2FFE7A9
:1004D000F6E704B080BDC0468AB0099008910020BC
:1004E0000790FFE7089800680799C840002800D1E6
:1004F00048E108980068079A012191400840069059
:100500000698002800D139E10898406801280FD0EA
:10051000FFE70898406802280AD0FFE7089840687B
:10052000112805D0FFE70898406812282CD1FFE772
:10053000099880680590079840000321814005983C
:10054000884305900898C168079840008140059845
:1005500008430590059809998860099840680590B6
:1005600007980121814005988843059008984068C4
:10057000102108400109079881400598084305901B
:10058000059809994860FFE70998C06805900798A1
:1005900040000321814005988843059008988168B0
:1005A00007984000814005980843059005980999EF
:1005B000C86008984068022805D0FFE7089840689E
:1005C000122820D1FFE709980799C9088900401827
:1005D000006A059007984007C00E0F2181400598DA
:1005E000884305900898016907984007C00E81402C
:1005F00005980843059005980999079AD208920032
:1006000089180862FFE7099800680590079841007B
:10061000032002468A40059991430591089949684B
:1006200001400798400081400598084305900598CF
:10063000099908600898C079C006002800D49CE099
:100640000798032188435049405805900798800730
:10065000C00E0F2181400598884305900998052117
:100660000907884203D1FFE70020049022E009989F
:100670004649884203D1FFE70120039017E009981B
:100680004349884203D1FFE7022002900CE0099918
:10069000404A0320052300939142019001D0009825
:1006A000019001980290FFE702980390FFE70398FA
:1006B0000490FFE7049907988007C00E81400598D1
:1006C0000843059005980799032291432E4A8850C4
:1006D0003148006805900699059888430590089868
:1006E0008079C007002805D0FFE7069905980843E0
:1006F0000590FFE70598284908602848006805909C
:100700000699059888430590089880798007002805
:1007100005D5FFE70699059808430590FFE705987A
:100720001E4908601E480068059006990598884390
:10073000059008988079C006002805D5FFE706993E
:10074000059808430590FFE7059815490860154886
:100750000068059006990598884305900898807967
:100760008006002805D5FFE70699059808430590FF
:10077000FFE705980B490860FFE7FFE70798401C73
:100780000790AFE60AB070476018024000040050BE
:1007900000080050000C00508018024084180240ED
:1007A000001802400418024083B0029001A80180A2
:1007B000684602700078002805D0FFE701A800888D
:1007C0000299886104E001A8008802998862FFE725
:1007D00003B07047054800687047C046314802784A
:1007E00002490868801808607047C046F405002078
:1007F00080B582B001A9002008700B4A116801235E
:100800001B021943116000F011F8002804D0FFE723
:1008100001A90120087002E000F048F8FFE701A8F4
:10082000007802B080BDC0460020024080B584B090
:10083000039002A9002008701A480078002829D0E7
:10084000FFE7514800680190164801787D20C000FC
:10085000FFF732FD01460198FFF72EFD01F020FA67
:10086000002812D1FFE70398032809D8FFE703996E
:100870000022D04300F041F803980B49086003E0E0
:1008800002A901200870FFE703E002A90120087017
:10089000FFE703E002A901200870FFE702A8007843
:1008A00004B080BD200200202402002082B0FFE7B7
:1008B0000B48026801210A43026000680840019069
:1008C0000198FFE7FFE7B9480268012109070A43D9
:1008D00002600068084000900098FFE702B070478F
:1008E0004010024080B582B0014601A80170007836
:1008F00040B205F095FA02B080BD80B584B00346E1
:1009000003A8037002910192007840B2029905F0A9
:100910009DFA04B080BD000080B584B00290A44967
:100920000868032252029043029A1043086002981A
:100930000121490288421ED1FFE7134801680620C1
:1009400048431249FFF7B8FC401C0190FFE71048EC
:100950000068400500280DD5FFE70198002804D065
:10096000FFE70198401E019003E003A903200870EF
:1009700005E0ECE7FFE703A900200870FFE703A804
:10098000007804B080BDC0461000002040420F0037
:100990001470004080B588B0079004A9002008704A
:1009A00003A90870079880788007002800D49DE08C
:1009B00002A9002008707D480068C000002810D4FB
:1009C000FFE7FFE779480268012109070A4302604F
:1009D0000068084001900198FFE702A90120087013
:1009E000FFE7734908680122120210430860FFF70D
:1009F000F1FE0590FFE76E480068C00500280CD4A2
:100A0000FFE7FFF7E7FE0599401A032804D3FFE745
:100A100004A90320087000E0EDE704A8007800288E
:100A200053D1FFE7F548006803210902084006900A
:100A30000698002817D0FFE7069807994969884269
:100A400011D0FFE7ED490868032212029043069097
:100A50000868012212041043086008689043086087
:100A600006980860FFE706A80078C007002818D09D
:100A7000FFE7FFF7AFFE0590FFE7E048006880075B
:100A800000280DD4FFE7FFF7A5FE0599401ADF49BE
:100A9000884204D3FFE704A90320087000E0ECE7D4
:100AA000FFE704A8007800280AD1FFE7D3490868C7
:100AB000032212029043079A52691043086003E030
:100AC000049803A90870FFE703E0049803A90870DD
:100AD000FFE702A80078012807D1FFE7334908683B
:100AE0000122120790430860FFE7FFE707980078AC
:100AF000C007002809D0FFE72E4908680322904369
:100B0000079A526810430860FFE70798007880064C
:100B100000280AD5FFE727490868032212039043FB
:100B2000079A926810430860FFE7079840784006EC
:100B3000002818D5FFE71F49086803229207904351
:100B4000079A126910430860079800690121890714
:100B5000884207D1FFE718490868012212041043B0
:100B60000860FFE7FFE7079840780007002818D5DE
:100B7000FFE710490868032292039043079AD2685E
:100B8000104308600798C06801218903884207D193
:100B9000FFE7F04908680122120410430860FFE7EC
:100BA000FFE703A8007808B080BDC0463C100240B3
:100BB00000700040541002400C10024080B584B018
:100BC000029001910298002804D1FFE703A90120B7
:100BD00008700CE101988849096807221140884291
:100BE00021D9FFE78449086807229043019A1043FE
:100BF0000860FFF7EFFD0090FFE77F4800680721DE
:100C00000840019988420DD0FFE7FFF7E3FD009906
:100C1000401A7E49884204D3FFE703A903200870E5
:100C2000E5E0EAE7FFE7029800788007002817D59B
:100C3000FFE7029800784007002807D5FFE7C4497E
:100C400008680722120310430860FFE7C0490868DC
:100C50000F2212029043029A926810430860FFE745
:100C600002980078C007002872D0FFE70298406819
:100C700001280BD1FFE7BA4800688003002804D49C
:100C8000FFE703A901200870B1E03DE00298406849
:100C900002280BD1FFE7B24800688001002804D485
:100CA000FFE703A901200870A1E02CE0029840684A
:100CB00000280BD1FFE7AA4800684005002804D4AB
:100CC000FFE703A90120087091E01BE0029840684B
:100CD00003280BD1FFE74A4800688007002804D4A6
:100CE000FFE703A90120087081E00AE0434800689B
:100CF0008007002804D4FFE703A90120087076E0EC
:100D0000FFE7FFE7FFE7FFE7914908680722904305
:100D1000029A526810430860FFF75CFD0090FFE7FD
:100D20008B4800683821084002994968C900884208
:100D30000DD0FFE7FFF74EFD0099401A3349884276
:100D400004D3FFE703A90320087050E0E8E7FFE7BA
:100D500001982949096807221140884221D2FFE7FA
:100D60002549086807229043019A10430860FFF75D
:100D700031FD0090FFE720480068072108400199F5
:100D800088420DD0FFE7FFF725FD0099401A1F4963
:100D9000884204D3FFE703A90320087027E0EAE7AD
:100DA000FFE702980078400700280AD5FFE7684966
:100DB0000868072212039043029AD2681043086021
:100DC000FFE700F03FF8624909680F221202114064
:100DD0008A090C4989581F221140C8400E490860F1
:100DE00009480068FFF722FD03A90870FFE703A880
:100DF000007804B080BDC046002002405C10024074
:100E00006010024084600008240200208913000062
:100E1000014800687047C0461000002080B582B0CD
:100E2000FFF7F6FF019002F057FE01460198090B0B
:100E30008A00034989581F221140C84002B080BD72
:100E4000C460000880B588B0414800688006400F43
:100E500000280FD1FFE7424800680721C902084077
:100E6000C10A01208840039003993C48FFF724FA07
:100E7000029069E03648006838210840082803D10C
:100E8000FFE7354802905EE03148006838210840AD
:100E900010283CD1FFE72F4801680322114006913A
:100EA0000068702108400009401C049006980190D9
:100EB000022812D0FFE7019803280FD1FFE7049919
:100EC0002548FFF7F9F90146224800687F221202FF
:100ED0001040000A484307900EE0FFE704991F48BE
:100EE000FFF7EAF901461B4800687F221202104012
:100EF000000A48430790FFE716480068400F401C6F
:100F0000059007980599FFF7D7F902901AE0104865
:100F1000006838210840202804D1FFE70120C003E1
:100F200002900EE00A48006838210840182804D1D1
:100F3000FFE77D200002029002E000200290FFE720
:100F4000FFE7FFE7FFE7FFE7029808B080BDC04674
:100F5000081002400C10024000127A000024F40035
:100F60000010024010B588B006900698002804D101
:100F7000FFE707A9012008702EE306980078C00754
:100F8000002800D188E0FC4800683821084004901F
:100F9000FA4800680321084003900498102804D1FF
:100FA000FFE70398032804D0FFE70498082810D12E
:100FB000FFE7F84800688003002809D5FFE7069896
:100FC0004068002804D1FFE707A90120087003E367
:100FD00061E0FFE70698406801210904884207D1D3
:100FE000FFE7EC49086801221204104308601DE085
:100FF000069840680521090488420BD1FFE7E549BE
:10100000086801229304184308600868120410431A
:1010100008600AE0DF490868012213049843086069
:101020000868920490430860FFE7FFE7FFE706982F
:101030004068002817D0FFE7FFF7CCFB0590FFE7DB
:10104000D4480068800300280CD4FFE7FFF7C2FBF8
:101050000599401A652804D3FFE707A90320087003
:10106000BAE2EDE716E0FFF7B5FB0590FFE7C948E8
:101070000068800300280CD5FFE7FFF7ABFB05995C
:10108000401A652804D3FFE707A903200870A3E2EC
:10109000EDE7FFE7FFE7FFE7069800788007002805
:1010A00000D4A3E0B4480068382108400490B34855
:1010B00000680321084003900498102804D1FFE73A
:1010C0000398022804D0FFE7049800283BD1FFE7EB
:1010D000B04800684005002809D5FFE70698C068B9
:1010E000002804D1FFE707A90120087074E2AA498B
:1010F00008687F2212029043069A52691202104336
:1011000008600498002811D1FFE7A248026807216F
:10111000C9028A43069B1B691A43026000680840A3
:10112000C10A9E48C8409E490860FFE79D48006884
:10113000FFF77CFB002804D0FFE707A90120087017
:101140004AE2FFE751E00698C06800282FD0FFE789
:10115000904908680722D2029043069A1269104308
:10116000086008680122120210430860FFF732FB92
:101170000590FFE787480068400500280CD4FFE78A
:10118000FFF728FB0599401A032804D3FFE707A9B6
:101190000320087020E2EDE77F4908687F221202F1
:1011A0009043069A52691202104308601CE0794984
:1011B00008680122120290430860FFF70BFB0590BC
:1011C000FFE774480068400500280CD5FFE7FFF7EB
:1011D00001FB0599401A032804D3FFE707A9032060
:1011E0000870F9E1EDE7FFE7FFE7FFE70698007811
:1011F0000007002856D5FFE7F94800683821084065
:10120000182810D1FFE7F94800688007002809D5A1
:10121000FFE706988069002804D1FFE707A90120AD
:101220000870D9E13DE00698806900281CD0FFE7EE
:10123000EE490868012210430860FFF7CBFA0590D9
:10124000FFE7EA480068800700280CD4FFE7FFF7B3
:10125000C1FA0599401A032804D3FFE707A9032020
:101260000870B9E1EDE71BE0E0490868012290430E
:101270000860FFF7AFFA0590FFE7DC4800688007D9
:1012800000280CD5FFE7FFF7A5FA0599401A0328B7
:1012900004D3FFE707A9032008709DE1EDE7FFE70E
:1012A000FFE7FFE7069800784007002800D4CAE06F
:1012B00002A900200870CA48006838210840202888
:1012C00010D1FFE7CC4800688007002809D5FFE768
:1012D00006988068002804D1FFE707A9012008705C
:1012E0007AE1AFE0C2480068C000002810D4FFE7F0
:1012F000FFE7BF480268012109070A43026000684E
:10130000084001900198FFE702A901200870FFE75B
:10131000B8480068C00500281DD4FFE7B549086833
:101320000122120210430860FFF754FA0590FFE70C
:10133000B0480068C00500280CD4FFE7FFF74AFA60
:101340000599401A032804D3FFE707A90320087072
:1013500042E1EDE7FFE7FFE706988068012806D144
:10136000FFE7A549086801221043086027E00698B6
:101370008068052818D103E0081002400C100240D4
:101380009D49086804221043086008680122104340
:10139000086013E000100240041002400024F40032
:1013A0001000002024020020934908680122904385
:1013B00008600868042290430860FFE7FFE7FFE742
:1013C00006988068002818D0FFE7FFF703FA059019
:1013D000FFE789480068800700280DD4FFE7FFF782
:1013E000F9F90599401A8549884204D3FFE707A90E
:1013F00003200870F0E0ECE717E0FFF7EBF9059049
:10140000FFE77D480068800700280DD5FFE7FFF75C
:10141000E1F90599401A7949884204D3FFE707A901
:1014200003200870D8E0ECE7FFE702A80078012865
:1014300007D1FFE76E490868012212079043086050
:10144000FFE7FFE7FFE70698C069002800D1BFE08B
:10145000634800683821084010287AD0FFE70698D2
:10146000C06902284ED1FFE75F49086801221206D1
:1014700090430860FFF7AEF90590FFE75A4800680F
:10148000800100280CD5FFE7FFF7A4F90599401A61
:10149000032804D3FFE707A9032008709CE0EDE7C9
:1014A00050490868574A1040069B1A6A5C6A2243F2
:1014B0009C6A24022243DC6A22431B6B1A431043BA
:1014C0000860494B18680122140620431860086818
:1014D000120710430860FFF77DF90590FFE74248C7
:1014E0000068800100280CD4FFE7FFF773F9059925
:1014F000401A032804D3FFE707A9032008706BE014
:10150000EDE725E03849086801221206904308609B
:10151000344908680322904308600868384A10403C
:101520000860FFF757F90590FFE72F480068800132
:1015300000280CD5FFE7FFF74DF90599401A03285D
:1015400004D3FFE707A90320087045E0EDE7FFE7B4
:101550003DE00698C069012804D1FFE707A90120F2
:10156000087039E01F480068039003980321084081
:101570000699096A884224D1FFE703987021084040
:101580000699496A88421CD1FFE703987F21090226
:1015900008400699896A0902884212D1FFE7039838
:1015A0001F21490408400699C96A884209D1FFE70A
:1015B00003980721490708400699096B884204D01F
:1015C000FFE707A90120087006E0FFE7FFE7FFE754
:1015D00007A900200870FFE707A8007808B010BD31
:1015E000081002400C10024000100240601002403F
:1015F0003C100240007000405C1002408913000063
:10160000FFFFFEEF8C80C11F80B584B00390029174
:1016100001920398006840681849084000906846A5
:101620004188029AD17000991F2212021140090AC2
:10163000029A517000993F221140029A91700088DD
:10164000400B029908700198002813D1FFE7029817
:10165000C07802F0D4FD0299C8700298407802F078
:10166000CEFD029948700298807802F0C8FD029978
:101670008870FFE7002004B080BDC0463FFFFF0038
:1016800080B584B00390029101920398006880684D
:10169000029948600398006800691E490840029951
:1016A00088600398006800681B4908400090009813
:1016B0003F2109040840000C0299087000987F211E
:1016C0000A021040000A029A5070009808400299DD
:1016D00088700098012189050840800D0299C87022
:1016E0000198002813D1FFE70298007802F087FDE7
:1016F000029908700298407802F081FD02994870C2
:101700000298807802F07BFD02998870FFE7002044
:1017100004B080BDFF7F00007F7F7F0080B582B076
:1017200001906946012008700198002873D0FFE7F6
:1017300001982921405C00280CD1FFE7019928225B
:101740000020885401991120C0024860019800F0DF
:1017500069F8FFE70199292202208854FFE70198E0
:101760000168CA2048620198016853204862FFE777
:10177000019802F073FD0146684601700078002868
:1017800038D1FFE7019801688869254A10408861CF
:101790000198826841690A43C1690A4301688869FE
:1017A0001043886101990869096808610198C16856
:1017B0000A040168086910430861019802F092FD6B
:1017C0000146684601700078002812D1FFE70198B1
:1017D0000168886907225207904388610198426A2C
:1017E000016A0A4381690A43016888691043886174
:1017F000FFE7FFE7FFE701980168FF204862FFE786
:1018000068460078002805D1FFE7019929220120C8
:101810008854FFE7FFE76846007802B080BDC04605
:10182000BFFF8FFB82B00190019800680C4988428D
:1018300013D1FFE70B4908680122D2031043086067
:10184000FFE709480268012189020A430260006833
:10185000084000900098FFE7FFE702B07047C046DD
:10186000002800405C1002403C10024080B58AB065
:10187000089007910692FFE708982821405C01280C
:1018800004D1FFE709A90220087028E1089928225D
:1018900001208854FFE7FFE7089929220220885495
:1018A000069800283DD1FFE7089800688069400647
:1018B000002801D5FFE703E007990020C870FFE783
:1018C0000798C069002801D1FFE700E0FFE707980B
:1018D000007802F0A4FC000400900798407802F021
:1018E0009EFC0146009809024018019007988078F4
:1018F00002F095FC0146019841180798C2789205BC
:10190000114302912021405C02F089FC01460298BB
:10191000090608430799CA691043496908430490B6
:1019200027E00898006880694006002801D5FFE795
:1019300003E007990020C870FFE70798C0690028F6
:1019400001D1FFE700E0FFE70799087800044A7833
:10195000120280188A788018CA78920510432022D3
:101960008A5C12061043CA6910434969084304900F
:10197000FFE707994868896908430390FFE70898DB
:101980000168CA2048620898016853204862FFE74E
:101990000798406A01210902884245D1FFE708986B
:1019A00001688869012213029843886108980168D8
:1019B0008869120390438861FEF70CFF0590FFE7EA
:1019C00008980068C068C00700281DD1FFE7FEF72F
:1019D00001FF0599401AB149884214D3FFE7FFE798
:1019E00008980168FF204862FFE708992922032030
:1019F0008854FFE70899282200208854FFE709A9A6
:101A0000032008706BE0DBE7049808990968086414
:101A10000398089909684864089801688869012250
:101A200012021043886146E0089801688869012223
:101A3000530298438861089801688869520390436B
:101A40008861FEF7C7FE0590FFE708980068C06848
:101A500002210840400800281DD1FFE7FEF7BAFE2A
:101A60000599401A8D49884214D3FFE7FFE708988B
:101A70000168FF204862FFE7089929220320885463
:101A8000FFE70899282200208854FFE709A90320CE
:101A9000087024E0D9E704980899096888640398D5
:101AA00008990968C8640898016888690122520287
:101AB00010438861FFE7FFE708980168FF2048624C
:101AC000FFE70899292201208854FFE70899282276
:101AD00000208854FFE709A900200870FFE709A843
:101AE00000780AB080BDC04680B588B006900591E8
:101AF0000492FFE706982821405C012804D1FFE703
:101B000007A90220087098E006992822012088542D
:101B1000FFE7FFE70699292202208854FFE706988D
:101B20000168CA2048620698016853204862FFE7AE
:101B3000069802F093FB014602A801700078002885
:101B400061D1FFE70498002828D1FFE706980068D4
:101B500080694006002801D5FFE703E005990020D1
:101B6000C870FFE70598007802F059FB0004009068
:101B70000598407802F053FB01460098090240188E
:101B800001900598807802F04AFB014601984018C0
:101B90000599C97889050843039018E006980068FC
:101BA00080694006002801D5FFE703E00599002081
:101BB000C870FFE70599087800044A781202801877
:101BC0008A788018C978890508430390FFE703984D
:101BD0001C490840069909680860069801688869E8
:101BE00001229204904388610598C268006902430B
:101BF00006980168886910438861069802F072FBB4
:101C000002A90870FFE7FFE706980168FF20486215
:101C1000FFE702A80078002805D1FFE706992922EE
:101C200001208854FFE7FFE7069928220020885406
:101C3000FFE7029807A90870FFE707A8007808B037
:101C400080BDC0467F7F7F0080B584B0029002983F
:101C50000168C868A0229043C860FEF7BBFD0190F0
:101C6000FFE702980068C068800600280DD4FFE7EF
:101C7000FEF7B0FD0199401A0849884204D3FFE7F6
:101C800003A90320087004E0EBE703A90020087013
:101C9000FFE703A8007804B080BDC046E903000058
:101CA00080B582B00190019802F05EFB02B080BD69
:101CB00085B003900291FFE703983C21405C012826
:101CC00004D1FFE704A90220087057E003993C22E1
:101CD00001208854FFE7FFE703993D220220885442
:101CE000039800684068019003980068806800903D
:101CF00003980068F44988420BD1FFE701980F214F
:101D000009058843019002984168019808430190B1
:101D1000FFE70198702188430190029801680198BB
:101D20000843019001980399096848600398006886
:101D3000E549884206D0FFE703980068E3498842F6
:101D40000ED1FFE7009880218843009002988168B7
:101D50000098084300900098039909688860FFE79D
:101D600003993D2201208854FFE703993C2200207B
:101D70008854FFE704A900200870FFE704A8007852
:101D800005B0704780B582B000900098002804D15B
:101D9000FFE701A90120087045E000983D21405C63
:101DA000002808D1FFE700993C22002088540098C1
:101DB00000F03EF8FFE700993D2202208854009988
:101DC00001C902F041FD0099482201208854FFE733
:101DD00000993E220120885400993F22885400999E
:101DE0004022885400994122885400994222885404
:101DF000009943228854FFE7FFE70099442201201D
:101E000088540099452288540099462288540099A4
:101E100047228854FFE700993D220120885401A9F8
:101E200000200870FFE701A8007802B080BD000024
:101E3000B0B594B0139000201290119010900F90B4
:101E40000E9013980068A04988423FD1FFE7FFE752
:101E5000534802680121C9020A4302600068084031
:101E60000D900D98FFE7FFE74F48026801210A43F4
:101E70000260006808400C900C98FFE701242002E3
:101E80000E90022003900F90002106911091119165
:101E900012900520000704900EA90591FEF71CFB87
:101EA000039A04980599069B65020E950F9210946B
:101EB00011931292FEF710FB069A0E20079011461E
:101EC000FEF71BFD0798FEF70DFD60E01398006814
:101ED0007E4988420CD1FFE7FFE7324802680221C1
:101EE0000A430260006808400B900B98FFE74DE042
:101EF000139800682749884216D1FFE7FFE7284872
:101F000002680121C9030A430260006808400A9080
:101F10000A98FFE71320029000221146FEF7EDFC1D
:101F20000298FEF7DFFC30E0139800681A498842F7
:101F30000DD1FFE7FFE71A480268012149040A436F
:101F400002600068084009900998FFE71CE01398B8
:101F500000681249884216D1FFE7FFE7104802687F
:101F6000012189040A43026000680840089008982B
:101F7000FFE71620019001210022FEF7BEFC019828
:101F8000FEF7B0FCFFE7FFE7FFE7FFE7FFE714B06E
:101F9000B0BDC04600200040004401400048014060
:101FA000401002403C1002403410024083B00190C7
:101FB00001983D21405C012804D0FFE702A90120DF
:101FC000087032E001993D2202208854019800688F
:101FD0003D49884206D0FFE7019800683B498842A6
:101FE00018D1FFE7019800688068394908400090DF
:101FF000009806280DD0FFE70098012109048842C7
:1020000007D0FFE7019801680868012210430860C3
:10201000FFE706E0019801680868012210430860A4
:10202000FFE702A900200870FFE702A8007803B0CC
:102030007047C04683B0019001983D21405C012863
:1020400004D0FFE702A90120087038E001993D2281
:102050000220885401980168C86801221043C860B2
:10206000019800681849884206D0FFE70198006887
:102070001649884218D1FFE7019800688068144922
:1020800008400090009806280DD0FFE70098012135
:102090000904884207D0FFE7019801680868012217
:1020A00010430860FFE706E0019801680868012214
:1020B00010430860FFE702A900200870FFE702A8AC
:1020C000007803B07047C046002C01400004004077
:1020D0000700010080B586B004900391FFE70498E3
:1020E0003C21405C012804D1FFE705A902200870CB
:1020F000ABE004993C2201208854FFE7FFE70499F4
:102100003D2202208854049800688068029002985A
:102110005049084002900298FF210902884302902A
:102120000298049909688860039800680190002863
:1021300075D0FFE70198102871D0FFE7019820289B
:102140006DD0FFE70198302869D0FFE7019840285B
:1021500058D0FFE7019850283AD0FFE7019860284F
:1021600043D0FFE7019870280DD0FFE701980121C7
:102170000903884206D0FFE70198012149038842FC
:1021800016D053E053E004980068039B99685A689E
:10219000DB6802F0E0FB0498006880680290029817
:1021A00077210843029002980499096888603EE00C
:1021B00004980068039B99685A68DB6802F0CBFBBF
:1021C00004980168886801229203104388602EE019
:1021D00004980068039A5168D26802F087FE049858
:1021E0000068502102F0D2FB21E004980068039AB5
:1021F0005168D26802F0F2FE04980068602102F093
:10220000C5FB14E004980068039A5168D26802F094
:102210006DFE04980068402102F0B8FB07E00498C6
:1022200000680399096802F0B1FB00E0FFE7049938
:102230003D2201208854FFE704993C220020885465
:10224000FFE705A900200870FFE705A8007806B0A1
:1022500080BDC04688FFCEFF80B584B0029001915A
:102260000092FFE702983C21405C012804D1FFE77F
:1022700003A90220087079E002993C2201208854C9
:10228000FFE7FFE70098002816D1FFE702980068F3
:10229000019B19685A68DB6802F050FE02980168D9
:1022A00088690C22904388610198826802980168CD
:1022B0008869104388614FE00098042818D1FFE72F
:1022C00002980068019B19685A68DB6802F0B0FE4A
:1022D00002980168886903229202904388610198FC
:1022E000806802020298016888691043886132E0C0
:1022F0000098082816D1FFE702980068019B19682A
:102300005A68DB6802F0CBFE02980168C8690C22AB
:102310009043C8610198826802980168C8691043B7
:10232000C86117E002980068019B19685A68DB6869
:1023300002F0EBFE02980168C86903229202904302
:10234000C86101988068020202980168C869104358
:10235000C861FFE7FFE7FFE7FFE702993C220020A3
:102360008854FFE703A900200870FFE703A800785E
:1023700004B080BD80B582B000900098002804D1E0
:10238000FFE701A90120087045E000983D21405C6D
:10239000002808D1FFE700993C22002088540098CB
:1023A00000F03DF8FFE700993D2202208854009993
:1023B00001C902F049FA0099482201208854FFE738
:1023C00000993E220120885400993F2288540099A8
:1023D000402288540099412288540099422288540E
:1023E000009943228854FFE7FFE700994422012027
:1023F00088540099452288540099462288540099AF
:1024000047228854FFE700993D220120885401A902
:1024100000200870FFE701A8007802B080BD81B0FD
:10242000009001B07047000080B596B014901391F1
:102430001398002805D1FFE714983E21405C0F90C7
:1024400034E01398042805D1FFE714983F21405C3D
:102450000E9028E01398082805D1FFE71498402132
:10246000405C0D901CE013980C2805D1FFE71498F0
:102470004121405C0C9010E01398102805D1FFE733
:1024800014984221405C0B9004E014984321405C76
:102490000B90FFE70B980C90FFE70C980D90FFE76F
:1024A0000D980E90FFE70E980F90FFE70F9811A977
:1024B00008701398002805D1FFE714984421405C68
:1024C0000A901CE01398042805D1FFE714984521D1
:1024D000405C099010E01398082805D1FFE7149894
:1024E0004621405C089004E014984721405C089025
:1024F000FFE708980990FFE709980A90FFE70A9814
:1025000010A9087011A80078012805D1FFE710A8CC
:102510000078012804D0FFE715A901200870DFE04A
:102520001398002805D1FFE714993E220220885411
:1025300038E01398042806D1FFE714993F220220BF
:10254000885407902CE01398082806D1FFE71499C7
:1025500040220220885406901FE013980C2806D1D0
:10256000FFE71499412202208854059012E0139845
:10257000102806D1FFE714994222022088540490C3
:1025800005E014994322022088540490FFE7049840
:102590000590FFE705980690FFE706980790FFE78C
:1025A0000798FFE71398002805D1FFE71499442204
:1025B000022088541EE01398042806D1FFE71499DE
:1025C000452202208854039012E01398082806D16F
:1025D000FFE71499462202208854029005E01499DE
:1025E0004722022088540290FFE702980390FFE7F9
:1025F0000398FFE7139801900C283BD801988100BD
:1026000001A040588746C0463D26000875260008B0
:1026100075260008752600084B2600087526000858
:10262000752600087526000859260008752600083A
:1026300075260008752600086726000814980168AA
:10264000C86802221043C86015E014980168C86881
:1026500004221043C8600EE014980168C86808227C
:102660001043C86007E014980168C868102210433E
:10267000C86000E0FFE7149800681399012202F097
:1026800051F9149800689349884206D0FFE71498DE
:1026900000682B49884218D1FFE7149800688068C9
:1026A000114908401290129806280DD0FFE71298A1
:1026B00001210904884207D0FFE7149801680868DF
:1026C000012210430860FFE706E0149801680868DB
:1026D000012210430860FFE715A900200870FFE7FA
:1026E00015A8007816B080BD0700010080B588B03D
:1026F00007900020069005900490039002900798A0
:1027000000680F49884219D1FFE7FFE70D480268CA
:1027100002210A4302600068084001900198FFE727
:1027200020200290022003900020049005900120B8
:102730000690054802A9FDF7CFFEFFE708B080BD6F
:1027400000040040341002400004005080B584B002
:10275000029001910298002804D1FFE703A901200B
:10276000087039E002983D21405C002808D1FFE75D
:1027700002993C2200208854029800F031F8FFE7CB
:1027800002993D22009202208854029901C902F068
:102790005BF8009A0298016808680823984308606B
:1027A000019B029801680868184308600299482351
:1027B0000120C85402993E23C85402993F23C854AB
:1027C00002994423C85402994523C8540299885455
:1027D00003A900200870FFE703A8007804B080BDBB
:1027E00081B0009001B0704780B58AB00890079121
:1027F00008983E21415C06A8017008993F22895C37
:1028000005AA117008994422895C04AA11700899DC
:102810004522895C03AA1170007801280FD1FFE7D7
:1028200005A8007801280AD1FFE704A8007801284C
:1028300005D1FFE703A80078012804D0FFE709A924
:102840000120087042E008993E220220885408992D
:102850003F22885408994422885408994522885474
:102860000898006800210122019202F05BF8019AA9
:1028700008980068042102F055F801980899096841
:10288000144A9142029010D0FFE708980168012095
:10289000114A9142029008D0FFE7089800680F495A
:1028A0004018414248410290FFE70298C0070028C3
:1028B00008D0FFE708980168486C0122D203104352
:1028C0004864FFE709A900200870FFE709A800781D
:1028D0000AB080BD002C01400044014000B8FEBF9A
:1028E00080B586B0049003910292FFE704983C21E2
:1028F000405C012804D1FFE705A902200870E0E050
:1029000004993C2201208854FFE7FFE702980190D8
:10291000142800D9CAE00198810001A040588746D8
:1029200075290008AD2A0008AD2A0008AD2A000864
:10293000A7290008AD2A0008AD2A0008AD2A000822
:10294000DD290008AD2A0008AD2A0008AD2A0008DC
:102950000F2A0008AD2A0008AD2A0008AD2A000899
:10296000452A0008AD2A0008AD2A0008AD2A000853
:10297000772A000804980068039902F01FF8049869
:102980000168886908221043886104980168886991
:102990000422904388610398026904980168886959
:1029A0001043886183E004980068039902F07CF882
:1029B0000498016888690122D30218438861049849
:1029C0000168886992029043886103980069020255
:1029D0000498016888691043886168E00498006879
:1029E000039902F0EBF804980168C86908221043C3
:1029F000C86104980168C86904229043C8610398BB
:102A0000026904980168C8691043C8614FE00498DE
:102A10000068039902F05EF904980168C869012210
:102A2000D3021843C86104980168C86992029043B0
:102A3000C86103980069020204980168C8691043DC
:102A4000C86134E004980068039902F0A1F9049881
:102A50000168486D08221043486504980168486D74
:102A60000422904348650398026904980168486D00
:102A7000104348651BE004980068039902F0DEF9F2
:102A800004980168486D0122D302184348650498F0
:102A90000168486D920290434865039800690202FC
:102AA00004980168486D1043486500E0FFE7FFE7C0
:102AB00004993C2200208854FFE705A900200870F3
:102AC000FFE705A8007806B080BD80B582B0009011
:102AD0000098002804D1FFE701A90120087045E013
:102AE00000983D21405C002808D1FFE700993C2276
:102AF00000208854009800F03DF8FFE700993D223F
:102B000002208854009901C901F09EFE00994822D4
:102B100001208854FFE700993E2201208854009943
:102B20003F228854009940228854009941228854B9
:102B3000009942228854009943228854FFE7FFE716
:102B40000099442201208854009945228854009914
:102B500046228854009947228854FFE700993D2275
:102B60000120885401A900200870FFE701A800781F
:102B700002B080BD81B0009001B0704780B590B0C8
:102B80000E900D910D98002805D1FFE70E983E217B
:102B9000405C0B9034E00D98042805D1FFE70E98B7
:102BA0003F21405C0A9028E00D98082805D1FFE7F6
:102BB0000E984021405C09901CE00D980C2805D12E
:102BC000FFE70E984121405C089010E00D98102816
:102BD00005D1FFE70E984221405C079004E00E9873
:102BE0004321405C0790FFE707980890FFE70898AB
:102BF0000990FFE709980A90FFE70A980B90FFE712
:102C00000B98012804D0FFE70FA901200870DDE030
:102C10000D98002805D1FFE70E993E220220885426
:102C200038E00D98042806D1FFE70E993F220220D4
:102C3000885406902CE00D98082806D1FFE70E99DD
:102C400040220220885405901FE00D980C2806D1E0
:102C5000FFE70E99412202208854049012E00D985B
:102C6000102806D1FFE70E994222022088540390D3
:102C700005E00E994322022088540390FFE7039851
:102C80000490FFE704980590FFE705980690FFE79A
:102C90000698FFE70D9802900C283BD80298810017
:102CA00001A040588746C046DD2C0008152D0008BD
:102CB000152D0008152D0008EB2C0008152D000817
:102CC000152D0008152D0008F92C0008152D0008F9
:102CD000152D0008152D0008072D00080E98016815
:102CE000C86802221043C86015E00E980168C868E1
:102CF00004221043C8600EE00E980168C8680822DC
:102D00001043C86007E00E980168C868102210439D
:102D1000C86000E0FFE70E9800680D99012200925C
:102D200001F000FE00980E9909682A4A914201902C
:102D300010D0FFE70E9801680120274A91420190C8
:102D400008D0FFE70E9800682449401841424841E6
:102D50000190FFE70198C007002808D0FFE70E9810
:102D60000168486C0122D20310434864FFE70E98C3
:102D700000681849884206D0FFE70E980068184995
:102D8000884218D1FFE70E9800688068154908400E
:102D90000C900C9806280DD0FFE70C98012109042F
:102DA000884207D0FFE70E980168086801221043A7
:102DB0000860FFE706E00E980168086801221043EA
:102DC0000860FFE70FA900200870FFE70FA8007850
:102DD00010B080BD002C01400044014000B8FEBF8F
:102DE000000400400700010080B582B00090009808
:102DF000002804D1FFE701A9012008704AE00098EB
:102E00008069002801D0FFE700E0FFE700988421F7
:102E10004058002808D1FFE70099802200208854FC
:102E2000009800F03BF8FFE70099842224208850A6
:102E3000009801680868012290430860009802F039
:102E40009FFA012804D1FFE701A90120087021E0C1
:102E50000098806A002804D0FFE7009802F08EF9FD
:102E6000FFE70098016848680922D2029043486051
:102E70000098016888682A22904388600098016859
:102E80000868012210430860009802F025FA01A9A1
:102E90000870FFE701A8007802B080BD80B588B057
:102EA00007900020069005900490039002900798E8
:102EB00000681649884226D1FFE7FFE714480268F8
:102EC000012149040A43026000680840019001980A
:102ED000FFE7FFE70F48026801210A43026000682C
:102EE000084000900098FFE70C2002900220039019
:102EF000002004900590012006900520000702A9FB
:102F0000FDF7EAFAFFE708B080BDC0460044004084
:102F10003C1002403410024080B584B01848019043
:102F2000042101220292FDF73FFC0198029A02213E
:102F3000FDF73AFC0198029A1146FDF735FC02981C
:102F400002F0E4FE182002F0E1FE292002F0DEFE8D
:102F5000032002F0DBFE00200390FFE703981F2808
:102F60000BDCFFE703A800780021A02202F030FF6D
:102F7000FFE70398401C0390F0E704B080BDC04613
:102F800000040050FFE7FEE780B58AB009900020FA
:102F900008900999009108684968FDF70CF90099B3
:102FA0004861099905918868019048690490896988
:102FB0000391FDF700F901460198FDF704F9049922
:102FC000024605980292C068FDF7FDF80146029896
:102FD000FDF7A0F80399024605980792006906904C
:102FE0000846FDF797F801460498FDF7E4F80599BF
:102FF000C969FDF78FF801460698FDF7E4F8014628
:103000000798FDF787F808900998C06B00280AD048
:10301000FFE70998C16B4069884701460898FDF7AA
:10302000D2F80890FFE709998869C8610999486949
:1030300088610998406A0899FDF76CF8089008982B
:103040000999896AFDF7FCF8002804D1FFE709987F
:10305000806A08900CE008980999C96AFDF7FEF8A3
:10306000002804D1FFE70998C06A0890FFE7FFE74E
:103070000898099948620AB080BD81B00090009913
:103080000020086000994860009A7F21C9055163BB
:10309000009A9061009AD061009A9060009AD06086
:1030A000009A1061009A5061009A5062009A9162F1
:1030B000009AD062009A1163009988630099C863EE
:1030C00001B0704780B598B002F072FF002800D0C0
:1030D000FBE100F0CBFC0146FD480170007840B2F6
:1030E00017903E2800D9EEE11798810001A04058C2
:1030F0008746C046F1310008C7340008073200088F
:10310000C734000851330008C7340008C73400082A
:10311000C734000859330008C7340008C734000812
:10312000C73400081D320008C734000833320008D5
:10313000C734000849320008C73400085F3200086D
:10314000C7340008C7340008C7340008C734000873
:10315000C734000861330008C7340008C7340008CA
:10316000C734000875320008C73400088B320008E5
:10317000C7340008F9320008C73400080F330008CC
:10318000C7340008B3340008C7340008C734000847
:10319000C7340008C7340008C7340008C734000823
:1031A000C734000825330008C73400083B33000843
:1031B000C7340008A1320008C7340008B73200083D
:1031C000C73400084F340008C7340008C73400086B
:1031D000C734000881330008C734000827340008CA
:1031E000C7340008CD320008C7340008E3320008B5
:1031F000C4481690FDF705F916980068B54959229C
:103200009200885060E1BF481590FDF7FAF81598D4
:103210000068B04959229200885055E1B94814908D
:10322000FDF7D9F814980068AA49592292008850ED
:103230004AE1B4481390FDF7CEF813980068A54909
:103240005922920088503FE1AD481290FDF7D9F81D
:10325000129800689F492D22D200885034E1A84876
:103260001190FDF7CEF8119800689A492D22D200EE
:10327000885029E1A2481090FDF7ADF81098006839
:1032800094492D22D20088501EE19D480F90FDF7F1
:10329000A2F80F9800688F492D22D200885013E1C0
:1032A00096480E90FDF7ADF80E98006889495B22AC
:1032B0009200885008E191480D90FDF7A2F80D9812
:1032C000006884495B2292008850FDE08B480C9096
:1032D000FDF781F80C9800687E495B2292008850C7
:1032E000F2E086480B90FDF776F80B980068794974
:1032F0005B2292008850E7E07F480A90FDF781F852
:103300000A9800687349172212018850DCE07A4855
:103310000990FDF776F8099800686E4917221201A6
:103320008850D1E074480890FDF755F80898006877
:103330006849172212018850C6E06F480790FDF7D0
:103340004AF8079800686349172212018850BBE0C9
:10335000604901200870B7E05E4900200870B3E0C2
:1033600064480690FDF763F806980068594948706C
:10337000012008705A49C87BFB221040C873A3E0A3
:1033800054480078002804D1FFE752490120087012
:10339000FFE75048407800280BD1FFE751480590DF
:1033A000FDF745F8059800684A495D22920088506B
:1033B00038E0494800780490032831D80498810007
:1033C00001A040588746C046D9330008DB330008C7
:1033D0001D3400081F34000823E043484178491C8D
:1033E000417040783C2804DBFFE73F4900204870EB
:1033F000FFE73E48FDF731F83B49039108784978EB
:1034000000F022FC03993A480122FEF76DFB0028E8
:1034100003D0FFE7FDF738F8FFE702E001E000E046
:10342000FFE7FFE750E02B480078002804D1FFE7D2
:10343000284901200870FFE72A480290FCF7F7FFAF
:103440000298006823495D22920088503CE02148A0
:103450000078002804D1FFE71E4901200870FFE72B
:103460001C484078022823D1FFE71C480190FCF754
:10347000DEFF01980068C10F411801229143401AF4
:1034800001280AD1FFE716490878FD22104008708C
:10349000487C02221043487409E01149487CFD220F
:1034A000104048740878022210430870FFE7FFE7D5
:1034B0000AE008484078012804D1FFE706490120C6
:1034C0000870FFE700E0FFE7FFE718B080BDC046E7
:1034D00002000020A4000020F0050020740000205D
:1034E000AC05002084000020DC05002094000020B2
:1034F000C0030020540000202400002064000020AD
:10350000440000203400002080B58AB00990089162
:10351000079206930020059004900390029001907A
:103520000090FFE70098099988420BDAFFE70798B7
:103530000099C900401802F0CDFCFFE70098401C3C
:103540000090EFE700200090FFE70098089988427C
:103550000BDAFFE706980099C900401802F0BAFCA0
:10356000FFE70098401C0090EFE700200290012147
:1035700003910090FFE700980999884212DAFFE76B
:1035800007980099C9004018808801900798009911
:10359000C900405801A9FCF79FFFFFE70098401CB5
:1035A0000090E8E701200290002003900490009032
:1035B000FFE700980899884212DAFFE70698009919
:1035C000C90040188088019006980099C9004058A9
:1035D00001A9FCF781FFFFE70098401C0090E8E795
:1035E0000AB080BD10B58AB0089007910692059385
:1035F0000898042804D8FFE70798052804D3FFE7B4
:1036000009A90020087060E008983249086007980E
:103610003149086000200490FFE704980899884227
:103620000FDAFFE70498C4002D4B1919069A1019F8
:1036300012591A5140684860FFE70498401C0490F2
:10364000EBE700200390FFE70398079988420FDA21
:10365000FFE70398C400214B1919059A1019125954
:103660001A5140684860FFE70398401C0390EBE75D
:10367000FB48029000200190FFE701980F281AD81C
:10368000FFE70299019802010120885402980199EC
:1036900009014118002048600299019A1201891815
:1036A00088600299019A120189180873FFE701984E
:1036B000401C0190E1E708980799069A059BFFF7DF
:1036C00023FF09A901200870FFE709A800780AB0C4
:1036D00010BDC04604000020080000209403002014
:1036E0007002002081B00090009800680069009985
:1036F000898808404142484101B0704782B001903A
:10370000684601700078002805D1FFE70199888894
:103710000968886104E00199888809688862FFE780
:1037200002B07047B0B586B005A900200870FFE769
:1037300005A80078C6490968884228DAFFE7C64824
:10374000019000788101C6480290411805A80390B5
:10375000027812018918097B490004910078C100A0
:10376000C1484018FFF7BEFF019B0299039A044627
:10377000049820431B789B01C918127812018918FC
:103780000873FFE70598401C05A90870D0E705A954
:1037900000200870FFE705A80078AD490968884255
:1037A00000DB26E1AC4800788101AD48401805A94E
:1037B000097809014018007B0007002854D1FFE771
:1037C000A54A10788101A648431805A90C78240160
:1037D0001C1900236360127892018018097809018E
:1037E00040188068002824D1FFE79B4800788101B9
:1037F0009B48411805A80078020101208854994887
:103800000078C007002813D0FFE705A80278914888
:103810000068504390490978401880008B01904916
:10382000C9181201895C401840B200F03FF9FFE767
:10383000FFE78948007881018948401805A909787F
:1038400009014018806809280DDCFFE782480078EC
:1038500081018348401805A9097809014118886841
:10386000401C8860FFE7BEE07B48007881017C480F
:10387000401805A9097809014018007B0F2108406C
:103880000F2800D0AEE074480078810174484018D9
:1038900005A90978090140188068092827DCFFE795
:1038A0006D48007881016E48401805A90978090122
:1038B0004018806800281AD0FFE7674B187880010D
:1038C00067490C1805A80278150103226255027891
:1038D0006048006850431B78C01880009B01C918DD
:1038E0001201895C401840B200F0E0F827E05A4825
:1038F000007881015A48401805A909780901401843
:10390000406800281AD1FFE7534B187880015449CA
:103910000C1805A8027815010022625502784D485E
:10392000006850431B78C01880009B01C918120121
:10393000895C401840B200F0B9F8FFE7FFE7464A5B
:10394000107881014648431805A90C7824011C19F8
:103950000023A360127892018018097809014018A9
:103960004068F9280DDCFFE73B48007881013C48BE
:10397000401805A90978090141184868401C4860A9
:103980002FE03548007881013548401805A90978AD
:10399000090140184068FA2822D1FFE72E4B187819
:1039A00080012F490A1805A8047824011419D2228D
:1039B00062601A7892018C18027815010222625511
:1039C00002782448006850431B78C01880009B018F
:1039D000C9181201895C401840B200F067F8FFE78F
:1039E000FFE7FFE7FFE7FFE70598401C05A9087020
:1039F000D1E618480068012828DBFFE71649087857
:103A0000401C08700878134A1268521E1040087053
:103A100005A900200870FFE705A800780D4909688E
:103A2000884212DAFFE705A80178CA000B4880181F
:103A3000094A1278891A4A425141FFF75FFEFFE7AF
:103A40000598401C05A90870E6E7FFE706B0B0BD81
:103A500004000020080000209003002094030020B0
:103A600090020020BC0300207002002081B0694653
:103A7000FF2008701749887AC97A884211D0FFE779
:103A8000144A907A105C69460870907A411CC8B25A
:103A900091720A2804D3FFE70E4900208872FFE7DD
:103AA000FFE76846007840B201B0704781B06946D0
:103AB00008700098074AD17A5054D07A411CC8B295
:103AC000D1720A2804D3FFE702490020C872FFE739
:103AD00001B07047CC0500200248006807210903A7
:103AE000084070470810024081B0009000980278AA
:103AF000B94900208854009A5278885401B0704720
:103B000010B586B0024605A802700491007800281E
:103B100016D4FFE705A80078092811DCFFE705A8FF
:103B200002783F498A5CF7210A4004990B78AA4938
:103B3000CA5402783C48805C049A527888541DE04C
:103B400005A8019000780A210291FCF7B5FB0198C5
:103B50000B460299324AD25C08231A43049B1C7814
:103B60009D4B03931A550078FCF7A6FB0A46039970
:103B70002D48805C049A52788854FFE706B010BD47
:103B800081B0009000984000264A135C92490020C2
:103B9000C854009B5B00D2185278885401B070471B
:103BA00070B582B001906846017001980A2801D36F
:103BB000FFE733E06846007800281CD4FFE768463A
:103BC0000078092817DCFFE76846027814498B5C07
:103BD00001994900134A545C7F490D5D0826354020
:103BE0002B430B5503781048C05C019B5B00D21837
:103BF0005278885412E00A48827A019841000948B4
:103C0000435C7549CC5C08252C402243CA54019A78
:103C100052008018427800208854FFE702B070BD3F
:103C20005C610008EE6000086761000880B582B042
:103C3000014601A8017000780249FFF761FF02B058
:103C400080BDC046E460000880B586B0024605A885
:103C50000190027004AA0292117000780A21039167
:103C6000FCF72AFB01460020FFF79AFF0198039911
:103C70000078FCF721FB0120FFF792FF02980399DF
:103C80000078FCF719FB01460220FFF789FF029834
:103C900003990078FCF710FB0320FFF781FF06B0C3
:103CA00080BD80B582B000202D210191FFF778FF03
:103CB00001990120FFF774FF01990220FFF770FFBF
:103CC00001990320FFF76CFF02B080BD80B582B080
:103CD000014601A8017000780249FFF711FF02B008
:103CE00080BDC046E660000880B582B0014601A8EC
:103CF000017000780249FFF703FF02B080BDC046A3
:103D0000E860000880B582B017480190FFF7ECFE2C
:103D10000198801CFFF7E8FE02B080BD80B584B03A
:103D2000014603A801700078C7281ADCFFE703A842
:103D3000029000780A210091FCF7BEFA08460A4971
:103D40000191891CFFF7DCFE009902980078FCF7CE
:103D5000B3FA01990246029802700078FFF7D0FE8C
:103D6000FFE704B080BDC046EA60000880B582B0BD
:103D7000014601A8017000780249FFF7C1FE02B0B8
:103D800080BDC0460261000880B50420FFF7F8FE40
:103D900080BD80B582B0014601A801700178042081
:103DA000FFF7FEFE02B080BD80B582B0002001901A
:103DB000FFE701981F280CDCFFE701980649095C22
:103DC000C0B2A02202F004F8FFE70198401C019065
:103DD000EFE702B080BDC046AC05002080B58EB0D4
:103DE00000200D900C900B900A900990FFE732484C
:103DF000026804210A43026000680840089008989D
:103E0000FFE7FFE72C48026820210A4302600068B0
:103E1000084007900798FFE7FFE72748026801215D
:103E20000A4302600068084006900698FFE7FFE733
:103E30002148026802210A43026000680840059098
:103E40000598FFE7FFE71C48026808210A43026063
:103E50000068084004900498FFE718480990032080
:103E600001900A90002002900B90154809A9039137
:103E7000FCF732FB019A02980399124B09930A92BC
:103E80000B9005200007FCF727FB019A0298039985
:103E90000D4B09930A920B900C48FCF71DFB019AFD
:103EA000029803990F2309930A920B900848FCF794
:103EB00013FB0EB080BDC04634100240C0E00000CD
:103EC00000080050F39C0000DFFF000000040050D9
:103ED000000C005080B594B0002002901390129016
:103EE000119010900F900E9004A82821FCF707F96C
:103EF000029920480390204A026081607F22C260BC
:103F0000FF22026141618161C16101229207026267
:103F10004162FDF703FC002803D0FFE7FCF7B4FA89
:103F2000FFE70FA80C2101700022019242708270FD
:103F30001092129213920EA9012008704870887096
:103F4000CA7004A90A704A708A7005920792089292
:103F500009920A920B922023C85400020D90054842
:103F6000FDF784FC002803D0FFE7FCF78DFAFFE79C
:103F700014B080BDC00300200028004080B588B088
:103F800000210091079106910591049103910291FE
:103F900001911648164A0260092242608160154A62
:103FA000C26001618161FDF7EDFE002803D0FFE7EB
:103FB000FCF76AFAFFE70D48FEF787FD002803D0FB
:103FC000FFE7FCF761FAFFE7602001900022029210
:103FD00003920592054801A9FEF782FC002803D050
:103FE000FFE7FCF751FAFFE708B080BD3804002076
:103FF00000200040FFF9000080B58EB00021019143
:104000000D910C910B910A910991089107910691DC
:104010000591049103912B4802902B4A02609F2244
:1040200042608160294AC260016141618161FDF79E
:10403000A9FE002803D0FFE7FCF726FAFFE70120DE
:1040400000030A901F480AA9FEF744F8002803D08D
:10405000FFE7FCF719FAFFE71A48FEF78BF900288B
:1040600003D0FFE7FCF710FAFFE700200790089065
:104070000990144807A9FDF71BFE002803D0FFE7AD
:10408000FCF702FAFFE70022039201200490059258
:10409000042006900B4803A9FEF7DEF8002803D0A1
:1040A000FFE7FCF7F1F9FFE7064803A90422FEF752
:1040B000D3F8002803D0FFE7FCF7E6F9FFE70EB0DE
:1040C00080BDC046EC030020002C0140FFFF000033
:1040D00080B590B0002101910F910E910D910C913E
:1040E0000B910A910991089107910691059104910C
:1040F000039102912A482B4A02602B4A4260816058
:104100002A4AC26001618161FDF73CFE002803D0AC
:10411000FFE7FCF7B9F9FFE7012000030C90204806
:104120000CA9FDF7D7FF002803D0FFE7FCF7ACF997
:10413000FFE71B48FEF7C9FC002803D0FFE7FCF7A8
:10414000A3F9FFE716480821FEF700FB002803D07B
:10415000FFE7FCF799F9FFE7002009900B90104862
:1041600009A9FDF7A5FD002803D0FFE7FCF78CF9AE
:10417000FFE760200290002003900490069008481A
:1041800002A90422FEF7ACFB002803D0FFE7FCF7EE
:104190007BF9FFE70248FEF7A9FA10B080BDC046E0
:1041A000D004002000040040E70300009CF9000058
:1041B00080B582B00E4800900E490160E1214902AD
:1041C0004160002101918160C16001610C22426166
:1041D0008161C161016241628162FEF705FE0028D2
:1041E00003D0FFE7FCF750F9FFE702B080BDC046FF
:1041F0001C05002000440040FFE7FEE7704782B046
:1042000001A90870087802090A205043009000981C
:1042100009780F2211404018C0B202B0704783B035
:1042200002A9087000200190029869460870FFE713
:10423000684600780A2808D3FFE70198401C0190DF
:1042400000980A3869460870F2E701980007000EE6
:1042500069460978084303B07047000080B584B010
:10426000039001A90020087003980068C068400608
:10427000002830D4FFE703980168C8688022104303
:10428000C860FCF7A7FA0290FFE703980068C168CE
:10429000002049060029009007D4FFE701A8007814
:1042A000C01E411E88410090FFE70098C00700280B
:1042B00010D0FFE7FCF78EFA0299401A08498842AD
:1042C00007D3FFE701A90320087003992922885426
:1042D000FFE7DAE7FFE701A8007804B080BDC04639
:1042E000E903000080B582B00190694600200870A3
:1042F0001A490868802290430860194800688006BF
:1043000000280ED4FFE70198FDF79EFC002807D097
:10431000FFE7019929220320885469460870FFE7C6
:1043200017E00F4908682022904308600198FDF7C4
:104330008BFC002807D0FFE701992922032088542D
:1043400069460870FFE706490868202210430860A4
:10435000FFE76846007802B080BDC0460C280040E8
:10436000182800407047000080B584B00290029881
:10437000401E000E002803D0FFE70120039011E04B
:104380000298401E0949086000200190C0430321A3
:1043900001F05CFD019806490860064A072111609A
:1043A0000390FFE7039804B080BDC04614E000E02E
:1043B00018E000E010E000E080B5FCF70FFA80BDE7
:1043C00080B58AB099480078002805D1FFE704201D
:1043D000002101F037FB04E00520002101F032FB51
:1043E000FFE7924840780990002808D0FFE7099835
:1043F000012829D0FFE70998022836D046E0092095
:10440000002101F01FFB8948007800280BD1FFE74D
:1044100086482F21C900405CFFF780FC0E20002158
:1044200001F010FB0AE081485D218900405CFFF744
:1044300075FC0F20002101F005FBFFE77C49C87BDC
:1044400008221043C87322E008200021089101F0DF
:10445000F9FAFFF757FC08990F2001F0F3FA7449B5
:10446000C87BF7221040C87311E007200021079194
:1044700001F0E8FAFFF746FC07990F2001F0E2FA95
:104480006B49C87BF7221040C87300E0FFE767481C
:104490004078022861D1FFE766480068002811D102
:1044A000FFE719200021069101F0CCFAFF20FFF769
:1044B00070FC0699152001F0C5FA0699122001F04A
:1044C000C1FA40E05B480068C10F411801229143E6
:1044D000401A01281BD1FFE756480168C80F081889
:1044E000FE2302461A40891A40084018C0B2FFF75E
:1044F00050FC15200021059101F0A4FA0599172020
:1045000001F0A0FA0599112001F09CFA1AE049483F
:104510000168C80F0818FE2302461A40891A40088D
:104520004018C0B2FFF735FC12200021049101F0C1
:1045300089FA0499172001F085FA0499142001F0F2
:1045400081FAFFE7FFE739480078002804D1FFE748
:104550003848FBF782FFFFE70FE0122000210391AC
:1045600001F070FA0399182001F06CFA03991520F4
:1045700001F068FAFFF708FCFFE72C480190592189
:10458000890041180A2001F05DFA01982D21C90027
:1045900041180B2001F056FA01985B21890041185F
:1045A0000C2001F04FFA01981721090141180D2044
:1045B00001F048FA204800780290032829D8029890
:1045C000810001A040588746D9450008E34500080E
:1045D0000F460008114600080120002101F032FAC0
:1045E00018E01648FBF740FF002808D0FFE7134803
:1045F000FBF707FF0220002101F024FA06E00F4834
:10460000FBF72BFF0C4900200870FFE702E001E0F8
:1046100000E0FFE705480078002804D1FFE70649DD
:104620000020087000E0FFE70AB080BDA400002071
:10463000AC05002074000020F0050020940000204C
:1046400080B59AB00DA802903421FBF758FD0020E8
:1046500000900C900B900A9009900890079006909B
:10466000059004900390012001904002FCF754F95A
:10467000009A019902980A230D930B02109311924C
:104680004023129313910223149315931692082238
:1046900017924A04189249071991FCF763FC002805
:1046A00003D0FFE7FBF7F0FEFFE7072009900221A8
:1046B0000A9100200B900C9009A8FCF77FFA0028C3
:1046C00003D0FFE7FBF7E0FEFFE701204104039181
:1046D0004002089003A8FCF75DF9002803D0FFE72B
:1046E000FBF7D2FEFFE71AB080BD00000120C00634
:1046F000014908607047C04608ED00E080B51748E2
:10470000006800680069022108404008002824D0A1
:10471000FFE7124800680068C068022108404008AE
:10472000002819D0FFE70D480068006880698007FD
:1047300000280AD1FFE70A480268116801231943DB
:1047400011600421FEF750F8FFE704480068016893
:104750000220C0430861FFE7FFE780BD140000208E
:10476000D004002080B50D48006800680069C007CB
:10477000002812D0FFE7094800680068C068C00739
:10478000002809D0FFE70548006801680120C04300
:10479000086101F05DFCFFE7FFE780BD1800002025
:1047A00080B582B0204800680069022108404008B6
:1047B000002824D0FFE71D4A11681D480160002130
:1047C000116001681B48FBF777FDFBF755FD0146BB
:1047D000194801600168194801904160FEF7D4FB57
:1047E0000199886B496AFBF7EEFCFBF74CFD144915
:1047F00008600D4801680220C0430861FFE70A48CD
:104800000068006904210840800800280AD0FFE7FA
:104810000B4800680B490860034801680420C04346
:104820000861FFE702B080BDEC030020242C0140AA
:10483000B4030020801A06006C0200202C02002025
:104840001C0000202420004083B0029001910298B7
:10485000006800900298D649884205D0FFE7029888
:104860002E4988420AD1FFE70098702188430090C2
:1048700001984168009808430090FFE70298CC49EE
:10488000884214D0FFE70298244988420FD0FFE7FE
:104890000298234988420AD0FFE70298C549884216
:1048A00005D0FFE70298C44988420BD1FFE7009882
:1048B00003210902884300900198C16800980843C9
:1048C0000090FFE7009880218843019949690843D7
:1048D0000090009802990860019880680299C86267
:1048E00001980068029988620298F74988420AD0C4
:1048F000FFE70298F549884205D0FFE70298F4499E
:10490000884205D1FFE70198006902990863FFE733
:1049100002990120486103B07047C046000400407E
:104920000020004084B0039002910192029A1F215E
:104930000A40012090400090009B039A106A98431F
:104940001062019A0298084082400399086A104355
:10495000086204B0704785B00490039102920193FD
:104960000498806800900098FF2109028843009015
:1049700003990298019A12021043014300980843D8
:10498000009000980499886005B0704783B0029049
:1049900001910298806800900098074908400090B3
:1049A0000198009908430721084300900098029954
:1049B000886003B07047C0468FFFCFFF85B004907A
:1049C00003910499086A0122904308620498006ADE
:1049D00001900498406800900498806902900298C1
:1049E000B849084002900298032188430290039836
:1049F00001680298084302900198022188430190BF
:104A0000039881680198084301900498DD49884221
:104A10000AD0FFE70498DC49884205D0FFE70498F4
:104A2000DA4988420ED1FFE70198082188430190B6
:104A30000398C168019808430190019804218843B4
:104A40000190FFE70498CF4988420AD0FFE7049815
:104A5000F849884205D0FFE70498F749884214D105
:104A6000FFE7009801210A02904300900098490254
:104A70008843009003984169009808430090039888
:104A80008169009808430090FFE700980499486006
:104A900002980499886103984068049948630198D2
:104AA0000499086205B0704785B004900391049999
:104AB000086A1022904308620498006A01900498E2
:104AC000406800900498806902900298AC490840C0
:104AD000029002980321090288430290039800681B
:104AE0000102029808430290019820218843019016
:104AF0000398806801010198084301900498F849DF
:104B0000884212D0FFE70498F649884204D1FFE7B3
:104B10000020002809D1FFE70498F349884213D107
:104B2000FFE7012000280FD1FFE70198802188438B
:104B300001900398C0680101019808430190019811
:104B4000402188430190FFE70498E54988420AD054
:104B5000FFE70498E349884205D0FFE70498E2495B
:104B6000884216D1FFE7009801218A029043009005
:104B70000098C9028843009003984069810000981A
:104B800008430090039880698100009808430090D2
:104B9000FFE7009804994860029804998861039897
:104BA00040680499886301980499086205B07047C9
:104BB000002C0140004401400048014085B00490B1
:104BC0000391049A106A01210B0298431062049821
:104BD000006A01900498406800900498C0690290AF
:104BE0000298934A10400290029803229043029048
:104BF0000398026802981043029001984902884382
:104C0000019003988068010201980843019004987C
:104C1000F049884212D0FFE70498B249884204D193
:104C2000FFE70020002809D1FFE70498AE49884239
:104C300014D1FFE70120002810D1FFE701980121DE
:104C4000CA02904301900398C06802020198104381
:104C500001900198890288430190FFE70498DD499B
:104C600088420AD0FFE704989E49884205D0FFE7B2
:104C700004989D49884216D1FFE7009801210A0354
:104C8000904300900098490388430090039840693E
:104C90000101009808430090039880690101009881
:104CA00008430090FFE7009804994860029804992F
:104CB000C861039840680499C86301980499086220
:104CC00005B070478FFFFEFF002C014000440140FB
:104CD0000048014085B004900391049A106A0121B4
:104CE0000B03984310620498006A0190049840688E
:104CF00000900498C06902900298784A104002908F
:104D00000298032212029043029003980068020264
:104D10000298104302900198490388430190039838
:104D2000806801030198084301900498A9498842CA
:104D30000AD0FFE704986B49884205D0FFE7049842
:104D4000694988420CD1FFE7009801218903884313
:104D50000090039840698101009808430090FFE7A4
:104D600000980499486002980499C86103984068C3
:104D70000499086401980499086205B07047C04618
:104D8000FF8FFFFE002C014000440140004801401D
:104D900085B004900391049A106A01210B04984392
:104DA00010620498006A019004984068009004988A
:104DB000406D029002981E4A1040029003980268CB
:104DC0000298104302900198490488430190039887
:104DD0008068010401980843019004987D49884245
:104DE0000AD0FFE704983F49884205D0FFE70498BE
:104DF0003D4988420CD1FFE700980121090488430E
:104E00000090039840690102009808430090FFE772
:104E1000009804994860029804994865039840688E
:104E20000499886501980499086205B07047C046E6
:104E30008FFFFEFF004401400048014085B0049010
:104E40000391049A106A01210B059843106204989B
:104E5000006A01900498406800900498406D0290A8
:104E600002981E4A104002900398006802020298BD
:104E70001043029001984905884301900398806887
:104E800001050198084301900498524988420AD0CC
:104E9000FFE704981349884205D0FFE704981249B8
:104EA00088420CD1FFE700980121890488430090D3
:104EB000039840698102009808430090FFE700983A
:104EC00004994860029804994865039840680499D9
:104ED000C86501980499086205B07047FF8FFFFE0E
:104EE000002C0140004401400048014085B004907E
:104EF000039102920498006A00900499086A0122C2
:104F0000904308620498806901900198F0218843D9
:104F100001900298010101980843019000980A212C
:104F200088430090039900980843009001980499E1
:104F3000886100980499086205B0704787B00690B0
:104F4000059104920393069A116A0120814311622C
:104F50000699896902910699096A019106991D4A83
:104F60009142009007D0FFE706981B494018414244
:104F700048410090FFE70098C007002809D0FFE7EC
:104F800002980321884302900499029808430290F2
:104F900004E00298012108430290FFE70298F02103
:104FA0008843029003980001C1B20298084302901E
:104FB00001990A2081430191059901400198084314
:104FC000019002980699886101980699086207B0D5
:104FD0007047C046002C014000FCFFBF85B0049024
:104FE000039102920499086A10229043086204987F
:104FF000806901900498006A009001980F210903CC
:105000008843019002980103019808430190009899
:10501000A021884300900398010100980843009064
:1050200001980499886100980499086205B0704756
:1050300086B005900491039202930599086A1022A4
:10504000904308620598806901900598006A009075
:1050500001980321090288430190039801020198F5
:105060000843019001980F21090388430190029899
:10507000000381B20198084301900099A020814368
:10508000009104990901014000980843009001989B
:105090000599886100980599086206B0704786B046
:1050A00005900491039202930599086A0122120265
:1050B000904308620598C06901900598006A0090C5
:1050C00001980321884301900399019808430190B6
:1050D0000198F0218843019002980001C1B2019823
:1050E00008430190009905204002814300910499F2
:1050F0000902014000980843009001980599C86191
:1051000000980599086206B0704786B00590049132
:10511000039202930599086A0122120390430862E0
:105120000598C06901900598006A009001980321D4
:1051300009028843019003980102019808430190F5
:1051400001980F210903884301900298000381B25E
:105150000198084301900099052040038143009184
:1051600004990903014000980843009001980599AB
:10517000C86100980599086206B0704781B0009038
:1051800000982821405CC00700280CD0FFE7009859
:10519000006840680121490488430099CA6A1043A5
:1051A00009684860FFE700982821405C80070028D4
:1051B0000CD5FFE700980068406801210904884386
:1051C00000990A6B104309684860FFE7009828219E
:1051D000405C400700280CD5FFE700980068406855
:1051E00001218904884300994A6B1043096848608B
:1051F000FFE700982821405C000700280CD5FFE756
:105200000098006840680121C903884300998A6BAF
:10521000104309684860FFE700982821405CC006F9
:1052200000280CD5FFE70098006880680121090379
:1052300088430099CA6B104309688860FFE70098AB
:105240002821405C800600280CD5FFE70098006804
:10525000806801214903884300990A6C104309685A
:105260008860FFE700982821405C400600281DD593
:10527000FFE7009800684068012109058843009A0B
:10528000536C1843126850600098406C88420CD1EF
:10529000FFE70098006840680321490588430099AA
:1052A0008A6C104309684860FFE7FFE700982821EF
:1052B000405C000600280CD5FFE7009800684068B5
:1052C0000121C90488430099CA6C104309684860E9
:1052D000FFE701B07047000080B584B002900299EA
:1052E0008C2200208850FBF775FA01900298006824
:1052F00000680007002811D5FFE70298019B1F49AD
:10530000009101214905002200F0A6F9002804D0EF
:10531000FFE703A9032008702CE0FFE7029800686C
:1053200000684007002811D5FFE70298019B134948
:10533000009101218905002200F08EF9002804D097
:10534000FFE703A90320087014E0FFE70299842215
:105350002020885002998822885002990020C8662F
:10536000FFE70299802200208854FFE703A900206C
:105370000870FFE703A8007804B080BDFFFFFF01BD
:1053800080B58EB00D9008A9002008700D9988682E
:105390000A6910434A691043C96908430C900D9883
:1053A000416E0C9808430C900D9800680068A34962
:1053B00008400C9908430D99096808600D98006829
:1053C00040680321090388430D99CA68104309689E
:1053D00048600D9880690C900D98016A0C980843FC
:1053E0000C900D9800688068954908400C99084316
:1053F0000D99096888600D980068C06A0F2188437C
:105400000D994A6A10430968C862FFE70D98006861
:105410008C49884229D1FFE78C4800680321084065
:10542000059003281CD80598810001A040588746A4
:1054300041540008515400084954000859540008C8
:105440000AA9002008700FE00AA9022008700BE0EA
:105450000AA90420087007E00AA90820087003E0E0
:105460000AA910200870FFE70EE00D980068764941
:10547000884204D1FFE70AA90020087003E00AA9C6
:1054800010200870FFE7FFE7FFE70D98C0690121D2
:10549000C903884267D1FFE70AA80078049008286A
:1054A00025D80498810001A040588746D1540008AF
:1054B000EF540008D9540008EF540008DF540008E6
:1054C000EF540008EF540008EF540008E7540008B8
:1054D000FBF7A4FC069010E05D4806900DE0FBF79A
:1054E000B1FC069009E00120C003069005E0002011
:1054F000069008A901200870FFE70698002831D01F
:10550000FFE706980D990391496A4A005149895A63
:10551000FAF7D2FE0399400049684A088018FAF762
:10552000CBFE80B209900998102816D3FFE709A88E
:105530004088002811D1FFE709990F2081430BA86B
:10554000018009990E2211404A080B9911430180EC
:1055500000880D990968C86003E008A90120087057
:10556000FFE7FFE75AE00AA800780290082826D84B
:105570000298810001A040588746C046A155000806
:10558000BF550008A9550008BF550008AF550008D1
:10559000BF550008BF550008BF550008B7550008A3
:1055A000FBF73CFC069010E0294806900DE0FBF765
:1055B00049FC069009E00120C003069005E00020A8
:1055C000069008A901200870FFE70698002824D05B
:1055D000FFE706980D990191496A4A001D49895AC9
:1055E000FAF76AFE019949684A088018FAF764FEDA
:1055F00080B20990099810280AD3FFE709A84088CB
:10560000002805D1FFE709980D990968C86003E0F3
:1056100008A901200870FFE7FFE7FFE70D996A225C
:10562000012088520D99682288520D990020086740
:105630000D99486708A800780EB080BDF369FFCFC8
:10564000FFF4FF11003801400044004054100240B4
:105650000024F4000461000810B586B0089C049092
:10566000039102A802700193FFE704980068C069E3
:1056700003990840401A4142484102A909788842EA
:1056800068D1FFE70898401C002862D0FFE7FBF7CD
:10569000A1F80199401A0899884204D8FFE70898B0
:1056A00000281ED1FFE70498016808680D22520106
:1056B00090430860049801688868012290438860DC
:1056C0000499842220208850049988228850FFE77A
:1056D0000499802200208854FFE705A90320087060
:1056E0003CE00498006800684007002830D5FFE7D8
:1056F00004980068C0690121C9020840C00A012855
:1057000025D1FFE7049801680122D00208620498BD
:10571000016808680D235B019843086004980168DC
:1057200088689043886004998422202088500499D6
:105730008822885004998C228850FFE7049980229F
:1057400000208854FFE705A90320087006E0FFE762
:10575000FFE78AE705A900200870FFE705A80078A1
:1057600006B010BDB14908780822104308700878C7
:10577000042318430870C87B02231843C873487C6D
:105780001043487408780122104308707047C046DF
:1057900080B586B00020059004900390029001909F
:1057A000FFE70D48026802210A43026000680840D2
:1057B00000900098FFE70720019001200290002050
:1057C00003900490054801A9FAF786FEFDF7A4FBB3
:1057D000FFF7C8FF06B080BD34100240000400503F
:1057E00080B588B08B480168491C016001688A480F
:1057F00048430121C8418949884205D8FFE7FEF79F
:10580000D3FAFEF7DDFDFFE782480168844848438C
:105810000221C8418349884200D9F9E082480078D2
:105820000790002808D0FFE7079803281AD0FFE761
:10583000079804280ED01EE07D4908784978FEF7C5
:1058400003FA7A4948780822104348704879504052
:10585000487111E0FEF725FA74494879082210438F
:10586000487109E0714948780822504048704879E9
:105870001043487100E0FFE76E480078069000286A
:1058800014D0FFE7069801280AD0FFE706980228FF
:1058900012D1FFE7F749C87B04225040C8730CE0DF
:1058A000F449C87BFB221040C87306E0F149C87B6D
:1058B00004221043C87300E0FFE75F4800780590BA
:1058C000002814D0FFE7059801280AD0FFE70598C3
:1058D000022812D1FFE7E749487C0822504048746B
:1058E0000CE0E449487CF7221040487406E0E149A6
:1058F000487C08221043487400E0FFE7D94800784C
:105900000490002814D0FFE7049801280AD0FFE78C
:105910000498022812D1FFE7D649887A082250401D
:1059200088720CE0D349887AF7221040887206E02A
:10593000D049887A08221043887200E0FFE7CB48FC
:1059400000780390002821D0FFE70398012817D0A2
:10595000FFE7039802281FD1FFE7C648807A0007B7
:10596000002806D5FFE7C349487C0222104348744B
:1059700005E0C049487CFD2210404874FFE70CE078
:10598000BC49487CFD221040487406E0B949487C77
:1059900002221043487400E0FFE7B3480078029009
:1059A000002821D0FFE70298012817D0FFE70298CE
:1059B00002281FD1FFE7AF48807A0007002806D5EC
:1059C000FFE7AC49087802221043087005E0A949B6
:1059D0000878FD2210400870FFE70CE0A549087820
:1059E000FD221040087006E0A24908780222104308
:1059F000087000E0FFE7114801900D490122009274
:105A0000FBF73EFE009A01980D49FBF7FDFDFFE70D
:105A100008B080BDB8030020CDCCCCCC99999919A1
:105A2000D578E9266E12830028020020AC050020FC
:105A3000DC0500200C00002000000020C003002036
:105A4000D805002080B584B0024603A802700291F8
:105A5000007801901F2800D9FEE00198810001A084
:105A600040588746E55A0008F95A0008F15A0008DC
:105A7000015B0008095B00081D5B0008315B000842
:105A80004D5B0008695B0008855B0008195C000835
:105A9000235C00082D5C0008375C0008A15B00084F
:105AA000A95B0008B15B0008B95B0008C15B000896
:105AB000C95B0008D15B0008D95B0008E15B000806
:105AC000E95B0008F15B0008F95B0008015C000875
:105AD0000B5C0008135C0008415C0008495C00088E
